{
  "abi": [
    {
      "type": "constructor",
      "inputs": [],
      "stateMutability": "nonpayable"
    },
    {
      "type": "function",
      "name": "approve",
      "inputs": [
        {
          "name": "to",
          "type": "address",
          "internalType": "address"
        },
        {
          "name": "tokenId",
          "type": "uint256",
          "internalType": "uint256"
        }
      ],
      "outputs": [],
      "stateMutability": "payable"
    },
    {
      "type": "function",
      "name": "balanceOf",
      "inputs": [
        {
          "name": "owner",
          "type": "address",
          "internalType": "address"
        }
      ],
      "outputs": [
        {
          "name": "",
          "type": "uint256",
          "internalType": "uint256"
        }
      ],
      "stateMutability": "view"
    },
    {
      "type": "function",
      "name": "getApproved",
      "inputs": [
        {
          "name": "tokenId",
          "type": "uint256",
          "internalType": "uint256"
        }
      ],
      "outputs": [
        {
          "name": "",
          "type": "address",
          "internalType": "address"
        }
      ],
      "stateMutability": "view"
    },
    {
      "type": "function",
      "name": "getCurrentPrice",
      "inputs": [],
      "outputs": [
        {
          "name": "",
          "type": "uint256",
          "internalType": "uint256"
        }
      ],
      "stateMutability": "view"
    },
    {
      "type": "function",
      "name": "getMintedNFTsCount",
      "inputs": [],
      "outputs": [
        {
          "name": "",
          "type": "uint256",
          "internalType": "uint256"
        }
      ],
      "stateMutability": "view"
    },
    {
      "type": "function",
      "name": "getMintedVIPNFTsCount",
      "inputs": [],
      "outputs": [
        {
          "name": "",
          "type": "uint256",
          "internalType": "uint256"
        }
      ],
      "stateMutability": "view"
    },
    {
      "type": "function",
      "name": "getNextNFTPrice",
      "inputs": [],
      "outputs": [
        {
          "name": "",
          "type": "uint256",
          "internalType": "uint256"
        }
      ],
      "stateMutability": "view"
    },
    {
      "type": "function",
      "name": "getTotalNFTCount",
      "inputs": [],
      "outputs": [
        {
          "name": "",
          "type": "uint256",
          "internalType": "uint256"
        }
      ],
      "stateMutability": "pure"
    },
    {
      "type": "function",
      "name": "getTotalVIPNFTCount",
      "inputs": [],
      "outputs": [
        {
          "name": "",
          "type": "uint256",
          "internalType": "uint256"
        }
      ],
      "stateMutability": "pure"
    },
    {
      "type": "function",
      "name": "getVIPMintQuota",
      "inputs": [
        {
          "name": "user",
          "type": "address",
          "internalType": "address"
        }
      ],
      "outputs": [
        {
          "name": "",
          "type": "uint256",
          "internalType": "uint256"
        }
      ],
      "stateMutability": "view"
    },
    {
      "type": "function",
      "name": "getVIPPrice",
      "inputs": [],
      "outputs": [
        {
          "name": "",
          "type": "uint256",
          "internalType": "uint256"
        }
      ],
      "stateMutability": "pure"
    },
    {
      "type": "function",
      "name": "incrementVIPMintQuota",
      "inputs": [
        {
          "name": "user",
          "type": "address",
          "internalType": "address"
        },
        {
          "name": "amount",
          "type": "uint256",
          "internalType": "uint256"
        }
      ],
      "outputs": [],
      "stateMutability": "nonpayable"
    },
    {
      "type": "function",
      "name": "isApprovedForAll",
      "inputs": [
        {
          "name": "owner",
          "type": "address",
          "internalType": "address"
        },
        {
          "name": "operator",
          "type": "address",
          "internalType": "address"
        }
      ],
      "outputs": [
        {
          "name": "",
          "type": "bool",
          "internalType": "bool"
        }
      ],
      "stateMutability": "view"
    },
    {
      "type": "function",
      "name": "mint",
      "inputs": [
        {
          "name": "amount",
          "type": "uint256",
          "internalType": "uint256"
        }
      ],
      "outputs": [],
      "stateMutability": "payable"
    },
    {
      "type": "function",
      "name": "mintVIP",
      "inputs": [
        {
          "name": "amount",
          "type": "uint256",
          "internalType": "uint256"
        }
      ],
      "outputs": [],
      "stateMutability": "payable"
    },
    {
      "type": "function",
      "name": "mintbyKingdomly",
      "inputs": [
        {
          "name": "amount",
          "type": "uint256",
          "internalType": "uint256"
        }
      ],
      "outputs": [],
      "stateMutability": "payable"
    },
    {
      "type": "function",
      "name": "name",
      "inputs": [],
      "outputs": [
        {
          "name": "",
          "type": "string",
          "internalType": "string"
        }
      ],
      "stateMutability": "view"
    },
    {
      "type": "function",
      "name": "owner",
      "inputs": [],
      "outputs": [
        {
          "name": "",
          "type": "address",
          "internalType": "address"
        }
      ],
      "stateMutability": "view"
    },
    {
      "type": "function",
      "name": "ownerOf",
      "inputs": [
        {
          "name": "tokenId",
          "type": "uint256",
          "internalType": "uint256"
        }
      ],
      "outputs": [
        {
          "name": "",
          "type": "address",
          "internalType": "address"
        }
      ],
      "stateMutability": "view"
    },
    {
      "type": "function",
      "name": "renounceOwnership",
      "inputs": [],
      "outputs": [],
      "stateMutability": "nonpayable"
    },
    {
      "type": "function",
      "name": "royaltyInfo",
      "inputs": [
        {
          "name": "",
          "type": "uint256",
          "internalType": "uint256"
        },
        {
          "name": "salePrice",
          "type": "uint256",
          "internalType": "uint256"
        }
      ],
      "outputs": [
        {
          "name": "receiver",
          "type": "address",
          "internalType": "address"
        },
        {
          "name": "royaltyAmount",
          "type": "uint256",
          "internalType": "uint256"
        }
      ],
      "stateMutability": "view"
    },
    {
      "type": "function",
      "name": "safeTransferFrom",
      "inputs": [
        {
          "name": "from",
          "type": "address",
          "internalType": "address"
        },
        {
          "name": "to",
          "type": "address",
          "internalType": "address"
        },
        {
          "name": "tokenId",
          "type": "uint256",
          "internalType": "uint256"
        }
      ],
      "outputs": [],
      "stateMutability": "payable"
    },
    {
      "type": "function",
      "name": "safeTransferFrom",
      "inputs": [
        {
          "name": "from",
          "type": "address",
          "internalType": "address"
        },
        {
          "name": "to",
          "type": "address",
          "internalType": "address"
        },
        {
          "name": "tokenId",
          "type": "uint256",
          "internalType": "uint256"
        },
        {
          "name": "_data",
          "type": "bytes",
          "internalType": "bytes"
        }
      ],
      "outputs": [],
      "stateMutability": "payable"
    },
    {
      "type": "function",
      "name": "setApprovalForAll",
      "inputs": [
        {
          "name": "operator",
          "type": "address",
          "internalType": "address"
        },
        {
          "name": "approved",
          "type": "bool",
          "internalType": "bool"
        }
      ],
      "outputs": [],
      "stateMutability": "nonpayable"
    },
    {
      "type": "function",
      "name": "supportsInterface",
      "inputs": [
        {
          "name": "interfaceId",
          "type": "bytes4",
          "internalType": "bytes4"
        }
      ],
      "outputs": [
        {
          "name": "",
          "type": "bool",
          "internalType": "bool"
        }
      ],
      "stateMutability": "view"
    },
    {
      "type": "function",
      "name": "symbol",
      "inputs": [],
      "outputs": [
        {
          "name": "",
          "type": "string",
          "internalType": "string"
        }
      ],
      "stateMutability": "view"
    },
    {
      "type": "function",
      "name": "tokenCountNormal",
      "inputs": [],
      "outputs": [
        {
          "name": "",
          "type": "uint256",
          "internalType": "uint256"
        }
      ],
      "stateMutability": "view"
    },
    {
      "type": "function",
      "name": "tokenCountVIP",
      "inputs": [],
      "outputs": [
        {
          "name": "",
          "type": "uint256",
          "internalType": "uint256"
        }
      ],
      "stateMutability": "view"
    },
    {
      "type": "function",
      "name": "tokenURI",
      "inputs": [
        {
          "name": "tokenId",
          "type": "uint256",
          "internalType": "uint256"
        }
      ],
      "outputs": [
        {
          "name": "",
          "type": "string",
          "internalType": "string"
        }
      ],
      "stateMutability": "view"
    },
    {
      "type": "function",
      "name": "totalSupply",
      "inputs": [],
      "outputs": [
        {
          "name": "result",
          "type": "uint256",
          "internalType": "uint256"
        }
      ],
      "stateMutability": "view"
    },
    {
      "type": "function",
      "name": "transferFrom",
      "inputs": [
        {
          "name": "from",
          "type": "address",
          "internalType": "address"
        },
        {
          "name": "to",
          "type": "address",
          "internalType": "address"
        },
        {
          "name": "tokenId",
          "type": "uint256",
          "internalType": "uint256"
        }
      ],
      "outputs": [],
      "stateMutability": "payable"
    },
    {
      "type": "function",
      "name": "transferOwnership",
      "inputs": [
        {
          "name": "newOwner",
          "type": "address",
          "internalType": "address"
        }
      ],
      "outputs": [],
      "stateMutability": "nonpayable"
    },
    {
      "type": "function",
      "name": "withdraw",
      "inputs": [],
      "outputs": [],
      "stateMutability": "nonpayable"
    },
    {
      "type": "event",
      "name": "Approval",
      "inputs": [
        {
          "name": "owner",
          "type": "address",
          "indexed": true,
          "internalType": "address"
        },
        {
          "name": "approved",
          "type": "address",
          "indexed": true,
          "internalType": "address"
        },
        {
          "name": "tokenId",
          "type": "uint256",
          "indexed": true,
          "internalType": "uint256"
        }
      ],
      "anonymous": false
    },
    {
      "type": "event",
      "name": "ApprovalForAll",
      "inputs": [
        {
          "name": "owner",
          "type": "address",
          "indexed": true,
          "internalType": "address"
        },
        {
          "name": "operator",
          "type": "address",
          "indexed": true,
          "internalType": "address"
        },
        {
          "name": "approved",
          "type": "bool",
          "indexed": false,
          "internalType": "bool"
        }
      ],
      "anonymous": false
    },
    {
      "type": "event",
      "name": "ConsecutiveTransfer",
      "inputs": [
        {
          "name": "fromTokenId",
          "type": "uint256",
          "indexed": true,
          "internalType": "uint256"
        },
        {
          "name": "toTokenId",
          "type": "uint256",
          "indexed": false,
          "internalType": "uint256"
        },
        {
          "name": "from",
          "type": "address",
          "indexed": true,
          "internalType": "address"
        },
        {
          "name": "to",
          "type": "address",
          "indexed": true,
          "internalType": "address"
        }
      ],
      "anonymous": false
    },
    {
      "type": "event",
      "name": "FundWithdrawn",
      "inputs": [
        {
          "name": "owner",
          "type": "address",
          "indexed": false,
          "internalType": "address"
        },
        {
          "name": "amount",
          "type": "uint256",
          "indexed": false,
          "internalType": "uint256"
        }
      ],
      "anonymous": false
    },
    {
      "type": "event",
      "name": "NFTMinted",
      "inputs": [
        {
          "name": "minter",
          "type": "address",
          "indexed": true,
          "internalType": "address"
        },
        {
          "name": "amount",
          "type": "uint256",
          "indexed": false,
          "internalType": "uint256"
        },
        {
          "name": "value",
          "type": "uint256",
          "indexed": false,
          "internalType": "uint256"
        }
      ],
      "anonymous": false
    },
    {
      "type": "event",
      "name": "OwnershipTransferred",
      "inputs": [
        {
          "name": "previousOwner",
          "type": "address",
          "indexed": true,
          "internalType": "address"
        },
        {
          "name": "newOwner",
          "type": "address",
          "indexed": true,
          "internalType": "address"
        }
      ],
      "anonymous": false
    },
    {
      "type": "event",
      "name": "Transfer",
      "inputs": [
        {
          "name": "from",
          "type": "address",
          "indexed": true,
          "internalType": "address"
        },
        {
          "name": "to",
          "type": "address",
          "indexed": true,
          "internalType": "address"
        },
        {
          "name": "tokenId",
          "type": "uint256",
          "indexed": true,
          "internalType": "uint256"
        }
      ],
      "anonymous": false
    },
    {
      "type": "error",
      "name": "ApprovalCallerNotOwnerNorApproved",
      "inputs": []
    },
    {
      "type": "error",
      "name": "ApprovalQueryForNonexistentToken",
      "inputs": []
    },
    {
      "type": "error",
      "name": "BalanceQueryForZeroAddress",
      "inputs": []
    },
    {
      "type": "error",
      "name": "ExceedsMaxSupply",
      "inputs": [
        {
          "name": "requested",
          "type": "uint256",
          "internalType": "uint256"
        },
        {
          "name": "available",
          "type": "uint256",
          "internalType": "uint256"
        }
      ]
    },
    {
      "type": "error",
      "name": "ExceedsVIPMaxSupply",
      "inputs": [
        {
          "name": "requested",
          "type": "uint256",
          "internalType": "uint256"
        },
        {
          "name": "available",
          "type": "uint256",
          "internalType": "uint256"
        }
      ]
    },
    {
      "type": "error",
      "name": "InsufficientEther",
      "inputs": [
        {
          "name": "required",
          "type": "uint256",
          "internalType": "uint256"
        },
        {
          "name": "provided",
          "type": "uint256",
          "internalType": "uint256"
        }
      ]
    },
    {
      "type": "error",
      "name": "MintERC2309QuantityExceedsLimit",
      "inputs": []
    },
    {
      "type": "error",
      "name": "MintToZeroAddress",
      "inputs": []
    },
    {
      "type": "error",
      "name": "MintZeroQuantity",
      "inputs": []
    },
    {
      "type": "error",
      "name": "NotCompatibleWithSpotMints",
      "inputs": []
    },
    {
      "type": "error",
      "name": "Overflow",
      "inputs": []
    },
    {
      "type": "error",
      "name": "OwnableInvalidOwner",
      "inputs": [
        {
          "name": "owner",
          "type": "address",
          "internalType": "address"
        }
      ]
    },
    {
      "type": "error",
      "name": "OwnableUnauthorizedAccount",
      "inputs": [
        {
          "name": "account",
          "type": "address",
          "internalType": "address"
        }
      ]
    },
    {
      "type": "error",
      "name": "OwnerQueryForNonexistentToken",
      "inputs": []
    },
    {
      "type": "error",
      "name": "OwnershipNotInitializedForExtraData",
      "inputs": []
    },
    {
      "type": "error",
      "name": "SequentialMintExceedsLimit",
      "inputs": []
    },
    {
      "type": "error",
      "name": "SequentialUpToTooSmall",
      "inputs": []
    },
    {
      "type": "error",
      "name": "SpotMintTokenIdTooSmall",
      "inputs": []
    },
    {
      "type": "error",
      "name": "TokenAlreadyExists",
      "inputs": []
    },
    {
      "type": "error",
      "name": "TransferCallerNotOwnerNorApproved",
      "inputs": []
    },
    {
      "type": "error",
      "name": "TransferFromIncorrectOwner",
      "inputs": []
    },
    {
      "type": "error",
      "name": "TransferToNonERC721ReceiverImplementer",
      "inputs": []
    },
    {
      "type": "error",
      "name": "TransferToZeroAddress",
      "inputs": []
    },
    {
      "type": "error",
      "name": "URIQueryForNonexistentToken",
      "inputs": []
    }
  ],
  "bytecode": {
    "object": "0x60806040523480156200001157600080fd5b50336040518060400160405280600c81526020016b486f6e657947656e6573697360a01b81525060405180604001604052806005815260200164484f4e455960d81b8152508160029081620000679190620001c1565b506003620000768282620001c1565b505060008055506001600160a01b038116620000ac57604051631e4fbdf760e01b81526000600482015260240160405180910390fd5b620000b781620000c8565b506000600a819055600b556200028d565b600980546001600160a01b038381166001600160a01b0319831681179093556040519116919082907f8be0079c531659141344cd1fd0a4f28419497f9722a3daafe3b4186f6b6457e090600090a35050565b634e487b7160e01b600052604160045260246000fd5b600181811c908216806200014557607f821691505b6020821081036200016657634e487b7160e01b600052602260045260246000fd5b50919050565b601f821115620001bc576000816000526020600020601f850160051c81016020861015620001975750805b601f850160051c820191505b81811015620001b857828155600101620001a3565b5050505b505050565b81516001600160401b03811115620001dd57620001dd6200011a565b620001f581620001ee845462000130565b846200016c565b602080601f8311600181146200022d5760008415620002145750858301515b600019600386901b1c1916600185901b178555620001b8565b600085815260208120601f198616915b828110156200025e578886015182559484019460019091019084016200023d565b50858210156200027d5787850151600019600388901b60f8161c191681555b5050505050600190811b01905550565b611aa0806200029d6000396000f3fe6080604052600436106101ee5760003560e01c80638da5cb5b1161010d578063c4039f6c116100a0578063e38f18f21161006f578063e38f18f21461051f578063e985e9c514610534578063eb91d37e14610554578063ec6533e114610569578063f2fde38b1461057f57600080fd5b8063c4039f6c146104b4578063c87b56dd146104ca578063d5f129ad146104ea578063da632926146104ff57600080fd5b8063a6906827116100dc578063a69068271461043e578063b6342d5e14610474578063b88d4fde1461048d578063bc50c9c1146104a057600080fd5b80638da5cb5b146103d857806395d89b41146103f6578063a0712d681461040b578063a22cb4651461041e57600080fd5b80632660aabc1161018557806342842e0e1161015457806342842e0e146103705780636352211e1461038357806370a08231146103a3578063715018a6146103c357600080fd5b80632660aabc146102f35780632a55205a1461030857806331408098146103475780633ccfd60b1461035b57600080fd5b806318160ddd116101c157806318160ddd146102975780631a0aa6db146102ba578063231931bd146102cd57806323b872dd146102e057600080fd5b806301ffc9a7146101f357806306fdde0314610228578063081812fc1461024a578063095ea7b314610282575b600080fd5b3480156101ff57600080fd5b5061021361020e366004611618565b61059f565b60405190151581526020015b60405180910390f35b34801561023457600080fd5b5061023d6105ca565b60405161021f9190611685565b34801561025657600080fd5b5061026a610265366004611698565b61065c565b6040516001600160a01b03909116815260200161021f565b6102956102903660046116c8565b610697565b005b3480156102a357600080fd5b50600154600054035b60405190815260200161021f565b6102956102c8366004611698565b6106a7565b6102956102db366004611698565b610870565b6102956102ee3660046116f2565b610a33565b3480156102ff57600080fd5b50600b546102ac565b34801561031457600080fd5b5061032861032336600461172e565b610b94565b604080516001600160a01b03909316835260208301919091520161021f565b34801561035357600080fd5b50600a6102ac565b34801561036757600080fd5b50610295610bcb565b61029561037e3660046116f2565b610d12565b34801561038f57600080fd5b5061026a61039e366004611698565b610d32565b3480156103af57600080fd5b506102ac6103be366004611750565b610d3d565b3480156103cf57600080fd5b50610295610d83565b3480156103e457600080fd5b506009546001600160a01b031661026a565b34801561040257600080fd5b5061023d610d97565b610295610419366004611698565b610da6565b34801561042a57600080fd5b5061029561043936600461176b565b610e7b565b34801561044a57600080fd5b506102ac610459366004611750565b6001600160a01b03166000908152600c602052604090205490565b34801561048057600080fd5b50650646880c88006102ac565b61029561049b3660046117bd565b610ee7565b3480156104ac57600080fd5b50601e6102ac565b3480156104c057600080fd5b506102ac600a5481565b3480156104d657600080fd5b5061023d6104e5366004611698565b610f22565b3480156104f657600080fd5b50600a546102ac565b34801561050b57600080fd5b5061029561051a3660046116c8565b610f9d565b34801561052b57600080fd5b506102ac611034565b34801561054057600080fd5b5061021361054f366004611899565b611079565b34801561056057600080fd5b506102ac6110a7565b34801561057557600080fd5b506102ac600b5481565b34801561058b57600080fd5b5061029561059a366004611750565b6110b9565b60006001600160e01b0319821663152a902d60e11b14806105c457506105c4826110f7565b92915050565b6060600280546105d9906118c3565b80601f0160208091040260200160405190810160405280929190818152602001828054610605906118c3565b80156106525780601f1061062757610100808354040283529160200191610652565b820191906000526020600020905b81548152906001019060200180831161063557829003601f168201915b5050505050905090565b600061066782611145565b61067b5761067b6333d1c03960e21b61118a565b506000908152600660205260409020546001600160a01b031690565b6106a382826001611194565b5050565b60006106b4600a54611237565b905060006106c28383611913565b905060006106d78466038d7ea4c68000611913565b60646106e4846003611913565b6106ee919061192a565b6106f8919061194c565b90506000610706828461194c565b9050803410156107375760405163c108422360e01b8152600481018290523460248201526044015b60405180910390fd5b601e85600a54610747919061194c565b111561077f5784600a54601e61075d919061195f565b60405163adc3cee560e01b81526004810192909252602482015260440161072e565b60048511156107ca5760405162461bcd60e51b8152602060048201526017602482015276115e18d959591cc81b585e081b5a5b9d08185b5bdd5b9d604a1b604482015260640161072e565b6107d43386611271565b84600a60008282546107e6919061194c565b90915550506040805186815234602082015233917f3a8a89b59a31c39a36febecb987e0657ab7b7c73b60ebacb44dcb9886c2d5c8a910160405180910390a26000610831823461195f565b9050801561086857604051339082156108fc029083906000818181858888f19350505050158015610866573d6000803e3d6000fd5b505b505050505050565b336000610883650646880c880084611913565b9050803410156108af5760405163c108422360e01b81526004810182905234602482015260440161072e565b600a83600b546108bf919061194c565b11156108f75782600b54600a6108d5919061195f565b604051631b1b5a2360e01b81526004810192909252602482015260440161072e565b6001600160a01b0382166000908152600c60205260409020548311156109585760405162461bcd60e51b81526020600482015260166024820152754578636565647320564950206d696e742071756f746160501b604482015260640161072e565b6001600160a01b0382166000908152600c60205260408120805485929061098090849061195f565b9091555061099090503384611271565b82600b60008282546109a2919061194c565b9091555050604080518481523460208201526001600160a01b038416917f3a8a89b59a31c39a36febecb987e0657ab7b7c73b60ebacb44dcb9886c2d5c8a910160405180910390a260006109f6823461195f565b90508015610a2d57604051339082156108fc029083906000818181858888f19350505050158015610a2b573d6000803e3d6000fd5b505b50505050565b6000610a3e8261128b565b6001600160a01b039485169490915081168414610a6457610a6462a1148160e81b61118a565b60008281526006602052604090208054338082146001600160a01b03881690911417610aa857610a948633611079565b610aa857610aa8632ce44b5f60e11b61118a565b8015610ab357600082555b6001600160a01b038681166000908152600560205260408082208054600019019055918716808252919020805460010190554260a01b17600160e11b17600085815260046020526040812091909155600160e11b84169003610b4557600184016000818152600460205260408120549003610b43576000548114610b435760008181526004602052604090208490555b505b6001600160a01b0385168481887fddf252ad1be2c89b69c2b068fc378daa952ba7f163c4a11628f55a4df523b3ef600080a480600003610b8f57610b8f633a954ecd60e21b61118a565b610866565b600080610ba96009546001600160a01b031690565b91506064610bb8846005611913565b610bc2919061192a565b90509250929050565b610bd3611321565b4780610c185760405162461bcd60e51b81526020600482015260146024820152734e6f2066756e647320746f20776974686472617760601b604482015260640161072e565b7fa692503bc54c9f1d1483729b6058a24987097ff492084b1a8adf8cae08e4fb43610c4b6009546001600160a01b031690565b604080516001600160a01b039092168252602082018490520160405180910390a16000610c806009546001600160a01b031690565b6001600160a01b03164760405160006040518083038185875af1925050503d8060008114610cca576040519150601f19603f3d011682016040523d82523d6000602084013e610ccf565b606091505b50509050806106a35760405162461bcd60e51b815260206004820152600f60248201526e151c985b9cd9995c8819985a5b1959608a1b604482015260640161072e565b610d2d83838360405180602001604052806000815250610ee7565b505050565b60006105c48261128b565b60006001600160a01b038216610d5d57610d5d6323d3ad8160e21b61118a565b506001600160a01b031660009081526005602052604090205467ffffffffffffffff1690565b610d8b611321565b610d95600061134e565b565b6060600380546105d9906118c3565b60003390506000610db8600a54611237565b610dc29084611913565b905080341015610dee5760405163c108422360e01b81526004810182905234602482015260440161072e565b601e83600a54610dfe919061194c565b1115610e145782600a54601e61075d919061195f565b6004831115610e5f5760405162461bcd60e51b8152602060048201526017602482015276115e18d959591cc81b585e081b5a5b9d08185b5bdd5b9d604a1b604482015260640161072e565b610e693384611271565b82600a60008282546109a2919061194c565b3360008181526007602090815260408083206001600160a01b03871680855290835292819020805460ff191686151590811790915590519081529192917f17307eab39ab6107e8899845ad3d59bd9653f200f220920489ca2b5937696c31910160405180910390a35050565b610ef2848484610a33565b6001600160a01b0383163b15610a2d57610f0e848484846113a0565b610a2d57610a2d6368d2bf6b60e11b61118a565b6060610f2d82611145565b610f4157610f41630a14c4b560e41b61118a565b6000610f4b611482565b90508051600003610f6b5760405180602001604052806000815250610f96565b80610f75846114a2565b604051602001610f86929190611972565b6040516020818303038152906040525b9392505050565b610fa5611321565b600a81600b54610fb5919061194c565b11156110035760405162461bcd60e51b815260206004820152601c60248201527f4578636565647320746f74616c2056495020737570706c792063617000000000604482015260640161072e565b6001600160a01b0382166000908152600c60205260408120805483929061102b90849061194c565b90915550505050565b6000806005600a54611046919061194c565b9050601e81111561106a57604051631a93c68960e11b815260040160405180910390fd5b61107381611237565b91505090565b6001600160a01b03918216600090815260076020908152604080832093909416825291909152205460ff1690565b60006110b4600a54611237565b905090565b6110c1611321565b6001600160a01b0381166110eb57604051631e4fbdf760e01b81526000600482015260240161072e565b6110f48161134e565b50565b60006301ffc9a760e01b6001600160e01b03198316148061112857506380ac58cd60e01b6001600160e01b03198316145b806105c45750506001600160e01b031916635b5e139f60e01b1490565b600080548210156111855760005b506000828152600460205260408120549081900361117b57611174836119a1565b9250611153565b600160e01b161590505b919050565b8060005260046000fd5b600061119f83610d32565b90508180156111b75750336001600160a01b03821614155b156111da576111c68133611079565b6111da576111da6367d9dca160e11b61118a565b60008381526006602052604080822080546001600160a01b0319166001600160a01b0388811691821790925591518693918516917f8c5be1e5ebec7d5bd14f71427d1e84f3dd0314c0f7b2291e5b200ac8c7c3b92591a450505050565b60008061124560058461192a565b61125090600161194c565b905061126164a2fb40580082611913565b610f969065065dd083700061194c565b6106a38282604051806020016040528060008152506114e6565b600081815260046020526040902054806000036112fe5760005482106112bb576112bb636f96cda160e11b61118a565b5b506000190160008181526004602052604090205480156112bc57600160e01b81166000036112e957919050565b6112f9636f96cda160e11b61118a565b6112bc565b600160e01b811660000361131157919050565b611185636f96cda160e11b61118a565b6009546001600160a01b03163314610d955760405163118cdaa760e01b815233600482015260240161072e565b600980546001600160a01b038381166001600160a01b0319831681179093556040519116919082907f8be0079c531659141344cd1fd0a4f28419497f9722a3daafe3b4186f6b6457e090600090a35050565b604051630a85bd0160e11b81526000906001600160a01b0385169063150b7a02906113d59033908990889088906004016119b8565b6020604051808303816000875af1925050508015611410575060408051601f3d908101601f1916820190925261140d918101906119f5565b60015b611465573d80801561143e576040519150601f19603f3d011682016040523d82523d6000602084013e611443565b606091505b50805160000361145d5761145d6368d2bf6b60e11b61118a565b805181602001fd5b6001600160e01b031916630a85bd0160e11b149050949350505050565b6060604051806080016040528060588152602001611a1360589139905090565b606060a06040510180604052602081039150506000815280825b600183039250600a81066030018353600a9004806114bc5750819003601f19909101908152919050565b6114f08383611543565b6001600160a01b0383163b15610d2d576000548281035b61151a60008683806001019450866113a0565b61152e5761152e6368d2bf6b60e11b61118a565b818110611507578160005414610a2b57600080fd5b600080549082900361155f5761155f63b562e8dd60e01b61118a565b60008181526004602090815260408083206001600160a01b0387164260a01b6001881460e11b178117909155808452600590925282208054680100000000000000018602019055908190036115bd576115bd622e076360e81b61118a565b818301825b808360007fddf252ad1be2c89b69c2b068fc378daa952ba7f163c4a11628f55a4df523b3ef600080a48181600101915081036115c2575060005550505050565b6001600160e01b0319811681146110f457600080fd5b60006020828403121561162a57600080fd5b8135610f9681611602565b60005b83811015611650578181015183820152602001611638565b50506000910152565b60008151808452611671816020860160208601611635565b601f01601f19169290920160200192915050565b602081526000610f966020830184611659565b6000602082840312156116aa57600080fd5b5035919050565b80356001600160a01b038116811461118557600080fd5b600080604083850312156116db57600080fd5b6116e4836116b1565b946020939093013593505050565b60008060006060848603121561170757600080fd5b611710846116b1565b925061171e602085016116b1565b9150604084013590509250925092565b6000806040838503121561174157600080fd5b50508035926020909101359150565b60006020828403121561176257600080fd5b610f96826116b1565b6000806040838503121561177e57600080fd5b611787836116b1565b91506020830135801515811461179c57600080fd5b809150509250929050565b634e487b7160e01b600052604160045260246000fd5b600080600080608085870312156117d357600080fd5b6117dc856116b1565b93506117ea602086016116b1565b925060408501359150606085013567ffffffffffffffff8082111561180e57600080fd5b818701915087601f83011261182257600080fd5b813581811115611834576118346117a7565b604051601f8201601f19908116603f0116810190838211818310171561185c5761185c6117a7565b816040528281528a602084870101111561187557600080fd5b82602086016020830137600060208483010152809550505050505092959194509250565b600080604083850312156118ac57600080fd5b6118b5836116b1565b9150610bc2602084016116b1565b600181811c908216806118d757607f821691505b6020821081036118f757634e487b7160e01b600052602260045260246000fd5b50919050565b634e487b7160e01b600052601160045260246000fd5b80820281158282048414176105c4576105c46118fd565b60008261194757634e487b7160e01b600052601260045260246000fd5b500490565b808201808211156105c4576105c46118fd565b818103818111156105c4576105c46118fd565b60008351611984818460208801611635565b835190830190611998818360208801611635565b01949350505050565b6000816119b0576119b06118fd565b506000190190565b6001600160a01b03858116825284166020820152604081018390526080606082018190526000906119eb90830184611659565b9695505050505050565b600060208284031215611a0757600080fd5b8151610f968161160256fe68747470733a2f2f6261666b726569666a3276796233733737797261667265796f75706b3467686a6f7971737869716f6f7432776a7a65763574667374706a65716c6d2e697066732e6e667473746f726167652e6c696e6ba264697066735822122060679c4c71810ff7c0e0118335c34b0d63e36ef97ceb9070ba1062f8964ae3db64736f6c63430008180033",
    "linkReferences": {}
  },
  "methodIdentifiers": {
    "approve(address,uint256)": "095ea7b3",
    "balanceOf(address)": "70a08231",
    "getApproved(uint256)": "081812fc",
    "getCurrentPrice()": "eb91d37e",
    "getMintedNFTsCount()": "d5f129ad",
    "getMintedVIPNFTsCount()": "2660aabc",
    "getNextNFTPrice()": "e38f18f2",
    "getTotalNFTCount()": "bc50c9c1",
    "getTotalVIPNFTCount()": "31408098",
    "getVIPMintQuota(address)": "a6906827",
    "getVIPPrice()": "b6342d5e",
    "incrementVIPMintQuota(address,uint256)": "da632926",
    "isApprovedForAll(address,address)": "e985e9c5",
    "mint(uint256)": "a0712d68",
    "mintVIP(uint256)": "231931bd",
    "mintbyKingdomly(uint256)": "1a0aa6db",
    "name()": "06fdde03",
    "owner()": "8da5cb5b",
    "ownerOf(uint256)": "6352211e",
    "renounceOwnership()": "715018a6",
    "royaltyInfo(uint256,uint256)": "2a55205a",
    "safeTransferFrom(address,address,uint256)": "42842e0e",
    "safeTransferFrom(address,address,uint256,bytes)": "b88d4fde",
    "setApprovalForAll(address,bool)": "a22cb465",
    "supportsInterface(bytes4)": "01ffc9a7",
    "symbol()": "95d89b41",
    "tokenCountNormal()": "c4039f6c",
    "tokenCountVIP()": "ec6533e1",
    "tokenURI(uint256)": "c87b56dd",
    "totalSupply()": "18160ddd",
    "transferFrom(address,address,uint256)": "23b872dd",
    "transferOwnership(address)": "f2fde38b",
    "withdraw()": "3ccfd60b"
  },
  "id": 27
}