{
  "abi": [
    {
      "type": "constructor",
      "inputs": [
        {
          "name": "_merkleRoot",
          "type": "bytes32",
          "internalType": "bytes32"
        }
      ],
      "stateMutability": "nonpayable"
    },
    {
      "type": "function",
      "name": "approve",
      "inputs": [
        {
          "name": "to",
          "type": "address",
          "internalType": "address"
        },
        {
          "name": "tokenId",
          "type": "uint256",
          "internalType": "uint256"
        }
      ],
      "outputs": [],
      "stateMutability": "nonpayable"
    },
    {
      "type": "function",
      "name": "balanceOf",
      "inputs": [
        {
          "name": "owner",
          "type": "address",
          "internalType": "address"
        }
      ],
      "outputs": [
        {
          "name": "",
          "type": "uint256",
          "internalType": "uint256"
        }
      ],
      "stateMutability": "view"
    },
    {
      "type": "function",
      "name": "getApproved",
      "inputs": [
        {
          "name": "tokenId",
          "type": "uint256",
          "internalType": "uint256"
        }
      ],
      "outputs": [
        {
          "name": "",
          "type": "address",
          "internalType": "address"
        }
      ],
      "stateMutability": "view"
    },
    {
      "type": "function",
      "name": "getCurrentPrice",
      "inputs": [],
      "outputs": [
        {
          "name": "",
          "type": "uint256",
          "internalType": "uint256"
        }
      ],
      "stateMutability": "view"
    },
    {
      "type": "function",
      "name": "getMintedNFTsCount",
      "inputs": [],
      "outputs": [
        {
          "name": "",
          "type": "uint256",
          "internalType": "uint256"
        }
      ],
      "stateMutability": "view"
    },
    {
      "type": "function",
      "name": "getMintedVIPNFTsCount",
      "inputs": [],
      "outputs": [
        {
          "name": "",
          "type": "uint256",
          "internalType": "uint256"
        }
      ],
      "stateMutability": "view"
    },
    {
      "type": "function",
      "name": "getNextNFTPrice",
      "inputs": [],
      "outputs": [
        {
          "name": "",
          "type": "uint256",
          "internalType": "uint256"
        }
      ],
      "stateMutability": "view"
    },
    {
      "type": "function",
      "name": "getTotalNFTCount",
      "inputs": [],
      "outputs": [
        {
          "name": "",
          "type": "uint256",
          "internalType": "uint256"
        }
      ],
      "stateMutability": "pure"
    },
    {
      "type": "function",
      "name": "getTotalVIPNFTCount",
      "inputs": [],
      "outputs": [
        {
          "name": "",
          "type": "uint256",
          "internalType": "uint256"
        }
      ],
      "stateMutability": "pure"
    },
    {
      "type": "function",
      "name": "isApprovedForAll",
      "inputs": [
        {
          "name": "owner",
          "type": "address",
          "internalType": "address"
        },
        {
          "name": "operator",
          "type": "address",
          "internalType": "address"
        }
      ],
      "outputs": [
        {
          "name": "",
          "type": "bool",
          "internalType": "bool"
        }
      ],
      "stateMutability": "view"
    },
    {
      "type": "function",
      "name": "merkleRoot",
      "inputs": [],
      "outputs": [
        {
          "name": "",
          "type": "bytes32",
          "internalType": "bytes32"
        }
      ],
      "stateMutability": "view"
    },
    {
      "type": "function",
      "name": "mint",
      "inputs": [
        {
          "name": "amount",
          "type": "uint256",
          "internalType": "uint256"
        }
      ],
      "outputs": [],
      "stateMutability": "payable"
    },
    {
      "type": "function",
      "name": "mintVIP",
      "inputs": [
        {
          "name": "proofs",
          "type": "bytes32[]",
          "internalType": "bytes32[]"
        },
        {
          "name": "amount",
          "type": "uint256",
          "internalType": "uint256"
        }
      ],
      "outputs": [],
      "stateMutability": "payable"
    },
    {
      "type": "function",
      "name": "name",
      "inputs": [],
      "outputs": [
        {
          "name": "",
          "type": "string",
          "internalType": "string"
        }
      ],
      "stateMutability": "view"
    },
    {
      "type": "function",
      "name": "owner",
      "inputs": [],
      "outputs": [
        {
          "name": "",
          "type": "address",
          "internalType": "address"
        }
      ],
      "stateMutability": "view"
    },
    {
      "type": "function",
      "name": "ownerOf",
      "inputs": [
        {
          "name": "tokenId",
          "type": "uint256",
          "internalType": "uint256"
        }
      ],
      "outputs": [
        {
          "name": "",
          "type": "address",
          "internalType": "address"
        }
      ],
      "stateMutability": "view"
    },
    {
      "type": "function",
      "name": "renounceOwnership",
      "inputs": [],
      "outputs": [],
      "stateMutability": "nonpayable"
    },
    {
      "type": "function",
      "name": "royaltyInfo",
      "inputs": [
        {
          "name": "",
          "type": "uint256",
          "internalType": "uint256"
        },
        {
          "name": "salePrice",
          "type": "uint256",
          "internalType": "uint256"
        }
      ],
      "outputs": [
        {
          "name": "receiver",
          "type": "address",
          "internalType": "address"
        },
        {
          "name": "royaltyAmount",
          "type": "uint256",
          "internalType": "uint256"
        }
      ],
      "stateMutability": "view"
    },
    {
      "type": "function",
      "name": "safeTransferFrom",
      "inputs": [
        {
          "name": "from",
          "type": "address",
          "internalType": "address"
        },
        {
          "name": "to",
          "type": "address",
          "internalType": "address"
        },
        {
          "name": "tokenId",
          "type": "uint256",
          "internalType": "uint256"
        }
      ],
      "outputs": [],
      "stateMutability": "nonpayable"
    },
    {
      "type": "function",
      "name": "safeTransferFrom",
      "inputs": [
        {
          "name": "from",
          "type": "address",
          "internalType": "address"
        },
        {
          "name": "to",
          "type": "address",
          "internalType": "address"
        },
        {
          "name": "tokenId",
          "type": "uint256",
          "internalType": "uint256"
        },
        {
          "name": "data",
          "type": "bytes",
          "internalType": "bytes"
        }
      ],
      "outputs": [],
      "stateMutability": "nonpayable"
    },
    {
      "type": "function",
      "name": "setApprovalForAll",
      "inputs": [
        {
          "name": "operator",
          "type": "address",
          "internalType": "address"
        },
        {
          "name": "approved",
          "type": "bool",
          "internalType": "bool"
        }
      ],
      "outputs": [],
      "stateMutability": "nonpayable"
    },
    {
      "type": "function",
      "name": "setMerkleRoot",
      "inputs": [
        {
          "name": "_merkleRoot",
          "type": "bytes32",
          "internalType": "bytes32"
        }
      ],
      "outputs": [],
      "stateMutability": "nonpayable"
    },
    {
      "type": "function",
      "name": "supportsInterface",
      "inputs": [
        {
          "name": "interfaceId",
          "type": "bytes4",
          "internalType": "bytes4"
        }
      ],
      "outputs": [
        {
          "name": "",
          "type": "bool",
          "internalType": "bool"
        }
      ],
      "stateMutability": "view"
    },
    {
      "type": "function",
      "name": "symbol",
      "inputs": [],
      "outputs": [
        {
          "name": "",
          "type": "string",
          "internalType": "string"
        }
      ],
      "stateMutability": "view"
    },
    {
      "type": "function",
      "name": "tokenCountNormal",
      "inputs": [],
      "outputs": [
        {
          "name": "",
          "type": "uint256",
          "internalType": "uint256"
        }
      ],
      "stateMutability": "view"
    },
    {
      "type": "function",
      "name": "tokenCountVIP",
      "inputs": [],
      "outputs": [
        {
          "name": "",
          "type": "uint256",
          "internalType": "uint256"
        }
      ],
      "stateMutability": "view"
    },
    {
      "type": "function",
      "name": "tokenId",
      "inputs": [],
      "outputs": [
        {
          "name": "",
          "type": "uint256",
          "internalType": "uint256"
        }
      ],
      "stateMutability": "view"
    },
    {
      "type": "function",
      "name": "tokenURI",
      "inputs": [
        {
          "name": "tokenId",
          "type": "uint256",
          "internalType": "uint256"
        }
      ],
      "outputs": [
        {
          "name": "",
          "type": "string",
          "internalType": "string"
        }
      ],
      "stateMutability": "view"
    },
    {
      "type": "function",
      "name": "transferFrom",
      "inputs": [
        {
          "name": "from",
          "type": "address",
          "internalType": "address"
        },
        {
          "name": "to",
          "type": "address",
          "internalType": "address"
        },
        {
          "name": "tokenId",
          "type": "uint256",
          "internalType": "uint256"
        }
      ],
      "outputs": [],
      "stateMutability": "nonpayable"
    },
    {
      "type": "function",
      "name": "transferOwnership",
      "inputs": [
        {
          "name": "newOwner",
          "type": "address",
          "internalType": "address"
        }
      ],
      "outputs": [],
      "stateMutability": "nonpayable"
    },
    {
      "type": "function",
      "name": "withdraw",
      "inputs": [],
      "outputs": [],
      "stateMutability": "nonpayable"
    },
    {
      "type": "event",
      "name": "Approval",
      "inputs": [
        {
          "name": "owner",
          "type": "address",
          "indexed": true,
          "internalType": "address"
        },
        {
          "name": "approved",
          "type": "address",
          "indexed": true,
          "internalType": "address"
        },
        {
          "name": "tokenId",
          "type": "uint256",
          "indexed": true,
          "internalType": "uint256"
        }
      ],
      "anonymous": false
    },
    {
      "type": "event",
      "name": "ApprovalForAll",
      "inputs": [
        {
          "name": "owner",
          "type": "address",
          "indexed": true,
          "internalType": "address"
        },
        {
          "name": "operator",
          "type": "address",
          "indexed": true,
          "internalType": "address"
        },
        {
          "name": "approved",
          "type": "bool",
          "indexed": false,
          "internalType": "bool"
        }
      ],
      "anonymous": false
    },
    {
      "type": "event",
      "name": "FundWithdrawn",
      "inputs": [
        {
          "name": "owner",
          "type": "address",
          "indexed": false,
          "internalType": "address"
        },
        {
          "name": "amount",
          "type": "uint256",
          "indexed": false,
          "internalType": "uint256"
        }
      ],
      "anonymous": false
    },
    {
      "type": "event",
      "name": "NFTMinted",
      "inputs": [
        {
          "name": "minter",
          "type": "address",
          "indexed": true,
          "internalType": "address"
        },
        {
          "name": "amount",
          "type": "uint256",
          "indexed": false,
          "internalType": "uint256"
        },
        {
          "name": "value",
          "type": "uint256",
          "indexed": false,
          "internalType": "uint256"
        }
      ],
      "anonymous": false
    },
    {
      "type": "event",
      "name": "OwnershipTransferred",
      "inputs": [
        {
          "name": "previousOwner",
          "type": "address",
          "indexed": true,
          "internalType": "address"
        },
        {
          "name": "newOwner",
          "type": "address",
          "indexed": true,
          "internalType": "address"
        }
      ],
      "anonymous": false
    },
    {
      "type": "event",
      "name": "Transfer",
      "inputs": [
        {
          "name": "from",
          "type": "address",
          "indexed": true,
          "internalType": "address"
        },
        {
          "name": "to",
          "type": "address",
          "indexed": true,
          "internalType": "address"
        },
        {
          "name": "tokenId",
          "type": "uint256",
          "indexed": true,
          "internalType": "uint256"
        }
      ],
      "anonymous": false
    },
    {
      "type": "error",
      "name": "ERC721IncorrectOwner",
      "inputs": [
        {
          "name": "sender",
          "type": "address",
          "internalType": "address"
        },
        {
          "name": "tokenId",
          "type": "uint256",
          "internalType": "uint256"
        },
        {
          "name": "owner",
          "type": "address",
          "internalType": "address"
        }
      ]
    },
    {
      "type": "error",
      "name": "ERC721InsufficientApproval",
      "inputs": [
        {
          "name": "operator",
          "type": "address",
          "internalType": "address"
        },
        {
          "name": "tokenId",
          "type": "uint256",
          "internalType": "uint256"
        }
      ]
    },
    {
      "type": "error",
      "name": "ERC721InvalidApprover",
      "inputs": [
        {
          "name": "approver",
          "type": "address",
          "internalType": "address"
        }
      ]
    },
    {
      "type": "error",
      "name": "ERC721InvalidOperator",
      "inputs": [
        {
          "name": "operator",
          "type": "address",
          "internalType": "address"
        }
      ]
    },
    {
      "type": "error",
      "name": "ERC721InvalidOwner",
      "inputs": [
        {
          "name": "owner",
          "type": "address",
          "internalType": "address"
        }
      ]
    },
    {
      "type": "error",
      "name": "ERC721InvalidReceiver",
      "inputs": [
        {
          "name": "receiver",
          "type": "address",
          "internalType": "address"
        }
      ]
    },
    {
      "type": "error",
      "name": "ERC721InvalidSender",
      "inputs": [
        {
          "name": "sender",
          "type": "address",
          "internalType": "address"
        }
      ]
    },
    {
      "type": "error",
      "name": "ERC721NonexistentToken",
      "inputs": [
        {
          "name": "tokenId",
          "type": "uint256",
          "internalType": "uint256"
        }
      ]
    },
    {
      "type": "error",
      "name": "OwnableInvalidOwner",
      "inputs": [
        {
          "name": "owner",
          "type": "address",
          "internalType": "address"
        }
      ]
    },
    {
      "type": "error",
      "name": "OwnableUnauthorizedAccount",
      "inputs": [
        {
          "name": "account",
          "type": "address",
          "internalType": "address"
        }
      ]
    }
  ],
  "bytecode": {
    "object": "0x60806040523480156200001157600080fd5b5060405162001fe638038062001fe6833981016040819052620000349162000131565b336040518060400160405280600c81526020016b486f6e657947656e6573697360a01b81525060405180604001604052806005815260200164484f4e455960d81b8152508160009081620000899190620001f2565b506001620000988282620001f2565b5050506001600160a01b038116620000ca57604051631e4fbdf760e01b81526000600482015260240160405180910390fd5b620000d581620000df565b50600755620002be565b600680546001600160a01b038381166001600160a01b0319831681179093556040519116919082907f8be0079c531659141344cd1fd0a4f28419497f9722a3daafe3b4186f6b6457e090600090a35050565b6000602082840312156200014457600080fd5b5051919050565b634e487b7160e01b600052604160045260246000fd5b600181811c908216806200017657607f821691505b6020821081036200019757634e487b7160e01b600052602260045260246000fd5b50919050565b601f821115620001ed576000816000526020600020601f850160051c81016020861015620001c85750805b601f850160051c820191505b81811015620001e957828155600101620001d4565b5050505b505050565b81516001600160401b038111156200020e576200020e6200014b565b62000226816200021f845462000161565b846200019d565b602080601f8311600181146200025e5760008415620002455750858301515b600019600386901b1c1916600185901b178555620001e9565b600085815260208120601f198616915b828110156200028f578886015182559484019460019091019084016200026e565b5085821015620002ae5787850151600019600388901b60f8161c191681555b5050505050600190811b01905550565b611d1880620002ce6000396000f3fe6080604052600436106101d85760003560e01c8063715018a611610102578063c4039f6c11610095578063e985e9c511610064578063e985e9c514610509578063eb91d37e14610529578063ec6533e11461053e578063f2fde38b1461055457600080fd5b8063c4039f6c146104a9578063c87b56dd146104bf578063d5f129ad146104df578063e38f18f2146104f457600080fd5b8063a0712d68116100d1578063a0712d6814610441578063a22cb46514610454578063b88d4fde14610474578063bc50c9c11461049457600080fd5b8063715018a6146103d95780637cb64759146103ee5780638da5cb5b1461040e57806395d89b411461042c57600080fd5b80632a55205a1161017a57806342842e0e1161014957806342842e0e146103665780636352211e146103865780636a2a5a7a146103a657806370a08231146103b957600080fd5b80632a55205a146102e75780632eb4a7ab14610326578063314080981461033c5780633ccfd60b1461035157600080fd5b8063095ea7b3116101b6578063095ea7b31461026c57806317d70f7c1461028e57806323b872dd146102b25780632660aabc146102d257600080fd5b806301ffc9a7146101dd57806306fdde0314610212578063081812fc14610234575b600080fd5b3480156101e957600080fd5b506101fd6101f83660046117b1565b610574565b60405190151581526020015b60405180910390f35b34801561021e57600080fd5b5061022761059f565b604051610209919061181e565b34801561024057600080fd5b5061025461024f366004611831565b610631565b6040516001600160a01b039091168152602001610209565b34801561027857600080fd5b5061028c610287366004611866565b61065a565b005b34801561029a57600080fd5b506102a460085481565b604051908152602001610209565b3480156102be57600080fd5b5061028c6102cd366004611890565b610669565b3480156102de57600080fd5b50600a546102a4565b3480156102f357600080fd5b506103076103023660046118cc565b6106f9565b604080516001600160a01b039093168352602083019190915201610209565b34801561033257600080fd5b506102a460075481565b34801561034857600080fd5b506103e86102a4565b34801561035d57600080fd5b5061028c610730565b34801561037257600080fd5b5061028c610381366004611890565b610834565b34801561039257600080fd5b506102546103a1366004611831565b610854565b61028c6103b43660046118ee565b61085f565b3480156103c557600080fd5b506102a46103d4366004611969565b610b63565b3480156103e557600080fd5b5061028c610bab565b3480156103fa57600080fd5b5061028c610409366004611831565b610bbf565b34801561041a57600080fd5b506006546001600160a01b0316610254565b34801561043857600080fd5b50610227610bcc565b61028c61044f366004611831565b610bdb565b34801561046057600080fd5b5061028c61046f366004611984565b610d72565b34801561048057600080fd5b5061028c61048f3660046119d6565b610d7d565b3480156104a057600080fd5b506113886102a4565b3480156104b557600080fd5b506102a460095481565b3480156104cb57600080fd5b506102276104da366004611831565b610d94565b3480156104eb57600080fd5b506009546102a4565b34801561050057600080fd5b506102a4610dfc565b34801561051557600080fd5b506101fd610524366004611ab2565b610e9b565b34801561053557600080fd5b506102a4610ec9565b34801561054a57600080fd5b506102a4600a5481565b34801561056057600080fd5b5061028c61056f366004611969565b610f11565b60006001600160e01b0319821663152a902d60e11b1480610599575061059982610f4f565b92915050565b6060600080546105ae90611adc565b80601f01602080910402602001604051908101604052809291908181526020018280546105da90611adc565b80156106275780601f106105fc57610100808354040283529160200191610627565b820191906000526020600020905b81548152906001019060200180831161060a57829003601f168201915b5050505050905090565b600061063c82610f9f565b506000828152600460205260409020546001600160a01b0316610599565b610665828233610fd8565b5050565b6001600160a01b03821661069857604051633250574960e11b8152600060048201526024015b60405180910390fd5b60006106a5838333610fe5565b9050836001600160a01b0316816001600160a01b0316146106f3576040516364283d7b60e01b81526001600160a01b038086166004830152602482018490528216604482015260640161068f565b50505050565b60008061070e6006546001600160a01b031690565b9150606461071d846005611b2c565b6107279190611b43565b90509250929050565b6107386110de565b600061074c6006546001600160a01b031690565b6001600160a01b03164760405160006040518083038185875af1925050503d8060008114610796576040519150601f19603f3d011682016040523d82523d6000602084013e61079b565b606091505b50509050806107de5760405162461bcd60e51b815260206004820152600f60248201526e151c985b9cd9995c8819985a5b1959608a1b604482015260640161068f565b7fa692503bc54c9f1d1483729b6058a24987097ff492084b1a8adf8cae08e4fb436108116006546001600160a01b031690565b604080516001600160a01b0390921682524760208301520160405180910390a150565b61084f83838360405180602001604052806000815250610d7d565b505050565b600061059982610f9f565b6007546108ae5760405162461bcd60e51b815260206004820152601b60248201527f5768697465206c697374696e67206e6f7420737570706f727465640000000000604482015260640161068f565b60405133606081901b6bffffffffffffffffffffffff191660208301529060009060340160405160208183030381529060405280519060200120905061092b85858080602002602001604051908101604052809392919081815260200183836020028082843760009201919091525050600754915084905061110b565b61098d5760405162461bcd60e51b815260206004820152602d60248201527f496e76616c69642070726f6f662c2073656e646572206973206e6f74206f6e2060448201526c159254081dda1a5d195b1a5cdd609a1b606482015260840161068f565b61099e66f523226980800084611b2c565b3410156109e25760405162461bcd60e51b8152602060048201526012602482015271496e73756666696369656e742066756e647360701b604482015260640161068f565b6103e8836008546109f39190611b65565b1115610a415760405162461bcd60e51b815260206004820152601c60248201527f4578636565647320746f74616c2056495020737570706c792063617000000000604482015260640161068f565b6001600160a01b0382166000908152600b6020526040902054831115610aa25760405162461bcd60e51b81526020600482015260166024820152754578636565647320564950206d696e742071756f746160501b604482015260640161068f565b6001600160a01b0382166000908152600b602052604081208054859290610aca908490611b78565b90915550600090505b83811015610b1857600860008154610aea90611b8b565b90915550600a8054600090610afe90611b8b565b90915550600854610b10908490611121565b600101610ad3565b50604080518481523460208201526001600160a01b038416917f3a8a89b59a31c39a36febecb987e0657ab7b7c73b60ebacb44dcb9886c2d5c8a910160405180910390a25050505050565b60006001600160a01b038216610b8f576040516322718ad960e21b81526000600482015260240161068f565b506001600160a01b031660009081526003602052604090205490565b610bb36110de565b610bbd600061113b565b565b610bc76110de565b600755565b6060600180546105ae90611adc565b33610be4610ec9565b610bee9083611b2c565b341015610c325760405162461bcd60e51b8152602060048201526012602482015271496e73756666696369656e742066756e647360701b604482015260640161068f565b61138882600854610c439190611b65565b1115610c915760405162461bcd60e51b815260206004820152601860248201527f4578636565647320746f74616c20737570706c79206361700000000000000000604482015260640161068f565b6014821115610ce25760405162461bcd60e51b815260206004820152601760248201527f45786365656473206d6178206d696e7420616d6f756e74000000000000000000604482015260640161068f565b60005b82811015610d2a57600960008154610cfc90611b8b565b9091555060088054600090610d1090611b8b565b90915550600854610d22908390611121565b600101610ce5565b50604080518381523460208201526001600160a01b038316917f3a8a89b59a31c39a36febecb987e0657ab7b7c73b60ebacb44dcb9886c2d5c8a910160405180910390a25050565b61066533838361118d565b610d88848484610669565b6106f38484848461122c565b6060610d9f82610f9f565b506000610daa611355565b90506000815111610dca5760405180602001604052806000815250610df5565b80610dd484611375565b604051602001610de5929190611ba4565b6040516020818303038152906040525b9392505050565b6000806101f4600954610e0f9190611b65565b90506113888111610e5e576000610e286101f483611b43565b610e33906001611b65565b9050610e466618de76816d800082611b2c565b610e579066f8b0a10e470000611b65565b9250505090565b60405162461bcd60e51b815260206004820152601260248201527113585e081cdd5c1c1b1e481c995858da195960721b604482015260640161068f565b6001600160a01b03918216600090815260056020908152604080832093909416825291909152205460ff1690565b6000806101f4600954610edc9190611b43565b610ee7906001611b65565b9050610efa6618de76816d800082611b2c565b610f0b9066f8b0a10e470000611b65565b91505090565b610f196110de565b6001600160a01b038116610f4357604051631e4fbdf760e01b81526000600482015260240161068f565b610f4c8161113b565b50565b60006001600160e01b031982166380ac58cd60e01b1480610f8057506001600160e01b03198216635b5e139f60e01b145b8061059957506301ffc9a760e01b6001600160e01b0319831614610599565b6000818152600260205260408120546001600160a01b03168061059957604051637e27328960e01b81526004810184905260240161068f565b61084f8383836001611408565b6000828152600260205260408120546001600160a01b03908116908316156110125761101281848661150e565b6001600160a01b038116156110505761102f600085600080611408565b6001600160a01b038116600090815260036020526040902080546000190190555b6001600160a01b0385161561107f576001600160a01b0385166000908152600360205260409020805460010190555b60008481526002602052604080822080546001600160a01b0319166001600160a01b0389811691821790925591518793918516917fddf252ad1be2c89b69c2b068fc378daa952ba7f163c4a11628f55a4df523b3ef91a4949350505050565b6006546001600160a01b03163314610bbd5760405163118cdaa760e01b815233600482015260240161068f565b6000826111188584611572565b14949350505050565b6106658282604051806020016040528060008152506115b5565b600680546001600160a01b038381166001600160a01b0319831681179093556040519116919082907f8be0079c531659141344cd1fd0a4f28419497f9722a3daafe3b4186f6b6457e090600090a35050565b6001600160a01b0382166111bf57604051630b61174360e31b81526001600160a01b038316600482015260240161068f565b6001600160a01b03838116600081815260056020908152604080832094871680845294825291829020805460ff191686151590811790915591519182527f17307eab39ab6107e8899845ad3d59bd9653f200f220920489ca2b5937696c31910160405180910390a3505050565b6001600160a01b0383163b156106f357604051630a85bd0160e11b81526001600160a01b0384169063150b7a029061126e903390889087908790600401611bd3565b6020604051808303816000875af19250505080156112a9575060408051601f3d908101601f191682019092526112a691810190611c10565b60015b611312573d8080156112d7576040519150601f19603f3d011682016040523d82523d6000602084013e6112dc565b606091505b50805160000361130a57604051633250574960e11b81526001600160a01b038516600482015260240161068f565b805181602001fd5b6001600160e01b03198116630a85bd0160e11b1461134e57604051633250574960e11b81526001600160a01b038516600482015260240161068f565b5050505050565b60606040518060c00160405280609f8152602001611c44609f9139905090565b60606000611382836115cc565b600101905060008167ffffffffffffffff8111156113a2576113a26119c0565b6040519080825280601f01601f1916602001820160405280156113cc576020820181803683370190505b5090508181016020015b600019016f181899199a1a9b1b9c1cb0b131b232b360811b600a86061a8153600a85049450846113d657509392505050565b808061141c57506001600160a01b03821615155b156114de57600061142c84610f9f565b90506001600160a01b038316158015906114585750826001600160a01b0316816001600160a01b031614155b801561146b57506114698184610e9b565b155b156114945760405163a9fbf51f60e01b81526001600160a01b038416600482015260240161068f565b81156114dc5783856001600160a01b0316826001600160a01b03167f8c5be1e5ebec7d5bd14f71427d1e84f3dd0314c0f7b2291e5b200ac8c7c3b92560405160405180910390a45b505b5050600090815260046020526040902080546001600160a01b0319166001600160a01b0392909216919091179055565b6115198383836116a4565b61084f576001600160a01b03831661154757604051637e27328960e01b81526004810182905260240161068f565b60405163177e802f60e01b81526001600160a01b03831660048201526024810182905260440161068f565b600081815b84518110156115ad576115a38286838151811061159657611596611c2d565b602002602001015161170a565b9150600101611577565b509392505050565b6115bf8383611736565b61084f600084848461122c565b60008072184f03e93ff9f4daa797ed6e38ed64bf6a1f0160401b831061160b5772184f03e93ff9f4daa797ed6e38ed64bf6a1f0160401b830492506040015b6d04ee2d6d415b85acef81000000008310611637576d04ee2d6d415b85acef8100000000830492506020015b662386f26fc10000831061165557662386f26fc10000830492506010015b6305f5e100831061166d576305f5e100830492506008015b612710831061168157612710830492506004015b60648310611693576064830492506002015b600a83106105995760010192915050565b60006001600160a01b038316158015906117025750826001600160a01b0316846001600160a01b031614806116de57506116de8484610e9b565b8061170257506000828152600460205260409020546001600160a01b038481169116145b949350505050565b6000818310611726576000828152602084905260409020610df5565b5060009182526020526040902090565b6001600160a01b03821661176057604051633250574960e11b81526000600482015260240161068f565b600061176e83836000610fe5565b90506001600160a01b0381161561084f576040516339e3563760e11b81526000600482015260240161068f565b6001600160e01b031981168114610f4c57600080fd5b6000602082840312156117c357600080fd5b8135610df58161179b565b60005b838110156117e95781810151838201526020016117d1565b50506000910152565b6000815180845261180a8160208601602086016117ce565b601f01601f19169290920160200192915050565b602081526000610df560208301846117f2565b60006020828403121561184357600080fd5b5035919050565b80356001600160a01b038116811461186157600080fd5b919050565b6000806040838503121561187957600080fd5b6118828361184a565b946020939093013593505050565b6000806000606084860312156118a557600080fd5b6118ae8461184a565b92506118bc6020850161184a565b9150604084013590509250925092565b600080604083850312156118df57600080fd5b50508035926020909101359150565b60008060006040848603121561190357600080fd5b833567ffffffffffffffff8082111561191b57600080fd5b818601915086601f83011261192f57600080fd5b81358181111561193e57600080fd5b8760208260051b850101111561195357600080fd5b6020928301989097509590910135949350505050565b60006020828403121561197b57600080fd5b610df58261184a565b6000806040838503121561199757600080fd5b6119a08361184a565b9150602083013580151581146119b557600080fd5b809150509250929050565b634e487b7160e01b600052604160045260246000fd5b600080600080608085870312156119ec57600080fd5b6119f58561184a565b9350611a036020860161184a565b925060408501359150606085013567ffffffffffffffff80821115611a2757600080fd5b818701915087601f830112611a3b57600080fd5b813581811115611a4d57611a4d6119c0565b604051601f8201601f19908116603f01168101908382118183101715611a7557611a756119c0565b816040528281528a6020848701011115611a8e57600080fd5b82602086016020830137600060208483010152809550505050505092959194509250565b60008060408385031215611ac557600080fd5b611ace8361184a565b91506107276020840161184a565b600181811c90821680611af057607f821691505b602082108103611b1057634e487b7160e01b600052602260045260246000fd5b50919050565b634e487b7160e01b600052601160045260246000fd5b808202811582820484141761059957610599611b16565b600082611b6057634e487b7160e01b600052601260045260246000fd5b500490565b8082018082111561059957610599611b16565b8181038181111561059957610599611b16565b600060018201611b9d57611b9d611b16565b5060010190565b60008351611bb68184602088016117ce565b835190830190611bca8183602088016117ce565b01949350505050565b6001600160a01b0385811682528416602082015260408101839052608060608201819052600090611c06908301846117f2565b9695505050505050565b600060208284031215611c2257600080fd5b8151610df58161179b565b634e487b7160e01b600052603260045260246000fdfe68747470733a2f2f6d656469612e6973746f636b70686f746f2e636f6d2f69642f313438363335373539382f70686f746f2f636f617374616c2d62726f776e2d626561722d66697368696e672d696e2d6b61746d61692e6a70673f733d31303234783130323426773d6973266b3d323026633d434458697349314e46706d48346f442d546d575667474366445555756f53396a52755f6b7a7a50436530673da26469706673582212209bb973de47a12ea55c6edfc9ba5f72e5096f60f68722dbc4aa149abc97bb7e1a64736f6c63430008180033",
    "linkReferences": {}
  },
  "methodIdentifiers": {
    "approve(address,uint256)": "095ea7b3",
    "balanceOf(address)": "70a08231",
    "getApproved(uint256)": "081812fc",
    "getCurrentPrice()": "eb91d37e",
    "getMintedNFTsCount()": "d5f129ad",
    "getMintedVIPNFTsCount()": "2660aabc",
    "getNextNFTPrice()": "e38f18f2",
    "getTotalNFTCount()": "bc50c9c1",
    "getTotalVIPNFTCount()": "31408098",
    "isApprovedForAll(address,address)": "e985e9c5",
    "merkleRoot()": "2eb4a7ab",
    "mint(uint256)": "a0712d68",
    "mintVIP(bytes32[],uint256)": "6a2a5a7a",
    "name()": "06fdde03",
    "owner()": "8da5cb5b",
    "ownerOf(uint256)": "6352211e",
    "renounceOwnership()": "715018a6",
    "royaltyInfo(uint256,uint256)": "2a55205a",
    "safeTransferFrom(address,address,uint256)": "42842e0e",
    "safeTransferFrom(address,address,uint256,bytes)": "b88d4fde",
    "setApprovalForAll(address,bool)": "a22cb465",
    "setMerkleRoot(bytes32)": "7cb64759",
    "supportsInterface(bytes4)": "01ffc9a7",
    "symbol()": "95d89b41",
    "tokenCountNormal()": "c4039f6c",
    "tokenCountVIP()": "ec6533e1",
    "tokenId()": "17d70f7c",
    "tokenURI(uint256)": "c87b56dd",
    "transferFrom(address,address,uint256)": "23b872dd",
    "transferOwnership(address)": "f2fde38b",
    "withdraw()": "3ccfd60b"
  },
  "id": 15
}