{
  "abi": [
    {
      "type": "constructor",
      "inputs": [],
      "stateMutability": "nonpayable"
    },
    {
      "type": "function",
      "name": "balanceOf",
      "inputs": [
        {
          "name": "account",
          "type": "address",
          "internalType": "address"
        },
        {
          "name": "id",
          "type": "uint256",
          "internalType": "uint256"
        }
      ],
      "outputs": [
        {
          "name": "",
          "type": "uint256",
          "internalType": "uint256"
        }
      ],
      "stateMutability": "view"
    },
    {
      "type": "function",
      "name": "balanceOfBatch",
      "inputs": [
        {
          "name": "accounts",
          "type": "address[]",
          "internalType": "address[]"
        },
        {
          "name": "ids",
          "type": "uint256[]",
          "internalType": "uint256[]"
        }
      ],
      "outputs": [
        {
          "name": "",
          "type": "uint256[]",
          "internalType": "uint256[]"
        }
      ],
      "stateMutability": "view"
    },
    {
      "type": "function",
      "name": "getCurrentPrice",
      "inputs": [],
      "outputs": [
        {
          "name": "",
          "type": "uint256",
          "internalType": "uint256"
        }
      ],
      "stateMutability": "view"
    },
    {
      "type": "function",
      "name": "getMintedNFTsCount",
      "inputs": [],
      "outputs": [
        {
          "name": "",
          "type": "uint256",
          "internalType": "uint256"
        }
      ],
      "stateMutability": "view"
    },
    {
      "type": "function",
      "name": "getNextNFTPrice",
      "inputs": [],
      "outputs": [
        {
          "name": "",
          "type": "uint256",
          "internalType": "uint256"
        }
      ],
      "stateMutability": "view"
    },
    {
      "type": "function",
      "name": "isApprovedForAll",
      "inputs": [
        {
          "name": "account",
          "type": "address",
          "internalType": "address"
        },
        {
          "name": "operator",
          "type": "address",
          "internalType": "address"
        }
      ],
      "outputs": [
        {
          "name": "",
          "type": "bool",
          "internalType": "bool"
        }
      ],
      "stateMutability": "view"
    },
    {
      "type": "function",
      "name": "mint",
      "inputs": [
        {
          "name": "id",
          "type": "uint256",
          "internalType": "uint256"
        },
        {
          "name": "amount",
          "type": "uint256",
          "internalType": "uint256"
        }
      ],
      "outputs": [],
      "stateMutability": "payable"
    },
    {
      "type": "function",
      "name": "royaltyInfo",
      "inputs": [
        {
          "name": "tokenId",
          "type": "uint256",
          "internalType": "uint256"
        },
        {
          "name": "salePrice",
          "type": "uint256",
          "internalType": "uint256"
        }
      ],
      "outputs": [
        {
          "name": "receiver",
          "type": "address",
          "internalType": "address"
        },
        {
          "name": "royaltyAmount",
          "type": "uint256",
          "internalType": "uint256"
        }
      ],
      "stateMutability": "view"
    },
    {
      "type": "function",
      "name": "safeBatchTransferFrom",
      "inputs": [
        {
          "name": "from",
          "type": "address",
          "internalType": "address"
        },
        {
          "name": "to",
          "type": "address",
          "internalType": "address"
        },
        {
          "name": "ids",
          "type": "uint256[]",
          "internalType": "uint256[]"
        },
        {
          "name": "values",
          "type": "uint256[]",
          "internalType": "uint256[]"
        },
        {
          "name": "data",
          "type": "bytes",
          "internalType": "bytes"
        }
      ],
      "outputs": [],
      "stateMutability": "nonpayable"
    },
    {
      "type": "function",
      "name": "safeTransferFrom",
      "inputs": [
        {
          "name": "from",
          "type": "address",
          "internalType": "address"
        },
        {
          "name": "to",
          "type": "address",
          "internalType": "address"
        },
        {
          "name": "id",
          "type": "uint256",
          "internalType": "uint256"
        },
        {
          "name": "value",
          "type": "uint256",
          "internalType": "uint256"
        },
        {
          "name": "data",
          "type": "bytes",
          "internalType": "bytes"
        }
      ],
      "outputs": [],
      "stateMutability": "nonpayable"
    },
    {
      "type": "function",
      "name": "setApprovalForAll",
      "inputs": [
        {
          "name": "operator",
          "type": "address",
          "internalType": "address"
        },
        {
          "name": "approved",
          "type": "bool",
          "internalType": "bool"
        }
      ],
      "outputs": [],
      "stateMutability": "nonpayable"
    },
    {
      "type": "function",
      "name": "supportsInterface",
      "inputs": [
        {
          "name": "interfaceId",
          "type": "bytes4",
          "internalType": "bytes4"
        }
      ],
      "outputs": [
        {
          "name": "",
          "type": "bool",
          "internalType": "bool"
        }
      ],
      "stateMutability": "view"
    },
    {
      "type": "function",
      "name": "totalSupply",
      "inputs": [],
      "outputs": [
        {
          "name": "",
          "type": "uint256",
          "internalType": "uint256"
        }
      ],
      "stateMutability": "view"
    },
    {
      "type": "function",
      "name": "uri",
      "inputs": [
        {
          "name": "",
          "type": "uint256",
          "internalType": "uint256"
        }
      ],
      "outputs": [
        {
          "name": "",
          "type": "string",
          "internalType": "string"
        }
      ],
      "stateMutability": "view"
    },
    {
      "type": "event",
      "name": "ApprovalForAll",
      "inputs": [
        {
          "name": "account",
          "type": "address",
          "indexed": true,
          "internalType": "address"
        },
        {
          "name": "operator",
          "type": "address",
          "indexed": true,
          "internalType": "address"
        },
        {
          "name": "approved",
          "type": "bool",
          "indexed": false,
          "internalType": "bool"
        }
      ],
      "anonymous": false
    },
    {
      "type": "event",
      "name": "TransferBatch",
      "inputs": [
        {
          "name": "operator",
          "type": "address",
          "indexed": true,
          "internalType": "address"
        },
        {
          "name": "from",
          "type": "address",
          "indexed": true,
          "internalType": "address"
        },
        {
          "name": "to",
          "type": "address",
          "indexed": true,
          "internalType": "address"
        },
        {
          "name": "ids",
          "type": "uint256[]",
          "indexed": false,
          "internalType": "uint256[]"
        },
        {
          "name": "values",
          "type": "uint256[]",
          "indexed": false,
          "internalType": "uint256[]"
        }
      ],
      "anonymous": false
    },
    {
      "type": "event",
      "name": "TransferSingle",
      "inputs": [
        {
          "name": "operator",
          "type": "address",
          "indexed": true,
          "internalType": "address"
        },
        {
          "name": "from",
          "type": "address",
          "indexed": true,
          "internalType": "address"
        },
        {
          "name": "to",
          "type": "address",
          "indexed": true,
          "internalType": "address"
        },
        {
          "name": "id",
          "type": "uint256",
          "indexed": false,
          "internalType": "uint256"
        },
        {
          "name": "value",
          "type": "uint256",
          "indexed": false,
          "internalType": "uint256"
        }
      ],
      "anonymous": false
    },
    {
      "type": "event",
      "name": "URI",
      "inputs": [
        {
          "name": "value",
          "type": "string",
          "indexed": false,
          "internalType": "string"
        },
        {
          "name": "id",
          "type": "uint256",
          "indexed": true,
          "internalType": "uint256"
        }
      ],
      "anonymous": false
    },
    {
      "type": "error",
      "name": "ERC1155InsufficientBalance",
      "inputs": [
        {
          "name": "sender",
          "type": "address",
          "internalType": "address"
        },
        {
          "name": "balance",
          "type": "uint256",
          "internalType": "uint256"
        },
        {
          "name": "needed",
          "type": "uint256",
          "internalType": "uint256"
        },
        {
          "name": "tokenId",
          "type": "uint256",
          "internalType": "uint256"
        }
      ]
    },
    {
      "type": "error",
      "name": "ERC1155InvalidApprover",
      "inputs": [
        {
          "name": "approver",
          "type": "address",
          "internalType": "address"
        }
      ]
    },
    {
      "type": "error",
      "name": "ERC1155InvalidArrayLength",
      "inputs": [
        {
          "name": "idsLength",
          "type": "uint256",
          "internalType": "uint256"
        },
        {
          "name": "valuesLength",
          "type": "uint256",
          "internalType": "uint256"
        }
      ]
    },
    {
      "type": "error",
      "name": "ERC1155InvalidOperator",
      "inputs": [
        {
          "name": "operator",
          "type": "address",
          "internalType": "address"
        }
      ]
    },
    {
      "type": "error",
      "name": "ERC1155InvalidReceiver",
      "inputs": [
        {
          "name": "receiver",
          "type": "address",
          "internalType": "address"
        }
      ]
    },
    {
      "type": "error",
      "name": "ERC1155InvalidSender",
      "inputs": [
        {
          "name": "sender",
          "type": "address",
          "internalType": "address"
        }
      ]
    },
    {
      "type": "error",
      "name": "ERC1155MissingApprovalForAll",
      "inputs": [
        {
          "name": "operator",
          "type": "address",
          "internalType": "address"
        },
        {
          "name": "owner",
          "type": "address",
          "internalType": "address"
        }
      ]
    }
  ],
  "bytecode": {
    "object": "0x60806040523480156200001157600080fd5b506040518060c00160405280609f815260200162001738609f9139620000378162000055565b50600380546001600160a01b031916331790556000600455620001da565b60026200006382826200010e565b5050565b634e487b7160e01b600052604160045260246000fd5b600181811c908216806200009257607f821691505b602082108103620000b357634e487b7160e01b600052602260045260246000fd5b50919050565b601f82111562000109576000816000526020600020601f850160051c81016020861015620000e45750805b601f850160051c820191505b818110156200010557828155600101620000f0565b5050505b505050565b81516001600160401b038111156200012a576200012a62000067565b62000142816200013b84546200007d565b84620000b9565b602080601f8311600181146200017a5760008415620001615750858301515b600019600386901b1c1916600185901b17855562000105565b600085815260208120601f198616915b82811015620001ab578886015182559484019460019091019084016200018a565b5085821015620001ca5787850151600019600388901b60f8161c191681555b5050505050600190811b01905550565b61154e80620001ea6000396000f3fe6080604052600436106100dc5760003560e01c80634e1273f41161007f578063e38f18f211610059578063e38f18f21461025d578063e985e9c514610272578063eb91d37e14610292578063f242432a146102a757600080fd5b80634e1273f4146101fb578063a22cb46514610228578063d5f129ad1461024857600080fd5b806318160ddd116100bb57806318160ddd146101715780631b2ef1ca146101875780632a55205a1461019c5780632eb2c2d6146101db57600080fd5b8062fdd58e146100e157806301ffc9a7146101145780630e89341c14610144575b600080fd5b3480156100ed57600080fd5b506101016100fc366004610e37565b6102c7565b6040519081526020015b60405180910390f35b34801561012057600080fd5b5061013461012f366004610e7a565b6102ef565b604051901515815260200161010b565b34801561015057600080fd5b5061016461015f366004610e9e565b610314565b60405161010b9190610efd565b34801561017d57600080fd5b5061010160045481565b61019a610195366004610f10565b610335565b005b3480156101a857600080fd5b506101bc6101b7366004610f10565b610435565b604080516001600160a01b03909316835260208301919091520161010b565b3480156101e757600080fd5b5061019a6101f636600461107c565b610463565b34801561020757600080fd5b5061021b610216366004611126565b6104ca565b60405161010b9190611222565b34801561023457600080fd5b5061019a610243366004611235565b610597565b34801561025457600080fd5b50600454610101565b34801561026957600080fd5b506101016105a6565b34801561027e57600080fd5b5061013461028d366004611271565b610674565b34801561029e57600080fd5b506101016106a2565b3480156102b357600080fd5b5061019a6102c236600461129b565b610710565b6000818152602081815260408083206001600160a01b03861684529091529020545b92915050565b60006001600160e01b0319821663152a902d60e11b14806102e957506102e98261076f565b60606040518060c00160405280609f815260200161147a609f913992915050565b611770816004546103469190611316565b11156103995760405162461bcd60e51b815260206004820152601860248201527f4578636565647320746f74616c20737570706c7920636170000000000000000060448201526064015b60405180910390fd5b60006103a36106a2565b90506103af8183611329565b3410156103fe5760405162461bcd60e51b815260206004820152601960248201527f45746865722073656e74206973206e6f7420636f7272656374000000000000006044820152606401610390565b610419338484604051806020016040528060008152506107bf565b816004600082825461042b9190611316565b9091555050505050565b6003546001600160a01b031660006064610450846005611329565b61045a9190611340565b90509250929050565b336001600160a01b038616811480159061048457506104828682610674565b155b156104b55760405163711bec9160e11b81526001600160a01b03808316600483015287166024820152604401610390565b6104c2868686868661081c565b505050505050565b606081518351146104fb5781518351604051635b05999160e01b815260048101929092526024820152604401610390565b6000835167ffffffffffffffff81111561051757610517610f32565b604051908082528060200260200182016040528015610540578160200160208202803683370190505b50905060005b845181101561058f5760208082028601015161056a906020808402870101516102c7565b82828151811061057c5761057c611362565b6020908102919091010152600101610546565b509392505050565b6105a2338383610883565b5050565b60008060045460016105b89190611316565b90506117708111610637576103e881116105da5766f8b0a10e47000091505090565b60006101f460016105ed6103e885611378565b6105f79190611378565b6106019190611340565b61060c906001611316565b905061061f6618de76816d800082611329565b6106309066f8b0a10e470000611316565b9250505090565b60405162461bcd60e51b815260206004820152601260248201527113585e081cdd5c1c1b1e481c995858da195960721b6044820152606401610390565b6001600160a01b03918216600090815260016020908152604080832093909416825291909152205460ff1690565b60006103e860045410156106bc575066f8b0a10e47000090565b60006101f46103e86004546106d19190611378565b6106db9190611340565b6106e6906001611316565b90506106f96618de76816d800082611329565b61070a9066f8b0a10e470000611316565b91505090565b336001600160a01b0386168114801590610731575061072f8682610674565b155b156107625760405163711bec9160e11b81526001600160a01b03808316600483015287166024820152604401610390565b6104c28686868686610919565b60006001600160e01b03198216636cdb3d1360e11b14806107a057506001600160e01b031982166303a24d0760e21b145b806102e957506301ffc9a760e01b6001600160e01b03198316146102e9565b6001600160a01b0384166107e957604051632bfa23e760e11b815260006004820152602401610390565b604080516001808252602082018690528183019081526060820185905260808201909252906104c26000878484876109a7565b6001600160a01b03841661084657604051632bfa23e760e11b815260006004820152602401610390565b6001600160a01b03851661086f57604051626a0d4560e21b815260006004820152602401610390565b61087c85858585856109a7565b5050505050565b6001600160a01b0382166108ac5760405162ced3e160e81b815260006004820152602401610390565b6001600160a01b03838116600081815260016020908152604080832094871680845294825291829020805460ff191686151590811790915591519182527f17307eab39ab6107e8899845ad3d59bd9653f200f220920489ca2b5937696c31910160405180910390a3505050565b6001600160a01b03841661094357604051632bfa23e760e11b815260006004820152602401610390565b6001600160a01b03851661096c57604051626a0d4560e21b815260006004820152602401610390565b6040805160018082526020820186905281830190815260608201859052608082019092529061099e87878484876109a7565b50505050505050565b6109b3858585856109fa565b6001600160a01b0384161561087c57825133906001036109ec57602084810151908401516109e5838989858589610c0e565b50506104c2565b6104c2818787878787610d32565b8051825114610a295781518151604051635b05999160e01b815260048101929092526024820152604401610390565b3360005b8351811015610b2f576020818102858101820151908501909101516001600160a01b03881615610ae0576000828152602081815260408083206001600160a01b038c16845290915290205481811015610ab9576040516303dee4c560e01b81526001600160a01b038a166004820152602481018290526044810183905260648101849052608401610390565b6000838152602081815260408083206001600160a01b038d16845290915290209082900390555b6001600160a01b03871615610b25576000828152602081815260408083206001600160a01b038b16845290915281208054839290610b1f908490611316565b90915550505b5050600101610a2d565b508251600103610bb05760208301516000906020840151909150856001600160a01b0316876001600160a01b0316846001600160a01b03167fc3d58168c5ae7397731d063d5bbf3d657854427343f4c083240f7aacaa2d0f628585604051610ba1929190918252602082015260400190565b60405180910390a4505061087c565b836001600160a01b0316856001600160a01b0316826001600160a01b03167f4a39dc06d4c0dbc64b70af90fd698a233a518aa5d07e595d983b8c0526c8f7fb8686604051610bff92919061138b565b60405180910390a45050505050565b6001600160a01b0384163b156104c25760405163f23a6e6160e01b81526001600160a01b0385169063f23a6e6190610c5290899089908890889088906004016113b9565b6020604051808303816000875af1925050508015610c8d575060408051601f3d908101601f19168201909252610c8a918101906113fe565b60015b610cf6573d808015610cbb576040519150601f19603f3d011682016040523d82523d6000602084013e610cc0565b606091505b508051600003610cee57604051632bfa23e760e11b81526001600160a01b0386166004820152602401610390565b805181602001fd5b6001600160e01b0319811663f23a6e6160e01b1461099e57604051632bfa23e760e11b81526001600160a01b0386166004820152602401610390565b6001600160a01b0384163b156104c25760405163bc197c8160e01b81526001600160a01b0385169063bc197c8190610d76908990899088908890889060040161141b565b6020604051808303816000875af1925050508015610db1575060408051601f3d908101601f19168201909252610dae918101906113fe565b60015b610ddf573d808015610cbb576040519150601f19603f3d011682016040523d82523d6000602084013e610cc0565b6001600160e01b0319811663bc197c8160e01b1461099e57604051632bfa23e760e11b81526001600160a01b0386166004820152602401610390565b80356001600160a01b0381168114610e3257600080fd5b919050565b60008060408385031215610e4a57600080fd5b610e5383610e1b565b946020939093013593505050565b6001600160e01b031981168114610e7757600080fd5b50565b600060208284031215610e8c57600080fd5b8135610e9781610e61565b9392505050565b600060208284031215610eb057600080fd5b5035919050565b6000815180845260005b81811015610edd57602081850181015186830182015201610ec1565b506000602082860101526020601f19601f83011685010191505092915050565b602081526000610e976020830184610eb7565b60008060408385031215610f2357600080fd5b50508035926020909101359150565b634e487b7160e01b600052604160045260246000fd5b604051601f8201601f1916810167ffffffffffffffff81118282101715610f7157610f71610f32565b604052919050565b600067ffffffffffffffff821115610f9357610f93610f32565b5060051b60200190565b600082601f830112610fae57600080fd5b81356020610fc3610fbe83610f79565b610f48565b8083825260208201915060208460051b870101935086841115610fe557600080fd5b602086015b848110156110015780358352918301918301610fea565b509695505050505050565b600082601f83011261101d57600080fd5b813567ffffffffffffffff81111561103757611037610f32565b61104a601f8201601f1916602001610f48565b81815284602083860101111561105f57600080fd5b816020850160208301376000918101602001919091529392505050565b600080600080600060a0868803121561109457600080fd5b61109d86610e1b565b94506110ab60208701610e1b565b9350604086013567ffffffffffffffff808211156110c857600080fd5b6110d489838a01610f9d565b945060608801359150808211156110ea57600080fd5b6110f689838a01610f9d565b9350608088013591508082111561110c57600080fd5b506111198882890161100c565b9150509295509295909350565b6000806040838503121561113957600080fd5b823567ffffffffffffffff8082111561115157600080fd5b818501915085601f83011261116557600080fd5b81356020611175610fbe83610f79565b82815260059290921b8401810191818101908984111561119457600080fd5b948201945b838610156111b9576111aa86610e1b565b82529482019490820190611199565b965050860135925050808211156111cf57600080fd5b506111dc85828601610f9d565b9150509250929050565b60008151808452602080850194506020840160005b83811015611217578151875295820195908201906001016111fb565b509495945050505050565b602081526000610e9760208301846111e6565b6000806040838503121561124857600080fd5b61125183610e1b565b91506020830135801515811461126657600080fd5b809150509250929050565b6000806040838503121561128457600080fd5b61128d83610e1b565b915061045a60208401610e1b565b600080600080600060a086880312156112b357600080fd5b6112bc86610e1b565b94506112ca60208701610e1b565b93506040860135925060608601359150608086013567ffffffffffffffff8111156112f457600080fd5b6111198882890161100c565b634e487b7160e01b600052601160045260246000fd5b808201808211156102e9576102e9611300565b80820281158282048414176102e9576102e9611300565b60008261135d57634e487b7160e01b600052601260045260246000fd5b500490565b634e487b7160e01b600052603260045260246000fd5b818103818111156102e9576102e9611300565b60408152600061139e60408301856111e6565b82810360208401526113b081856111e6565b95945050505050565b6001600160a01b03868116825285166020820152604081018490526060810183905260a0608082018190526000906113f390830184610eb7565b979650505050505050565b60006020828403121561141057600080fd5b8151610e9781610e61565b6001600160a01b0386811682528516602082015260a060408201819052600090611447908301866111e6565b828103606084015261145981866111e6565b9050828103608084015261146d8185610eb7565b9897505050505050505056fe68747470733a2f2f6d656469612e6973746f636b70686f746f2e636f6d2f69642f313438363335373539382f70686f746f2f636f617374616c2d62726f776e2d626561722d66697368696e672d696e2d6b61746d61692e6a70673f733d31303234783130323426773d6973266b3d323026633d434458697349314e46706d48346f442d546d575667474366445555756f53396a52755f6b7a7a50436530673da264697066735822122002f67702ecfb8695ebf301f904192a32b989827dc3a630d0e8b27f3c3f21147664736f6c6343000817003368747470733a2f2f6d656469612e6973746f636b70686f746f2e636f6d2f69642f313438363335373539382f70686f746f2f636f617374616c2d62726f776e2d626561722d66697368696e672d696e2d6b61746d61692e6a70673f733d31303234783130323426773d6973266b3d323026633d434458697349314e46706d48346f442d546d575667474366445555756f53396a52755f6b7a7a50436530673d",
    "linkReferences": {}
  },
  "methodIdentifiers": {
    "balanceOf(address,uint256)": "00fdd58e",
    "balanceOfBatch(address[],uint256[])": "4e1273f4",
    "getCurrentPrice()": "eb91d37e",
    "getMintedNFTsCount()": "d5f129ad",
    "getNextNFTPrice()": "e38f18f2",
    "isApprovedForAll(address,address)": "e985e9c5",
    "mint(uint256,uint256)": "1b2ef1ca",
    "royaltyInfo(uint256,uint256)": "2a55205a",
    "safeBatchTransferFrom(address,address,uint256[],uint256[],bytes)": "2eb2c2d6",
    "safeTransferFrom(address,address,uint256,uint256,bytes)": "f242432a",
    "setApprovalForAll(address,bool)": "a22cb465",
    "supportsInterface(bytes4)": "01ffc9a7",
    "totalSupply()": "18160ddd",
    "uri(uint256)": "0e89341c"
  },
  "id": 36
}