{
  "abi": [
    {
      "type": "constructor",
      "inputs": [
        {
          "name": "_merkleRoot",
          "type": "bytes32",
          "internalType": "bytes32"
        }
      ],
      "stateMutability": "nonpayable"
    },
    {
      "type": "function",
      "name": "approve",
      "inputs": [
        {
          "name": "to",
          "type": "address",
          "internalType": "address"
        },
        {
          "name": "tokenId",
          "type": "uint256",
          "internalType": "uint256"
        }
      ],
      "outputs": [],
      "stateMutability": "nonpayable"
    },
    {
      "type": "function",
      "name": "balanceOf",
      "inputs": [
        {
          "name": "owner",
          "type": "address",
          "internalType": "address"
        }
      ],
      "outputs": [
        {
          "name": "",
          "type": "uint256",
          "internalType": "uint256"
        }
      ],
      "stateMutability": "view"
    },
    {
      "type": "function",
      "name": "getApproved",
      "inputs": [
        {
          "name": "tokenId",
          "type": "uint256",
          "internalType": "uint256"
        }
      ],
      "outputs": [
        {
          "name": "",
          "type": "address",
          "internalType": "address"
        }
      ],
      "stateMutability": "view"
    },
    {
      "type": "function",
      "name": "getCurrentPrice",
      "inputs": [],
      "outputs": [
        {
          "name": "",
          "type": "uint256",
          "internalType": "uint256"
        }
      ],
      "stateMutability": "view"
    },
    {
      "type": "function",
      "name": "getMintedNFTsCount",
      "inputs": [],
      "outputs": [
        {
          "name": "",
          "type": "uint256",
          "internalType": "uint256"
        }
      ],
      "stateMutability": "view"
    },
    {
      "type": "function",
      "name": "getNextNFTPrice",
      "inputs": [],
      "outputs": [
        {
          "name": "",
          "type": "uint256",
          "internalType": "uint256"
        }
      ],
      "stateMutability": "view"
    },
    {
      "type": "function",
      "name": "getTotalNFTCount",
      "inputs": [],
      "outputs": [
        {
          "name": "",
          "type": "uint256",
          "internalType": "uint256"
        }
      ],
      "stateMutability": "pure"
    },
    {
      "type": "function",
      "name": "isApprovedForAll",
      "inputs": [
        {
          "name": "owner",
          "type": "address",
          "internalType": "address"
        },
        {
          "name": "operator",
          "type": "address",
          "internalType": "address"
        }
      ],
      "outputs": [
        {
          "name": "",
          "type": "bool",
          "internalType": "bool"
        }
      ],
      "stateMutability": "view"
    },
    {
      "type": "function",
      "name": "merkleRoot",
      "inputs": [],
      "outputs": [
        {
          "name": "",
          "type": "bytes32",
          "internalType": "bytes32"
        }
      ],
      "stateMutability": "view"
    },
    {
      "type": "function",
      "name": "mint",
      "inputs": [
        {
          "name": "proofs",
          "type": "bytes32[]",
          "internalType": "bytes32[]"
        },
        {
          "name": "amount",
          "type": "uint256",
          "internalType": "uint256"
        }
      ],
      "outputs": [],
      "stateMutability": "payable"
    },
    {
      "type": "function",
      "name": "mint",
      "inputs": [
        {
          "name": "amount",
          "type": "uint256",
          "internalType": "uint256"
        }
      ],
      "outputs": [],
      "stateMutability": "payable"
    },
    {
      "type": "function",
      "name": "name",
      "inputs": [],
      "outputs": [
        {
          "name": "",
          "type": "string",
          "internalType": "string"
        }
      ],
      "stateMutability": "view"
    },
    {
      "type": "function",
      "name": "owner",
      "inputs": [],
      "outputs": [
        {
          "name": "",
          "type": "address",
          "internalType": "address"
        }
      ],
      "stateMutability": "view"
    },
    {
      "type": "function",
      "name": "ownerOf",
      "inputs": [
        {
          "name": "tokenId",
          "type": "uint256",
          "internalType": "uint256"
        }
      ],
      "outputs": [
        {
          "name": "",
          "type": "address",
          "internalType": "address"
        }
      ],
      "stateMutability": "view"
    },
    {
      "type": "function",
      "name": "renounceOwnership",
      "inputs": [],
      "outputs": [],
      "stateMutability": "nonpayable"
    },
    {
      "type": "function",
      "name": "royaltyInfo",
      "inputs": [
        {
          "name": "",
          "type": "uint256",
          "internalType": "uint256"
        },
        {
          "name": "salePrice",
          "type": "uint256",
          "internalType": "uint256"
        }
      ],
      "outputs": [
        {
          "name": "receiver",
          "type": "address",
          "internalType": "address"
        },
        {
          "name": "royaltyAmount",
          "type": "uint256",
          "internalType": "uint256"
        }
      ],
      "stateMutability": "view"
    },
    {
      "type": "function",
      "name": "safeTransferFrom",
      "inputs": [
        {
          "name": "from",
          "type": "address",
          "internalType": "address"
        },
        {
          "name": "to",
          "type": "address",
          "internalType": "address"
        },
        {
          "name": "tokenId",
          "type": "uint256",
          "internalType": "uint256"
        }
      ],
      "outputs": [],
      "stateMutability": "nonpayable"
    },
    {
      "type": "function",
      "name": "safeTransferFrom",
      "inputs": [
        {
          "name": "from",
          "type": "address",
          "internalType": "address"
        },
        {
          "name": "to",
          "type": "address",
          "internalType": "address"
        },
        {
          "name": "tokenId",
          "type": "uint256",
          "internalType": "uint256"
        },
        {
          "name": "data",
          "type": "bytes",
          "internalType": "bytes"
        }
      ],
      "outputs": [],
      "stateMutability": "nonpayable"
    },
    {
      "type": "function",
      "name": "setApprovalForAll",
      "inputs": [
        {
          "name": "operator",
          "type": "address",
          "internalType": "address"
        },
        {
          "name": "approved",
          "type": "bool",
          "internalType": "bool"
        }
      ],
      "outputs": [],
      "stateMutability": "nonpayable"
    },
    {
      "type": "function",
      "name": "setMerkleRoot",
      "inputs": [
        {
          "name": "_merkleRoot",
          "type": "bytes32",
          "internalType": "bytes32"
        }
      ],
      "outputs": [],
      "stateMutability": "nonpayable"
    },
    {
      "type": "function",
      "name": "supportsInterface",
      "inputs": [
        {
          "name": "interfaceId",
          "type": "bytes4",
          "internalType": "bytes4"
        }
      ],
      "outputs": [
        {
          "name": "",
          "type": "bool",
          "internalType": "bool"
        }
      ],
      "stateMutability": "view"
    },
    {
      "type": "function",
      "name": "symbol",
      "inputs": [],
      "outputs": [
        {
          "name": "",
          "type": "string",
          "internalType": "string"
        }
      ],
      "stateMutability": "view"
    },
    {
      "type": "function",
      "name": "tokenId",
      "inputs": [],
      "outputs": [
        {
          "name": "",
          "type": "uint256",
          "internalType": "uint256"
        }
      ],
      "stateMutability": "view"
    },
    {
      "type": "function",
      "name": "tokenURI",
      "inputs": [
        {
          "name": "tokenId",
          "type": "uint256",
          "internalType": "uint256"
        }
      ],
      "outputs": [
        {
          "name": "",
          "type": "string",
          "internalType": "string"
        }
      ],
      "stateMutability": "view"
    },
    {
      "type": "function",
      "name": "transferFrom",
      "inputs": [
        {
          "name": "from",
          "type": "address",
          "internalType": "address"
        },
        {
          "name": "to",
          "type": "address",
          "internalType": "address"
        },
        {
          "name": "tokenId",
          "type": "uint256",
          "internalType": "uint256"
        }
      ],
      "outputs": [],
      "stateMutability": "nonpayable"
    },
    {
      "type": "function",
      "name": "transferOwnership",
      "inputs": [
        {
          "name": "newOwner",
          "type": "address",
          "internalType": "address"
        }
      ],
      "outputs": [],
      "stateMutability": "nonpayable"
    },
    {
      "type": "function",
      "name": "withdraw",
      "inputs": [],
      "outputs": [],
      "stateMutability": "nonpayable"
    },
    {
      "type": "event",
      "name": "Approval",
      "inputs": [
        {
          "name": "owner",
          "type": "address",
          "indexed": true,
          "internalType": "address"
        },
        {
          "name": "approved",
          "type": "address",
          "indexed": true,
          "internalType": "address"
        },
        {
          "name": "tokenId",
          "type": "uint256",
          "indexed": true,
          "internalType": "uint256"
        }
      ],
      "anonymous": false
    },
    {
      "type": "event",
      "name": "ApprovalForAll",
      "inputs": [
        {
          "name": "owner",
          "type": "address",
          "indexed": true,
          "internalType": "address"
        },
        {
          "name": "operator",
          "type": "address",
          "indexed": true,
          "internalType": "address"
        },
        {
          "name": "approved",
          "type": "bool",
          "indexed": false,
          "internalType": "bool"
        }
      ],
      "anonymous": false
    },
    {
      "type": "event",
      "name": "FundWithdrawn",
      "inputs": [
        {
          "name": "owner",
          "type": "address",
          "indexed": false,
          "internalType": "address"
        },
        {
          "name": "amount",
          "type": "uint256",
          "indexed": false,
          "internalType": "uint256"
        }
      ],
      "anonymous": false
    },
    {
      "type": "event",
      "name": "NFTMinted",
      "inputs": [
        {
          "name": "minter",
          "type": "address",
          "indexed": true,
          "internalType": "address"
        },
        {
          "name": "amount",
          "type": "uint256",
          "indexed": false,
          "internalType": "uint256"
        },
        {
          "name": "value",
          "type": "uint256",
          "indexed": false,
          "internalType": "uint256"
        }
      ],
      "anonymous": false
    },
    {
      "type": "event",
      "name": "OwnershipTransferred",
      "inputs": [
        {
          "name": "previousOwner",
          "type": "address",
          "indexed": true,
          "internalType": "address"
        },
        {
          "name": "newOwner",
          "type": "address",
          "indexed": true,
          "internalType": "address"
        }
      ],
      "anonymous": false
    },
    {
      "type": "event",
      "name": "Transfer",
      "inputs": [
        {
          "name": "from",
          "type": "address",
          "indexed": true,
          "internalType": "address"
        },
        {
          "name": "to",
          "type": "address",
          "indexed": true,
          "internalType": "address"
        },
        {
          "name": "tokenId",
          "type": "uint256",
          "indexed": true,
          "internalType": "uint256"
        }
      ],
      "anonymous": false
    },
    {
      "type": "error",
      "name": "ERC721IncorrectOwner",
      "inputs": [
        {
          "name": "sender",
          "type": "address",
          "internalType": "address"
        },
        {
          "name": "tokenId",
          "type": "uint256",
          "internalType": "uint256"
        },
        {
          "name": "owner",
          "type": "address",
          "internalType": "address"
        }
      ]
    },
    {
      "type": "error",
      "name": "ERC721InsufficientApproval",
      "inputs": [
        {
          "name": "operator",
          "type": "address",
          "internalType": "address"
        },
        {
          "name": "tokenId",
          "type": "uint256",
          "internalType": "uint256"
        }
      ]
    },
    {
      "type": "error",
      "name": "ERC721InvalidApprover",
      "inputs": [
        {
          "name": "approver",
          "type": "address",
          "internalType": "address"
        }
      ]
    },
    {
      "type": "error",
      "name": "ERC721InvalidOperator",
      "inputs": [
        {
          "name": "operator",
          "type": "address",
          "internalType": "address"
        }
      ]
    },
    {
      "type": "error",
      "name": "ERC721InvalidOwner",
      "inputs": [
        {
          "name": "owner",
          "type": "address",
          "internalType": "address"
        }
      ]
    },
    {
      "type": "error",
      "name": "ERC721InvalidReceiver",
      "inputs": [
        {
          "name": "receiver",
          "type": "address",
          "internalType": "address"
        }
      ]
    },
    {
      "type": "error",
      "name": "ERC721InvalidSender",
      "inputs": [
        {
          "name": "sender",
          "type": "address",
          "internalType": "address"
        }
      ]
    },
    {
      "type": "error",
      "name": "ERC721NonexistentToken",
      "inputs": [
        {
          "name": "tokenId",
          "type": "uint256",
          "internalType": "uint256"
        }
      ]
    },
    {
      "type": "error",
      "name": "OwnableInvalidOwner",
      "inputs": [
        {
          "name": "owner",
          "type": "address",
          "internalType": "address"
        }
      ]
    },
    {
      "type": "error",
      "name": "OwnableUnauthorizedAccount",
      "inputs": [
        {
          "name": "account",
          "type": "address",
          "internalType": "address"
        }
      ]
    }
  ],
  "bytecode": {
    "object": "0x60806040523480156200001157600080fd5b5060405162001f3b38038062001f3b833981016040819052620000349162000131565b336040518060400160405280600c81526020016b486f6e657947656e6573697360a01b81525060405180604001604052806005815260200164484f4e455960d81b8152508160009081620000899190620001f2565b506001620000988282620001f2565b5050506001600160a01b038116620000ca57604051631e4fbdf760e01b81526000600482015260240160405180910390fd5b620000d581620000df565b50600755620002be565b600680546001600160a01b038381166001600160a01b0319831681179093556040519116919082907f8be0079c531659141344cd1fd0a4f28419497f9722a3daafe3b4186f6b6457e090600090a35050565b6000602082840312156200014457600080fd5b5051919050565b634e487b7160e01b600052604160045260246000fd5b600181811c908216806200017657607f821691505b6020821081036200019757634e487b7160e01b600052602260045260246000fd5b50919050565b601f821115620001ed576000816000526020600020601f850160051c81016020861015620001c85750805b601f850160051c820191505b81811015620001e957828155600101620001d4565b5050505b505050565b81516001600160401b038111156200020e576200020e6200014b565b62000226816200021f845462000161565b846200019d565b602080601f8311600181146200025e5760008415620002455750858301515b600019600386901b1c1916600185901b178555620001e9565b600085815260208120601f198616915b828110156200028f578886015182559484019460019091019084016200026e565b5085821015620002ae5787850151600019600388901b60f8161c191681555b5050505050600190811b01905550565b611c6d80620002ce6000396000f3fe60806040526004361061019c5760003560e01c8063715018a6116100ec578063bc50c9c11161008a578063e38f18f211610064578063e38f18f214610478578063e985e9c51461048d578063eb91d37e146104ad578063f2fde38b146104c257600080fd5b8063bc50c9c11461042e578063c87b56dd14610443578063d5f129ad1461046357600080fd5b806395d89b41116100c657806395d89b41146103c6578063a0712d68146103db578063a22cb465146103ee578063b88d4fde1461040e57600080fd5b8063715018a6146103735780637cb64759146103885780638da5cb5b146103a857600080fd5b80632a55205a1161015957806342842e0e1161013357806342842e0e1461030057806345de0d9b146103205780636352211e1461033357806370a082311461035357600080fd5b80632a55205a146102965780632eb4a7ab146102d55780633ccfd60b146102eb57600080fd5b806301ffc9a7146101a157806306fdde03146101d6578063081812fc146101f8578063095ea7b31461023057806317d70f7c1461025257806323b872dd14610276575b600080fd5b3480156101ad57600080fd5b506101c16101bc366004611706565b6104e2565b60405190151581526020015b60405180910390f35b3480156101e257600080fd5b506101eb61050d565b6040516101cd9190611773565b34801561020457600080fd5b50610218610213366004611786565b61059f565b6040516001600160a01b0390911681526020016101cd565b34801561023c57600080fd5b5061025061024b3660046117bb565b6105c8565b005b34801561025e57600080fd5b5061026860085481565b6040519081526020016101cd565b34801561028257600080fd5b506102506102913660046117e5565b6105d7565b3480156102a257600080fd5b506102b66102b1366004611821565b610667565b604080516001600160a01b0390931683526020830191909152016101cd565b3480156102e157600080fd5b5061026860075481565b3480156102f757600080fd5b5061025061069e565b34801561030c57600080fd5b5061025061031b3660046117e5565b6107a2565b61025061032e366004611843565b6107c2565b34801561033f57600080fd5b5061021861034e366004611786565b610ac3565b34801561035f57600080fd5b5061026861036e3660046118be565b610ace565b34801561037f57600080fd5b50610250610b16565b34801561039457600080fd5b506102506103a3366004611786565b610b2a565b3480156103b457600080fd5b506006546001600160a01b0316610218565b3480156103d257600080fd5b506101eb610b37565b6102506103e9366004611786565b610b46565b3480156103fa57600080fd5b506102506104093660046118d9565b610c72565b34801561041a57600080fd5b5061025061042936600461192b565b610c7d565b34801561043a57600080fd5b50611770610268565b34801561044f57600080fd5b506101eb61045e366004611786565b610c94565b34801561046f57600080fd5b50600854610268565b34801561048457600080fd5b50610268610cfc565b34801561049957600080fd5b506101c16104a8366004611a07565b610dca565b3480156104b957600080fd5b50610268610df8565b3480156104ce57600080fd5b506102506104dd3660046118be565b610e66565b60006001600160e01b0319821663152a902d60e11b1480610507575061050782610ea4565b92915050565b60606000805461051c90611a31565b80601f016020809104026020016040519081016040528092919081815260200182805461054890611a31565b80156105955780601f1061056a57610100808354040283529160200191610595565b820191906000526020600020905b81548152906001019060200180831161057857829003601f168201915b5050505050905090565b60006105aa82610ef4565b506000828152600460205260409020546001600160a01b0316610507565b6105d3828233610f2d565b5050565b6001600160a01b03821661060657604051633250574960e11b8152600060048201526024015b60405180910390fd5b6000610613838333610f3a565b9050836001600160a01b0316816001600160a01b031614610661576040516364283d7b60e01b81526001600160a01b03808616600483015260248201849052821660448201526064016105fd565b50505050565b60008061067c6006546001600160a01b031690565b9150606461068b846005611a81565b6106959190611a98565b90509250929050565b6106a6611033565b60006106ba6006546001600160a01b031690565b6001600160a01b03164760405160006040518083038185875af1925050503d8060008114610704576040519150601f19603f3d011682016040523d82523d6000602084013e610709565b606091505b505090508061074c5760405162461bcd60e51b815260206004820152600f60248201526e151c985b9cd9995c8819985a5b1959608a1b60448201526064016105fd565b7fa692503bc54c9f1d1483729b6058a24987097ff492084b1a8adf8cae08e4fb4361077f6006546001600160a01b031690565b604080516001600160a01b0390921682524760208301520160405180910390a150565b6107bd83838360405180602001604052806000815250610c7d565b505050565b6007546108115760405162461bcd60e51b815260206004820152601b60248201527f5768697465206c697374696e67206e6f7420737570706f72746564000000000060448201526064016105fd565b60405133606081901b6bffffffffffffffffffffffff191660208301529060009060340160405160208183030381529060405280519060200120905061088e858580806020026020016040519081016040528093929190818152602001838360200280828437600092019190915250506007549150849050611060565b6108ca5760405162461bcd60e51b815260206004820152600d60248201526c24b73b30b634b210383937b7b360991b60448201526064016105fd565b6108db66f8b0a10e47000084611a81565b341461091e5760405162461bcd60e51b8152602060048201526012602482015271496e73756666696369656e742066756e647360701b60448201526064016105fd565b6117708360085461092f9190611aba565b11156109785760405162461bcd60e51b815260206004820152601860248201527704578636565647320746f74616c20737570706c79206361760441b60448201526064016105fd565b60148311156109c95760405162461bcd60e51b815260206004820152601760248201527f45786365656473206d6178206d696e7420616d6f756e7400000000000000000060448201526064016105fd565b6001600160a01b03821660009081526009602052604090205460ff1615610a235760405162461bcd60e51b815260206004820152600e60248201526d105b1c9958591e481b5a5b9d195960921b60448201526064016105fd565b6001600160a01b0382166000908152600960205260408120805460ff191660011790555b83811015610a7857600860008154610a5e90611acd565b90915550600854610a70908490611076565b600101610a47565b50604080518481523460208201526001600160a01b038416917f3a8a89b59a31c39a36febecb987e0657ab7b7c73b60ebacb44dcb9886c2d5c8a910160405180910390a25050505050565b600061050782610ef4565b60006001600160a01b038216610afa576040516322718ad960e21b8152600060048201526024016105fd565b506001600160a01b031660009081526003602052604090205490565b610b1e611033565b610b286000611090565b565b610b32611033565b600755565b60606001805461051c90611a31565b33610b4f610df8565b610b599083611a81565b3414610b9c5760405162461bcd60e51b8152602060048201526012602482015271496e73756666696369656e742066756e647360701b60448201526064016105fd565b61177082600854610bad9190611aba565b1115610bf65760405162461bcd60e51b815260206004820152601860248201527704578636565647320746f74616c20737570706c79206361760441b60448201526064016105fd565b60005b82811015610c2a57600860008154610c1090611acd565b90915550600854610c22908390611076565b600101610bf9565b50604080518381523460208201526001600160a01b038316917f3a8a89b59a31c39a36febecb987e0657ab7b7c73b60ebacb44dcb9886c2d5c8a910160405180910390a25050565b6105d33383836110e2565b610c888484846105d7565b61066184848484611181565b6060610c9f82610ef4565b506000610caa6112aa565b90506000815111610cca5760405180602001604052806000815250610cf5565b80610cd4846112ca565b604051602001610ce5929190611ae6565b6040516020818303038152906040525b9392505050565b6000806008546001610d0e9190611aba565b90506117708111610d8d576103e88111610d305766f8b0a10e47000091505090565b60006101f46001610d436103e885611b15565b610d4d9190611b15565b610d579190611a98565b610d62906001611aba565b9050610d756618de76816d800082611a81565b610d869066f8b0a10e470000611aba565b9250505090565b60405162461bcd60e51b815260206004820152601260248201527113585e081cdd5c1c1b1e481c995858da195960721b60448201526064016105fd565b6001600160a01b03918216600090815260056020908152604080832093909416825291909152205460ff1690565b60006103e86008541015610e12575066f8b0a10e47000090565b60006101f46103e8600854610e279190611b15565b610e319190611a98565b610e3c906001611aba565b9050610e4f6618de76816d800082611a81565b610e609066f8b0a10e470000611aba565b91505090565b610e6e611033565b6001600160a01b038116610e9857604051631e4fbdf760e01b8152600060048201526024016105fd565b610ea181611090565b50565b60006001600160e01b031982166380ac58cd60e01b1480610ed557506001600160e01b03198216635b5e139f60e01b145b8061050757506301ffc9a760e01b6001600160e01b0319831614610507565b6000818152600260205260408120546001600160a01b03168061050757604051637e27328960e01b8152600481018490526024016105fd565b6107bd838383600161135d565b6000828152600260205260408120546001600160a01b0390811690831615610f6757610f67818486611463565b6001600160a01b03811615610fa557610f8460008560008061135d565b6001600160a01b038116600090815260036020526040902080546000190190555b6001600160a01b03851615610fd4576001600160a01b0385166000908152600360205260409020805460010190555b60008481526002602052604080822080546001600160a01b0319166001600160a01b0389811691821790925591518793918516917fddf252ad1be2c89b69c2b068fc378daa952ba7f163c4a11628f55a4df523b3ef91a4949350505050565b6006546001600160a01b03163314610b285760405163118cdaa760e01b81523360048201526024016105fd565b60008261106d85846114c7565b14949350505050565b6105d382826040518060200160405280600081525061150a565b600680546001600160a01b038381166001600160a01b0319831681179093556040519116919082907f8be0079c531659141344cd1fd0a4f28419497f9722a3daafe3b4186f6b6457e090600090a35050565b6001600160a01b03821661111457604051630b61174360e31b81526001600160a01b03831660048201526024016105fd565b6001600160a01b03838116600081815260056020908152604080832094871680845294825291829020805460ff191686151590811790915591519182527f17307eab39ab6107e8899845ad3d59bd9653f200f220920489ca2b5937696c31910160405180910390a3505050565b6001600160a01b0383163b1561066157604051630a85bd0160e11b81526001600160a01b0384169063150b7a02906111c3903390889087908790600401611b28565b6020604051808303816000875af19250505080156111fe575060408051601f3d908101601f191682019092526111fb91810190611b65565b60015b611267573d80801561122c576040519150601f19603f3d011682016040523d82523d6000602084013e611231565b606091505b50805160000361125f57604051633250574960e11b81526001600160a01b03851660048201526024016105fd565b805181602001fd5b6001600160e01b03198116630a85bd0160e11b146112a357604051633250574960e11b81526001600160a01b03851660048201526024016105fd565b5050505050565b60606040518060c00160405280609f8152602001611b99609f9139905090565b606060006112d783611521565b600101905060008167ffffffffffffffff8111156112f7576112f7611915565b6040519080825280601f01601f191660200182016040528015611321576020820181803683370190505b5090508181016020015b600019016f181899199a1a9b1b9c1cb0b131b232b360811b600a86061a8153600a850494508461132b57509392505050565b808061137157506001600160a01b03821615155b1561143357600061138184610ef4565b90506001600160a01b038316158015906113ad5750826001600160a01b0316816001600160a01b031614155b80156113c057506113be8184610dca565b155b156113e95760405163a9fbf51f60e01b81526001600160a01b03841660048201526024016105fd565b81156114315783856001600160a01b0316826001600160a01b03167f8c5be1e5ebec7d5bd14f71427d1e84f3dd0314c0f7b2291e5b200ac8c7c3b92560405160405180910390a45b505b5050600090815260046020526040902080546001600160a01b0319166001600160a01b0392909216919091179055565b61146e8383836115f9565b6107bd576001600160a01b03831661149c57604051637e27328960e01b8152600481018290526024016105fd565b60405163177e802f60e01b81526001600160a01b0383166004820152602481018290526044016105fd565b600081815b8451811015611502576114f8828683815181106114eb576114eb611b82565b602002602001015161165f565b91506001016114cc565b509392505050565b611514838361168b565b6107bd6000848484611181565b60008072184f03e93ff9f4daa797ed6e38ed64bf6a1f0160401b83106115605772184f03e93ff9f4daa797ed6e38ed64bf6a1f0160401b830492506040015b6d04ee2d6d415b85acef8100000000831061158c576d04ee2d6d415b85acef8100000000830492506020015b662386f26fc1000083106115aa57662386f26fc10000830492506010015b6305f5e10083106115c2576305f5e100830492506008015b61271083106115d657612710830492506004015b606483106115e8576064830492506002015b600a83106105075760010192915050565b60006001600160a01b038316158015906116575750826001600160a01b0316846001600160a01b0316148061163357506116338484610dca565b8061165757506000828152600460205260409020546001600160a01b038481169116145b949350505050565b600081831061167b576000828152602084905260409020610cf5565b5060009182526020526040902090565b6001600160a01b0382166116b557604051633250574960e11b8152600060048201526024016105fd565b60006116c383836000610f3a565b90506001600160a01b038116156107bd576040516339e3563760e11b8152600060048201526024016105fd565b6001600160e01b031981168114610ea157600080fd5b60006020828403121561171857600080fd5b8135610cf5816116f0565b60005b8381101561173e578181015183820152602001611726565b50506000910152565b6000815180845261175f816020860160208601611723565b601f01601f19169290920160200192915050565b602081526000610cf56020830184611747565b60006020828403121561179857600080fd5b5035919050565b80356001600160a01b03811681146117b657600080fd5b919050565b600080604083850312156117ce57600080fd5b6117d78361179f565b946020939093013593505050565b6000806000606084860312156117fa57600080fd5b6118038461179f565b92506118116020850161179f565b9150604084013590509250925092565b6000806040838503121561183457600080fd5b50508035926020909101359150565b60008060006040848603121561185857600080fd5b833567ffffffffffffffff8082111561187057600080fd5b818601915086601f83011261188457600080fd5b81358181111561189357600080fd5b8760208260051b85010111156118a857600080fd5b6020928301989097509590910135949350505050565b6000602082840312156118d057600080fd5b610cf58261179f565b600080604083850312156118ec57600080fd5b6118f58361179f565b91506020830135801515811461190a57600080fd5b809150509250929050565b634e487b7160e01b600052604160045260246000fd5b6000806000806080858703121561194157600080fd5b61194a8561179f565b93506119586020860161179f565b925060408501359150606085013567ffffffffffffffff8082111561197c57600080fd5b818701915087601f83011261199057600080fd5b8135818111156119a2576119a2611915565b604051601f8201601f19908116603f011681019083821181831017156119ca576119ca611915565b816040528281528a60208487010111156119e357600080fd5b82602086016020830137600060208483010152809550505050505092959194509250565b60008060408385031215611a1a57600080fd5b611a238361179f565b91506106956020840161179f565b600181811c90821680611a4557607f821691505b602082108103611a6557634e487b7160e01b600052602260045260246000fd5b50919050565b634e487b7160e01b600052601160045260246000fd5b808202811582820484141761050757610507611a6b565b600082611ab557634e487b7160e01b600052601260045260246000fd5b500490565b8082018082111561050757610507611a6b565b600060018201611adf57611adf611a6b565b5060010190565b60008351611af8818460208801611723565b835190830190611b0c818360208801611723565b01949350505050565b8181038181111561050757610507611a6b565b6001600160a01b0385811682528416602082015260408101839052608060608201819052600090611b5b90830184611747565b9695505050505050565b600060208284031215611b7757600080fd5b8151610cf5816116f0565b634e487b7160e01b600052603260045260246000fdfe68747470733a2f2f6d656469612e6973746f636b70686f746f2e636f6d2f69642f313438363335373539382f70686f746f2f636f617374616c2d62726f776e2d626561722d66697368696e672d696e2d6b61746d61692e6a70673f733d31303234783130323426773d6973266b3d323026633d434458697349314e46706d48346f442d546d575667474366445555756f53396a52755f6b7a7a50436530673da26469706673582212207ef7c65a2d20f3787c44fa55e15f136b23e009403d1ffcf2ca98b3d83324a12c64736f6c63430008180033",
    "linkReferences": {}
  },
  "methodIdentifiers": {
    "approve(address,uint256)": "095ea7b3",
    "balanceOf(address)": "70a08231",
    "getApproved(uint256)": "081812fc",
    "getCurrentPrice()": "eb91d37e",
    "getMintedNFTsCount()": "d5f129ad",
    "getNextNFTPrice()": "e38f18f2",
    "getTotalNFTCount()": "bc50c9c1",
    "isApprovedForAll(address,address)": "e985e9c5",
    "merkleRoot()": "2eb4a7ab",
    "mint(bytes32[],uint256)": "45de0d9b",
    "mint(uint256)": "a0712d68",
    "name()": "06fdde03",
    "owner()": "8da5cb5b",
    "ownerOf(uint256)": "6352211e",
    "renounceOwnership()": "715018a6",
    "royaltyInfo(uint256,uint256)": "2a55205a",
    "safeTransferFrom(address,address,uint256)": "42842e0e",
    "safeTransferFrom(address,address,uint256,bytes)": "b88d4fde",
    "setApprovalForAll(address,bool)": "a22cb465",
    "setMerkleRoot(bytes32)": "7cb64759",
    "supportsInterface(bytes4)": "01ffc9a7",
    "symbol()": "95d89b41",
    "tokenId()": "17d70f7c",
    "tokenURI(uint256)": "c87b56dd",
    "transferFrom(address,address,uint256)": "23b872dd",
    "transferOwnership(address)": "f2fde38b",
    "withdraw()": "3ccfd60b"
  },
  "id": 15
}