{
  "abi": [
    {
      "type": "constructor",
      "inputs": [
        {
          "name": "_initialBaseURI",
          "type": "string",
          "internalType": "string"
        }
      ],
      "stateMutability": "nonpayable"
    },
    {
      "type": "function",
      "name": "MAX_MINT_AMOUNT",
      "inputs": [],
      "outputs": [
        {
          "name": "",
          "type": "uint256",
          "internalType": "uint256"
        }
      ],
      "stateMutability": "view"
    },
    {
      "type": "function",
      "name": "MINT_UNIT_PRICE",
      "inputs": [],
      "outputs": [
        {
          "name": "",
          "type": "uint256",
          "internalType": "uint256"
        }
      ],
      "stateMutability": "view"
    },
    {
      "type": "function",
      "name": "PRICE_INCREMENT",
      "inputs": [],
      "outputs": [
        {
          "name": "",
          "type": "uint256",
          "internalType": "uint256"
        }
      ],
      "stateMutability": "view"
    },
    {
      "type": "function",
      "name": "TOTAL_SUPPLY_CAP",
      "inputs": [],
      "outputs": [
        {
          "name": "",
          "type": "uint256",
          "internalType": "uint256"
        }
      ],
      "stateMutability": "view"
    },
    {
      "type": "function",
      "name": "addVIPMinterTestnet",
      "inputs": [
        {
          "name": "minter",
          "type": "address",
          "internalType": "address"
        },
        {
          "name": "amount",
          "type": "uint256",
          "internalType": "uint256"
        }
      ],
      "outputs": [],
      "stateMutability": "nonpayable"
    },
    {
      "type": "function",
      "name": "approve",
      "inputs": [
        {
          "name": "to",
          "type": "address",
          "internalType": "address"
        },
        {
          "name": "tokenId",
          "type": "uint256",
          "internalType": "uint256"
        }
      ],
      "outputs": [],
      "stateMutability": "payable"
    },
    {
      "type": "function",
      "name": "balanceOf",
      "inputs": [
        {
          "name": "owner",
          "type": "address",
          "internalType": "address"
        }
      ],
      "outputs": [
        {
          "name": "",
          "type": "uint256",
          "internalType": "uint256"
        }
      ],
      "stateMutability": "view"
    },
    {
      "type": "function",
      "name": "baseURI",
      "inputs": [],
      "outputs": [
        {
          "name": "",
          "type": "string",
          "internalType": "string"
        }
      ],
      "stateMutability": "view"
    },
    {
      "type": "function",
      "name": "getApproved",
      "inputs": [
        {
          "name": "tokenId",
          "type": "uint256",
          "internalType": "uint256"
        }
      ],
      "outputs": [
        {
          "name": "",
          "type": "address",
          "internalType": "address"
        }
      ],
      "stateMutability": "view"
    },
    {
      "type": "function",
      "name": "getCurrentPrice",
      "inputs": [],
      "outputs": [
        {
          "name": "",
          "type": "uint256",
          "internalType": "uint256"
        }
      ],
      "stateMutability": "view"
    },
    {
      "type": "function",
      "name": "getNextNFTPrice",
      "inputs": [],
      "outputs": [
        {
          "name": "",
          "type": "uint256",
          "internalType": "uint256"
        }
      ],
      "stateMutability": "view"
    },
    {
      "type": "function",
      "name": "getTotalVIPNFTCount",
      "inputs": [],
      "outputs": [
        {
          "name": "",
          "type": "uint256",
          "internalType": "uint256"
        }
      ],
      "stateMutability": "pure"
    },
    {
      "type": "function",
      "name": "getVIPMintQuota",
      "inputs": [
        {
          "name": "user",
          "type": "address",
          "internalType": "address"
        }
      ],
      "outputs": [
        {
          "name": "",
          "type": "uint256",
          "internalType": "uint256"
        }
      ],
      "stateMutability": "view"
    },
    {
      "type": "function",
      "name": "getVIPPrice",
      "inputs": [],
      "outputs": [
        {
          "name": "",
          "type": "uint256",
          "internalType": "uint256"
        }
      ],
      "stateMutability": "pure"
    },
    {
      "type": "function",
      "name": "incrementVIPMintQuota",
      "inputs": [
        {
          "name": "user",
          "type": "address[]",
          "internalType": "address[]"
        },
        {
          "name": "amount",
          "type": "uint256[]",
          "internalType": "uint256[]"
        }
      ],
      "outputs": [],
      "stateMutability": "nonpayable"
    },
    {
      "type": "function",
      "name": "isApprovedForAll",
      "inputs": [
        {
          "name": "owner",
          "type": "address",
          "internalType": "address"
        },
        {
          "name": "operator",
          "type": "address",
          "internalType": "address"
        }
      ],
      "outputs": [
        {
          "name": "",
          "type": "bool",
          "internalType": "bool"
        }
      ],
      "stateMutability": "view"
    },
    {
      "type": "function",
      "name": "mint",
      "inputs": [
        {
          "name": "amount",
          "type": "uint256",
          "internalType": "uint256"
        }
      ],
      "outputs": [],
      "stateMutability": "payable"
    },
    {
      "type": "function",
      "name": "mintVIP",
      "inputs": [
        {
          "name": "amount",
          "type": "uint256",
          "internalType": "uint256"
        }
      ],
      "outputs": [],
      "stateMutability": "payable"
    },
    {
      "type": "function",
      "name": "mintbyKingdomly",
      "inputs": [
        {
          "name": "amount",
          "type": "uint256",
          "internalType": "uint256"
        }
      ],
      "outputs": [],
      "stateMutability": "payable"
    },
    {
      "type": "function",
      "name": "name",
      "inputs": [],
      "outputs": [
        {
          "name": "",
          "type": "string",
          "internalType": "string"
        }
      ],
      "stateMutability": "view"
    },
    {
      "type": "function",
      "name": "owner",
      "inputs": [],
      "outputs": [
        {
          "name": "",
          "type": "address",
          "internalType": "address"
        }
      ],
      "stateMutability": "view"
    },
    {
      "type": "function",
      "name": "ownerOf",
      "inputs": [
        {
          "name": "tokenId",
          "type": "uint256",
          "internalType": "uint256"
        }
      ],
      "outputs": [
        {
          "name": "",
          "type": "address",
          "internalType": "address"
        }
      ],
      "stateMutability": "view"
    },
    {
      "type": "function",
      "name": "renounceOwnership",
      "inputs": [],
      "outputs": [],
      "stateMutability": "nonpayable"
    },
    {
      "type": "function",
      "name": "royaltyInfo",
      "inputs": [
        {
          "name": "",
          "type": "uint256",
          "internalType": "uint256"
        },
        {
          "name": "salePrice",
          "type": "uint256",
          "internalType": "uint256"
        }
      ],
      "outputs": [
        {
          "name": "receiver",
          "type": "address",
          "internalType": "address"
        },
        {
          "name": "royaltyAmount",
          "type": "uint256",
          "internalType": "uint256"
        }
      ],
      "stateMutability": "view"
    },
    {
      "type": "function",
      "name": "safeTransferFrom",
      "inputs": [
        {
          "name": "from",
          "type": "address",
          "internalType": "address"
        },
        {
          "name": "to",
          "type": "address",
          "internalType": "address"
        },
        {
          "name": "tokenId",
          "type": "uint256",
          "internalType": "uint256"
        }
      ],
      "outputs": [],
      "stateMutability": "payable"
    },
    {
      "type": "function",
      "name": "safeTransferFrom",
      "inputs": [
        {
          "name": "from",
          "type": "address",
          "internalType": "address"
        },
        {
          "name": "to",
          "type": "address",
          "internalType": "address"
        },
        {
          "name": "tokenId",
          "type": "uint256",
          "internalType": "uint256"
        },
        {
          "name": "_data",
          "type": "bytes",
          "internalType": "bytes"
        }
      ],
      "outputs": [],
      "stateMutability": "payable"
    },
    {
      "type": "function",
      "name": "setApprovalForAll",
      "inputs": [
        {
          "name": "operator",
          "type": "address",
          "internalType": "address"
        },
        {
          "name": "approved",
          "type": "bool",
          "internalType": "bool"
        }
      ],
      "outputs": [],
      "stateMutability": "nonpayable"
    },
    {
      "type": "function",
      "name": "setBaseURI",
      "inputs": [
        {
          "name": "newBaseURI",
          "type": "string",
          "internalType": "string"
        }
      ],
      "outputs": [],
      "stateMutability": "nonpayable"
    },
    {
      "type": "function",
      "name": "supportsInterface",
      "inputs": [
        {
          "name": "interfaceId",
          "type": "bytes4",
          "internalType": "bytes4"
        }
      ],
      "outputs": [
        {
          "name": "",
          "type": "bool",
          "internalType": "bool"
        }
      ],
      "stateMutability": "view"
    },
    {
      "type": "function",
      "name": "symbol",
      "inputs": [],
      "outputs": [
        {
          "name": "",
          "type": "string",
          "internalType": "string"
        }
      ],
      "stateMutability": "view"
    },
    {
      "type": "function",
      "name": "tokenCountNormal",
      "inputs": [],
      "outputs": [
        {
          "name": "",
          "type": "uint256",
          "internalType": "uint256"
        }
      ],
      "stateMutability": "view"
    },
    {
      "type": "function",
      "name": "tokenCountVIP",
      "inputs": [],
      "outputs": [
        {
          "name": "",
          "type": "uint256",
          "internalType": "uint256"
        }
      ],
      "stateMutability": "view"
    },
    {
      "type": "function",
      "name": "tokenURI",
      "inputs": [
        {
          "name": "tokenId",
          "type": "uint256",
          "internalType": "uint256"
        }
      ],
      "outputs": [
        {
          "name": "",
          "type": "string",
          "internalType": "string"
        }
      ],
      "stateMutability": "view"
    },
    {
      "type": "function",
      "name": "totalSupply",
      "inputs": [],
      "outputs": [
        {
          "name": "result",
          "type": "uint256",
          "internalType": "uint256"
        }
      ],
      "stateMutability": "view"
    },
    {
      "type": "function",
      "name": "transferFrom",
      "inputs": [
        {
          "name": "from",
          "type": "address",
          "internalType": "address"
        },
        {
          "name": "to",
          "type": "address",
          "internalType": "address"
        },
        {
          "name": "tokenId",
          "type": "uint256",
          "internalType": "uint256"
        }
      ],
      "outputs": [],
      "stateMutability": "payable"
    },
    {
      "type": "function",
      "name": "transferOwnership",
      "inputs": [
        {
          "name": "newOwner",
          "type": "address",
          "internalType": "address"
        }
      ],
      "outputs": [],
      "stateMutability": "nonpayable"
    },
    {
      "type": "function",
      "name": "withdraw",
      "inputs": [],
      "outputs": [],
      "stateMutability": "nonpayable"
    },
    {
      "type": "function",
      "name": "withdrawFeeFunds",
      "inputs": [],
      "outputs": [],
      "stateMutability": "nonpayable"
    },
    {
      "type": "event",
      "name": "Approval",
      "inputs": [
        {
          "name": "owner",
          "type": "address",
          "indexed": true,
          "internalType": "address"
        },
        {
          "name": "approved",
          "type": "address",
          "indexed": true,
          "internalType": "address"
        },
        {
          "name": "tokenId",
          "type": "uint256",
          "indexed": true,
          "internalType": "uint256"
        }
      ],
      "anonymous": false
    },
    {
      "type": "event",
      "name": "ApprovalForAll",
      "inputs": [
        {
          "name": "owner",
          "type": "address",
          "indexed": true,
          "internalType": "address"
        },
        {
          "name": "operator",
          "type": "address",
          "indexed": true,
          "internalType": "address"
        },
        {
          "name": "approved",
          "type": "bool",
          "indexed": false,
          "internalType": "bool"
        }
      ],
      "anonymous": false
    },
    {
      "type": "event",
      "name": "BatchMetadataUpdate",
      "inputs": [
        {
          "name": "fromTokenId",
          "type": "uint256",
          "indexed": true,
          "internalType": "uint256"
        },
        {
          "name": "toTokenId",
          "type": "uint256",
          "indexed": true,
          "internalType": "uint256"
        }
      ],
      "anonymous": false
    },
    {
      "type": "event",
      "name": "ConsecutiveTransfer",
      "inputs": [
        {
          "name": "fromTokenId",
          "type": "uint256",
          "indexed": true,
          "internalType": "uint256"
        },
        {
          "name": "toTokenId",
          "type": "uint256",
          "indexed": false,
          "internalType": "uint256"
        },
        {
          "name": "from",
          "type": "address",
          "indexed": true,
          "internalType": "address"
        },
        {
          "name": "to",
          "type": "address",
          "indexed": true,
          "internalType": "address"
        }
      ],
      "anonymous": false
    },
    {
      "type": "event",
      "name": "FundWithdrawn",
      "inputs": [
        {
          "name": "owner",
          "type": "address",
          "indexed": false,
          "internalType": "address"
        },
        {
          "name": "amount",
          "type": "uint256",
          "indexed": false,
          "internalType": "uint256"
        }
      ],
      "anonymous": false
    },
    {
      "type": "event",
      "name": "NFTMinted",
      "inputs": [
        {
          "name": "minter",
          "type": "address",
          "indexed": true,
          "internalType": "address"
        },
        {
          "name": "amount",
          "type": "uint256",
          "indexed": false,
          "internalType": "uint256"
        },
        {
          "name": "value",
          "type": "uint256",
          "indexed": false,
          "internalType": "uint256"
        }
      ],
      "anonymous": false
    },
    {
      "type": "event",
      "name": "OwnershipTransferred",
      "inputs": [
        {
          "name": "previousOwner",
          "type": "address",
          "indexed": true,
          "internalType": "address"
        },
        {
          "name": "newOwner",
          "type": "address",
          "indexed": true,
          "internalType": "address"
        }
      ],
      "anonymous": false
    },
    {
      "type": "event",
      "name": "Transfer",
      "inputs": [
        {
          "name": "from",
          "type": "address",
          "indexed": true,
          "internalType": "address"
        },
        {
          "name": "to",
          "type": "address",
          "indexed": true,
          "internalType": "address"
        },
        {
          "name": "tokenId",
          "type": "uint256",
          "indexed": true,
          "internalType": "uint256"
        }
      ],
      "anonymous": false
    },
    {
      "type": "error",
      "name": "ApprovalCallerNotOwnerNorApproved",
      "inputs": []
    },
    {
      "type": "error",
      "name": "ApprovalQueryForNonexistentToken",
      "inputs": []
    },
    {
      "type": "error",
      "name": "BalanceQueryForZeroAddress",
      "inputs": []
    },
    {
      "type": "error",
      "name": "ExceedsMaxSupply",
      "inputs": [
        {
          "name": "requested",
          "type": "uint256",
          "internalType": "uint256"
        },
        {
          "name": "available",
          "type": "uint256",
          "internalType": "uint256"
        }
      ]
    },
    {
      "type": "error",
      "name": "ExceedsVIPMaxSupply",
      "inputs": [
        {
          "name": "requested",
          "type": "uint256",
          "internalType": "uint256"
        },
        {
          "name": "available",
          "type": "uint256",
          "internalType": "uint256"
        }
      ]
    },
    {
      "type": "error",
      "name": "InsufficientEther",
      "inputs": [
        {
          "name": "required",
          "type": "uint256",
          "internalType": "uint256"
        },
        {
          "name": "provided",
          "type": "uint256",
          "internalType": "uint256"
        }
      ]
    },
    {
      "type": "error",
      "name": "MintERC2309QuantityExceedsLimit",
      "inputs": []
    },
    {
      "type": "error",
      "name": "MintToZeroAddress",
      "inputs": []
    },
    {
      "type": "error",
      "name": "MintZeroQuantity",
      "inputs": []
    },
    {
      "type": "error",
      "name": "NotCompatibleWithSpotMints",
      "inputs": []
    },
    {
      "type": "error",
      "name": "Overflow",
      "inputs": []
    },
    {
      "type": "error",
      "name": "OwnableInvalidOwner",
      "inputs": [
        {
          "name": "owner",
          "type": "address",
          "internalType": "address"
        }
      ]
    },
    {
      "type": "error",
      "name": "OwnableUnauthorizedAccount",
      "inputs": [
        {
          "name": "account",
          "type": "address",
          "internalType": "address"
        }
      ]
    },
    {
      "type": "error",
      "name": "OwnerQueryForNonexistentToken",
      "inputs": []
    },
    {
      "type": "error",
      "name": "OwnershipNotInitializedForExtraData",
      "inputs": []
    },
    {
      "type": "error",
      "name": "SequentialMintExceedsLimit",
      "inputs": []
    },
    {
      "type": "error",
      "name": "SequentialUpToTooSmall",
      "inputs": []
    },
    {
      "type": "error",
      "name": "SpotMintTokenIdTooSmall",
      "inputs": []
    },
    {
      "type": "error",
      "name": "TokenAlreadyExists",
      "inputs": []
    },
    {
      "type": "error",
      "name": "TransferCallerNotOwnerNorApproved",
      "inputs": []
    },
    {
      "type": "error",
      "name": "TransferFromIncorrectOwner",
      "inputs": []
    },
    {
      "type": "error",
      "name": "TransferToNonERC721ReceiverImplementer",
      "inputs": []
    },
    {
      "type": "error",
      "name": "TransferToZeroAddress",
      "inputs": []
    },
    {
      "type": "error",
      "name": "URIQueryForNonexistentToken",
      "inputs": []
    }
  ],
  "bytecode": {
    "object": "0x60806040523480156200001157600080fd5b50604051620026c6380380620026c683398101604081905262000034916200016a565b336040518060400160405280600c81526020016b486f6e657947656e6573697360a01b8152506040518060400160405280600c81526020016b484f4e455947454e4553495360a01b8152508160029081620000909190620002d0565b5060036200009f8282620002d0565b50600160005550506001600160a01b038116620000d657604051631e4fbdf760e01b81526000600482015260240160405180910390fd5b620000e18162000102565b506000600a819055600b55600c620000fa8282620002d0565b50506200039c565b600980546001600160a01b038381166001600160a01b0319831681179093556040519116919082907f8be0079c531659141344cd1fd0a4f28419497f9722a3daafe3b4186f6b6457e090600090a35050565b634e487b7160e01b600052604160045260246000fd5b600060208083850312156200017e57600080fd5b82516001600160401b03808211156200019657600080fd5b818501915085601f830112620001ab57600080fd5b815181811115620001c057620001c062000154565b604051601f8201601f19908116603f01168101908382118183101715620001eb57620001eb62000154565b8160405282815288868487010111156200020457600080fd5b600093505b8284101562000228578484018601518185018701529285019262000209565b600086848301015280965050505050505092915050565b600181811c908216806200025457607f821691505b6020821081036200027557634e487b7160e01b600052602260045260246000fd5b50919050565b601f821115620002cb576000816000526020600020601f850160051c81016020861015620002a65750805b601f850160051c820191505b81811015620002c757828155600101620002b2565b5050505b505050565b81516001600160401b03811115620002ec57620002ec62000154565b6200030481620002fd84546200023f565b846200027b565b602080601f8311600181146200033c5760008415620003235750858301515b600019600386901b1c1916600185901b178555620002c7565b600085815260208120601f198616915b828110156200036d578886015182559484019460019091019084016200034c565b50858210156200038c5787850151600019600388901b60f8161c191681555b5050505050600190811b01905550565b61231a80620003ac6000396000f3fe6080604052600436106102255760003560e01c806370a0823111610123578063b6342d5e116100ab578063e985e9c51161006f578063e985e9c5146105ea578063eb91d37e1461060a578063ec6533e11461061f578063f2fde38b14610635578063fa9b70181461065557600080fd5b8063b6342d5e14610573578063b88d4fde1461058c578063c4039f6c1461059f578063c87b56dd146105b5578063e38f18f2146105d557600080fd5b806395d89b41116100f257806395d89b41146104e0578063a0712d68146104f5578063a22cb46514610508578063a690682714610528578063a75c3ad91461055e57600080fd5b806370a0823114610472578063715018a6146104925780638da5cb5b146104a757806391b8dbb3146104c557600080fd5b806331408098116101b1578063489313521161017557806348931352146103ee57806355f804b3146104035780636352211e146104235780636c0360eb146104435780636d25d8021461045857600080fd5b806331408098146103725780633ccfd60b146103865780633db190351461039b57806342842e0e146103bb57806342c4753e146103ce57600080fd5b806318160ddd116101f857806318160ddd146102ce5780631a0aa6db146102fa578063231931bd1461030d57806323b872dd146103205780632a55205a1461033357600080fd5b806301ffc9a71461022a57806306fdde031461025f578063081812fc14610281578063095ea7b3146102b9575b600080fd5b34801561023657600080fd5b5061024a610245366004611c9c565b61066a565b60405190151581526020015b60405180910390f35b34801561026b57600080fd5b50610274610695565b6040516102569190611d09565b34801561028d57600080fd5b506102a161029c366004611d1c565b610727565b6040516001600160a01b039091168152602001610256565b6102cc6102c7366004611d4c565b610762565b005b3480156102da57600080fd5b506102ec600154600054036000190190565b604051908152602001610256565b6102cc610308366004611d1c565b610772565b6102cc61031b366004611d1c565b6109ff565b6102cc61032e366004611d76565b610c1f565b34801561033f57600080fd5b5061035361034e366004611db2565b610d80565b604080516001600160a01b039093168352602083019190915201610256565b34801561037e57600080fd5b50600a6102ec565b34801561039257600080fd5b506102cc610db8565b3480156103a757600080fd5b506102cc6103b6366004611d4c565b610f5d565b6102cc6103c9366004611d76565b610f8e565b3480156103da57600080fd5b506102cc6103e9366004611e19565b610fae565b3480156103fa57600080fd5b506102ec606481565b34801561040f57600080fd5b506102cc61041e366004611f11565b6110e5565b34801561042f57600080fd5b506102a161043e366004611d1c565b61112d565b34801561044f57600080fd5b50610274611138565b34801561046457600080fd5b506102ec653faa2522600081565b34801561047e57600080fd5b506102ec61048d366004611f5a565b6111c6565b34801561049e57600080fd5b506102cc61120c565b3480156104b357600080fd5b506009546001600160a01b03166102a1565b3480156104d157600080fd5b506102ec66027ca57357c00081565b3480156104ec57600080fd5b50610274611220565b6102cc610503366004611d1c565b61122f565b34801561051457600080fd5b506102cc610523366004611f75565b6113ea565b34801561053457600080fd5b506102ec610543366004611f5a565b6001600160a01b03166000908152600d602052604090205490565b34801561056a57600080fd5b506102cc611456565b34801561057f57600080fd5b50653ec1507d50006102ec565b6102cc61059a366004611fb1565b6115f6565b3480156105ab57600080fd5b506102ec600a5481565b3480156105c157600080fd5b506102746105d0366004611d1c565b611631565b3480156105e157600080fd5b506102ec6116ac565b3480156105f657600080fd5b5061024a61060536600461202d565b6116f0565b34801561061657600080fd5b506102ec61171e565b34801561062b57600080fd5b506102ec600b5481565b34801561064157600080fd5b506102cc610650366004611f5a565b611730565b34801561066157600080fd5b506102ec600a81565b60006001600160e01b0319821663152a902d60e11b148061068f575061068f8261176e565b92915050565b6060600280546106a490612057565b80601f01602080910402602001604051908101604052809291908181526020018280546106d090612057565b801561071d5780601f106106f25761010080835404028352916020019161071d565b820191906000526020600020905b81548152906001019060200180831161070057829003601f168201915b5050505050905090565b6000610732826117bc565b610746576107466333d1c03960e21b61180a565b506000908152600660205260409020546001600160a01b031690565b61076e82826001611814565b5050565b600061077f600a546118b7565b9050600061078d83836120a7565b905060006107a2846603328b944c40006120a7565b60646107af8460036120a7565b6107b991906120be565b6107c391906120e0565b905060006107d182846120e0565b9050803410156108025760405163c108422360e01b8152600481018290523460248201526044015b60405180910390fd5b606485600a5461081291906120e0565b111561084a5784600a54606461082891906120f3565b60405163adc3cee560e01b8152600481019290925260248201526044016107f9565b336000908152600d602090815260408083205460059092529182902054600a921c67ffffffffffffffff1661087f90886120e0565b61088991906120f3565b11156108d15760405162461bcd60e51b8152602060048201526017602482015276115e18d959591cc81b585e081b5a5b9d08185b5bdd5b9d604a1b60448201526064016107f9565b7335a11e99e7b8aaab4c8d84bcefec2a63c9ef3e916000908152600e6020526000805160206122c5833981519152805485929061090f9084906120e0565b90915550507335a11e99e7b8aaab4c8d84bcefec2a63c9ef3e916000908152600e6020526000805160206122c583398151915280548492906109529084906120e0565b90915550610962905033866118f3565b84600a600082825461097491906120e0565b90915550506040805186815234602082015233917f3a8a89b59a31c39a36febecb987e0657ab7b7c73b60ebacb44dcb9886c2d5c8a91015b60405180910390a260006109c082346120f3565b905080156109f757604051339082156108fc029083906000818181858888f193505050501580156109f5573d6000803e3d6000fd5b505b505050505050565b336000610a12653ec1507d5000846120a7565b90506000610a27846603328b944c40006120a7565b90506000610a3582846120e0565b905080341015610a615760405163c108422360e01b8152600481018290523460248201526044016107f9565b600a85600b54610a7191906120e0565b1115610aa95784600b54600a610a8791906120f3565b604051631b1b5a2360e01b8152600481019290925260248201526044016107f9565b6001600160a01b0384166000908152600d6020526040902054851115610b0a5760405162461bcd60e51b81526020600482015260166024820152754578636565647320564950206d696e742071756f746160501b60448201526064016107f9565b6001600160a01b0384166000908152600d602052604081208054879290610b329084906120f3565b90915550507335a11e99e7b8aaab4c8d84bcefec2a63c9ef3e916000908152600e6020526000805160206122c58339815191528054859290610b759084906120e0565b90915550507335a11e99e7b8aaab4c8d84bcefec2a63c9ef3e916000908152600e6020526000805160206122c58339815191528054849290610bb89084906120e0565b90915550610bc8905033866118f3565b84600b6000828254610bda91906120e0565b9091555050604080518681523460208201526001600160a01b038616917f3a8a89b59a31c39a36febecb987e0657ab7b7c73b60ebacb44dcb9886c2d5c8a91016109ac565b6000610c2a8261190d565b6001600160a01b039485169490915081168414610c5057610c5062a1148160e81b61180a565b60008281526006602052604090208054338082146001600160a01b03881690911417610c9457610c8086336116f0565b610c9457610c94632ce44b5f60e11b61180a565b8015610c9f57600082555b6001600160a01b038681166000908152600560205260408082208054600019019055918716808252919020805460010190554260a01b17600160e11b17600085815260046020526040812091909155600160e11b84169003610d3157600184016000818152600460205260408120549003610d2f576000548114610d2f5760008181526004602052604090208490555b505b6001600160a01b0385168481887fddf252ad1be2c89b69c2b068fc378daa952ba7f163c4a11628f55a4df523b3ef600080a480600003610d7b57610d7b633a954ecd60e21b61180a565b6109f5565b7335a11e99e7b8aaab4c8d84bcefec2a63c9ef3e9160006064610da48460056120a7565b610dae91906120be565b90505b9250929050565b610dc06119ae565b7335a11e99e7b8aaab4c8d84bcefec2a63c9ef3e91600052600e6020526000805160206122c583398151915254610e305760405162461bcd60e51b81526020600482015260146024820152734e6f2066756e647320746f20776974686472617760601b60448201526064016107f9565b7335a11e99e7b8aaab4c8d84bcefec2a63c9ef3e916000818152600e6020526000805160206122c5833981519152805490829055604051909283929183908381818185875af1925050503d8060008114610ea6576040519150601f19603f3d011682016040523d82523d6000602084013e610eab565b606091505b50506040519091506000907335a11e99e7b8aaab4c8d84bcefec2a63c9ef3e919084908381818185875af1925050503d8060008114610f06576040519150601f19603f3d011682016040523d82523d6000602084013e610f0b565b606091505b50509050818015610f195750805b610f575760405162461bcd60e51b815260206004820152600f60248201526e151c985b9cd9995c8819985a5b1959608a1b60448201526064016107f9565b50505050565b6001600160a01b0382166000908152600d602052604081208054839290610f859084906120e0565b90915550505050565b610fa9838383604051806020016040528060008152506115f6565b505050565b610fb66119ae565b82811461101f5760405162461bcd60e51b815260206004820152603160248201527f5573657220616e6420616d6f756e7420617272617973206d757374206265206f6044820152700cc40e8d0ca40e6c2daca40d8cadccee8d607b1b60648201526084016107f9565b6000805b828110156110595783838281811061103d5761103d612106565b905060200201358261104f91906120e0565b9150600101611023565b5060005b848110156109f75783838281811061107757611077612106565b90506020020135600d600088888581811061109457611094612106565b90506020020160208101906110a99190611f5a565b6001600160a01b03166001600160a01b0316815260200190815260200160002060008282546110d891906120e0565b909155505060010161105d565b6110ed6119ae565b600c6110f98282612164565b50604051600019906001907f6bd5c950a8d8df17f772f5af37cb3655737899cbf903264b9795592da439661c90600090a350565b600061068f8261190d565b600c805461114590612057565b80601f016020809104026020016040519081016040528092919081815260200182805461117190612057565b80156111be5780601f10611193576101008083540402835291602001916111be565b820191906000526020600020905b8154815290600101906020018083116111a157829003601f168201915b505050505081565b60006001600160a01b0382166111e6576111e66323d3ad8160e21b61180a565b506001600160a01b031660009081526005602052604090205467ffffffffffffffff1690565b6112146119ae565b61121e60006119db565b565b6060600380546106a490612057565b60003390506000611241600a546118b7565b61124b90846120a7565b90506000611260846603328b944c40006120a7565b9050600061126e82846120e0565b90508034101561129a5760405163c108422360e01b8152600481018290523460248201526044016107f9565b606485600a546112aa91906120e0565b11156112c05784600a54606461082891906120f3565b336000908152600d602090815260408083205460059092529182902054600a921c67ffffffffffffffff166112f590886120e0565b6112ff91906120f3565b11156113475760405162461bcd60e51b8152602060048201526017602482015276115e18d959591cc81b585e081b5a5b9d08185b5bdd5b9d604a1b60448201526064016107f9565b7335a11e99e7b8aaab4c8d84bcefec2a63c9ef3e916000908152600e6020526000805160206122c583398151915280548592906113859084906120e0565b90915550507335a11e99e7b8aaab4c8d84bcefec2a63c9ef3e916000908152600e6020526000805160206122c583398151915280548492906113c89084906120e0565b909155506113d8905033866118f3565b84600a6000828254610bda91906120e0565b3360008181526007602090815260408083206001600160a01b03871680855290835292819020805460ff191686151590811790915590519081529192917f17307eab39ab6107e8899845ad3d59bd9653f200f220920489ca2b5937696c31910160405180910390a35050565b7335a11e99e7b8aaab4c8d84bcefec2a63c9ef3e901933016114ca5760405162461bcd60e51b815260206004820152602760248201527f556e617574686f72697a65642c206e6f7420746865204b696e67646f6d6c79206044820152664164647265737360c81b60648201526084016107f9565b7335a11e99e7b8aaab4c8d84bcefec2a63c9ef3e91600052600e6020526000805160206122c58339815191525461153a5760405162461bcd60e51b81526020600482015260146024820152734e6f2066756e647320746f20776974686472617760601b60448201526064016107f9565b7335a11e99e7b8aaab4c8d84bcefec2a63c9ef3e916000818152600e6020526000805160206122c583398151915280549082905560405190929083908381818185875af1925050503d80600081146115ae576040519150601f19603f3d011682016040523d82523d6000602084013e6115b3565b606091505b505090508061076e5760405162461bcd60e51b815260206004820152600f60248201526e151c985b9cd9995c8819985a5b1959608a1b60448201526064016107f9565b611601848484610c1f565b6001600160a01b0383163b15610f575761161d84848484611a2d565b610f5757610f576368d2bf6b60e11b61180a565b606061163c826117bc565b61165057611650630a14c4b560e41b61180a565b600061165a611b10565b9050805160000361167a57604051806020016040528060008152506116a5565b8061168484611b1f565b604051602001611695929190612224565b6040516020818303038152906040525b9392505050565b600080600a80546116bd91906120e0565b905060648111156116e157604051631a93c68960e11b815260040160405180910390fd5b6116ea816118b7565b91505090565b6001600160a01b03918216600090815260076020908152604080832093909416825291909152205460ff1690565b600061172b600a546118b7565b905090565b6117386119ae565b6001600160a01b03811661176257604051631e4fbdf760e01b8152600060048201526024016107f9565b61176b816119db565b50565b60006301ffc9a760e01b6001600160e01b03198316148061179f57506380ac58cd60e01b6001600160e01b03198316145b8061068f5750506001600160e01b031916635b5e139f60e01b1490565b600081600111611805576000548210156118055760005b50600082815260046020526040812054908190036117fb576117f483612253565b92506117d3565b600160e01b161590505b919050565b8060005260046000fd5b600061181f8361112d565b90508180156118375750336001600160a01b03821614155b1561185a5761184681336116f0565b61185a5761185a6367d9dca160e11b61180a565b60008381526006602052604080822080546001600160a01b0319166001600160a01b0388811691821790925591518693918516917f8c5be1e5ebec7d5bd14f71427d1e84f3dd0314c0f7b2291e5b200ac8c7c3b92591a450505050565b6000806118c5600a846120be565b6118d09060016120e0565b90506118e2653faa25226000826120a7565b6116a59066027ca57357c0006120e0565b61076e828260405180602001604052806000815250611b63565b60008160011161199e57506000818152600460205260409020548060000361198b57600054821061194857611948636f96cda160e11b61180a565b5b5060001901600081815260046020526040902054801561194957600160e01b811660000361197657919050565b611986636f96cda160e11b61180a565b611949565b600160e01b811660000361199e57919050565b611805636f96cda160e11b61180a565b6009546001600160a01b0316331461121e5760405163118cdaa760e01b81523360048201526024016107f9565b600980546001600160a01b038381166001600160a01b0319831681179093556040519116919082907f8be0079c531659141344cd1fd0a4f28419497f9722a3daafe3b4186f6b6457e090600090a35050565b604051630a85bd0160e11b81526000906001600160a01b0385169063150b7a0290611a6290339089908890889060040161226a565b6020604051808303816000875af1925050508015611a9d575060408051601f3d908101601f19168201909252611a9a918101906122a7565b60015b611af2573d808015611acb576040519150601f19603f3d011682016040523d82523d6000602084013e611ad0565b606091505b508051600003611aea57611aea6368d2bf6b60e11b61180a565b805181602001fd5b6001600160e01b031916630a85bd0160e11b1490505b949350505050565b6060600c80546106a490612057565b606060a06040510180604052602081039150506000815280825b600183039250600a81066030018353600a900480611b395750819003601f19909101908152919050565b611b6d8383611bc7565b6001600160a01b0383163b15610fa9576000548281035b611b976000868380600101945086611a2d565b611bab57611bab6368d2bf6b60e11b61180a565b818110611b84578160005414611bc057600080fd5b5050505050565b6000805490829003611be357611be363b562e8dd60e01b61180a565b60008181526004602090815260408083206001600160a01b0387164260a01b6001881460e11b17811790915580845260059092528220805468010000000000000001860201905590819003611c4157611c41622e076360e81b61180a565b818301825b808360007fddf252ad1be2c89b69c2b068fc378daa952ba7f163c4a11628f55a4df523b3ef600080a4818160010191508103611c46575060005550505050565b6001600160e01b03198116811461176b57600080fd5b600060208284031215611cae57600080fd5b81356116a581611c86565b60005b83811015611cd4578181015183820152602001611cbc565b50506000910152565b60008151808452611cf5816020860160208601611cb9565b601f01601f19169290920160200192915050565b6020815260006116a56020830184611cdd565b600060208284031215611d2e57600080fd5b5035919050565b80356001600160a01b038116811461180557600080fd5b60008060408385031215611d5f57600080fd5b611d6883611d35565b946020939093013593505050565b600080600060608486031215611d8b57600080fd5b611d9484611d35565b9250611da260208501611d35565b9150604084013590509250925092565b60008060408385031215611dc557600080fd5b50508035926020909101359150565b60008083601f840112611de657600080fd5b50813567ffffffffffffffff811115611dfe57600080fd5b6020830191508360208260051b8501011115610db157600080fd5b60008060008060408587031215611e2f57600080fd5b843567ffffffffffffffff80821115611e4757600080fd5b611e5388838901611dd4565b90965094506020870135915080821115611e6c57600080fd5b50611e7987828801611dd4565b95989497509550505050565b634e487b7160e01b600052604160045260246000fd5b600067ffffffffffffffff80841115611eb657611eb6611e85565b604051601f8501601f19908116603f01168101908282118183101715611ede57611ede611e85565b81604052809350858152868686011115611ef757600080fd5b858560208301376000602087830101525050509392505050565b600060208284031215611f2357600080fd5b813567ffffffffffffffff811115611f3a57600080fd5b8201601f81018413611f4b57600080fd5b611b0884823560208401611e9b565b600060208284031215611f6c57600080fd5b6116a582611d35565b60008060408385031215611f8857600080fd5b611f9183611d35565b915060208301358015158114611fa657600080fd5b809150509250929050565b60008060008060808587031215611fc757600080fd5b611fd085611d35565b9350611fde60208601611d35565b925060408501359150606085013567ffffffffffffffff81111561200157600080fd5b8501601f8101871361201257600080fd5b61202187823560208401611e9b565b91505092959194509250565b6000806040838503121561204057600080fd5b61204983611d35565b9150610dae60208401611d35565b600181811c9082168061206b57607f821691505b60208210810361208b57634e487b7160e01b600052602260045260246000fd5b50919050565b634e487b7160e01b600052601160045260246000fd5b808202811582820484141761068f5761068f612091565b6000826120db57634e487b7160e01b600052601260045260246000fd5b500490565b8082018082111561068f5761068f612091565b8181038181111561068f5761068f612091565b634e487b7160e01b600052603260045260246000fd5b601f821115610fa9576000816000526020600020601f850160051c810160208610156121455750805b601f850160051c820191505b818110156109f757828155600101612151565b815167ffffffffffffffff81111561217e5761217e611e85565b6121928161218c8454612057565b8461211c565b602080601f8311600181146121c757600084156121af5750858301515b600019600386901b1c1916600185901b1785556109f7565b600085815260208120601f198616915b828110156121f6578886015182559484019460019091019084016121d7565b50858210156122145787850151600019600388901b60f8161c191681555b5050505050600190811b01905550565b60008351612236818460208801611cb9565b83519083019061224a818360208801611cb9565b01949350505050565b60008161226257612262612091565b506000190190565b6001600160a01b038581168252841660208201526040810183905260806060820181905260009061229d90830184611cdd565b9695505050505050565b6000602082840312156122b957600080fd5b81516116a581611c8656fe151580dcb68c17835d94a4a2e4e71e2b8583d4436017e6c8ace87774199e7b89a26469706673582212201167db65d6e1395169a66f02829678d4a94bcb81da1c2837110f8dfcb42f295164736f6c63430008180033",
    "linkReferences": {}
  },
  "methodIdentifiers": {
    "MAX_MINT_AMOUNT()": "fa9b7018",
    "MINT_UNIT_PRICE()": "91b8dbb3",
    "PRICE_INCREMENT()": "6d25d802",
    "TOTAL_SUPPLY_CAP()": "48931352",
    "addVIPMinterTestnet(address,uint256)": "3db19035",
    "approve(address,uint256)": "095ea7b3",
    "balanceOf(address)": "70a08231",
    "baseURI()": "6c0360eb",
    "getApproved(uint256)": "081812fc",
    "getCurrentPrice()": "eb91d37e",
    "getNextNFTPrice()": "e38f18f2",
    "getTotalVIPNFTCount()": "31408098",
    "getVIPMintQuota(address)": "a6906827",
    "getVIPPrice()": "b6342d5e",
    "incrementVIPMintQuota(address[],uint256[])": "42c4753e",
    "isApprovedForAll(address,address)": "e985e9c5",
    "mint(uint256)": "a0712d68",
    "mintVIP(uint256)": "231931bd",
    "mintbyKingdomly(uint256)": "1a0aa6db",
    "name()": "06fdde03",
    "owner()": "8da5cb5b",
    "ownerOf(uint256)": "6352211e",
    "renounceOwnership()": "715018a6",
    "royaltyInfo(uint256,uint256)": "2a55205a",
    "safeTransferFrom(address,address,uint256)": "42842e0e",
    "safeTransferFrom(address,address,uint256,bytes)": "b88d4fde",
    "setApprovalForAll(address,bool)": "a22cb465",
    "setBaseURI(string)": "55f804b3",
    "supportsInterface(bytes4)": "01ffc9a7",
    "symbol()": "95d89b41",
    "tokenCountNormal()": "c4039f6c",
    "tokenCountVIP()": "ec6533e1",
    "tokenURI(uint256)": "c87b56dd",
    "totalSupply()": "18160ddd",
    "transferFrom(address,address,uint256)": "23b872dd",
    "transferOwnership(address)": "f2fde38b",
    "withdraw()": "3ccfd60b",
    "withdrawFeeFunds()": "a75c3ad9"
  },
  "id": 40
}