{
  "abi": [
    {
      "type": "constructor",
      "inputs": [],
      "stateMutability": "nonpayable"
    },
    {
      "type": "function",
      "name": "addVIPMinter",
      "inputs": [
        {
          "name": "minter",
          "type": "address",
          "internalType": "address"
        },
        {
          "name": "amount",
          "type": "uint256",
          "internalType": "uint256"
        }
      ],
      "outputs": [],
      "stateMutability": "nonpayable"
    },
    {
      "type": "function",
      "name": "addVIPMinterTestnet",
      "inputs": [
        {
          "name": "minter",
          "type": "address",
          "internalType": "address"
        },
        {
          "name": "amount",
          "type": "uint256",
          "internalType": "uint256"
        }
      ],
      "outputs": [],
      "stateMutability": "nonpayable"
    },
    {
      "type": "function",
      "name": "approve",
      "inputs": [
        {
          "name": "to",
          "type": "address",
          "internalType": "address"
        },
        {
          "name": "tokenId",
          "type": "uint256",
          "internalType": "uint256"
        }
      ],
      "outputs": [],
      "stateMutability": "payable"
    },
    {
      "type": "function",
      "name": "balanceOf",
      "inputs": [
        {
          "name": "owner",
          "type": "address",
          "internalType": "address"
        }
      ],
      "outputs": [
        {
          "name": "",
          "type": "uint256",
          "internalType": "uint256"
        }
      ],
      "stateMutability": "view"
    },
    {
      "type": "function",
      "name": "getApproved",
      "inputs": [
        {
          "name": "tokenId",
          "type": "uint256",
          "internalType": "uint256"
        }
      ],
      "outputs": [
        {
          "name": "",
          "type": "address",
          "internalType": "address"
        }
      ],
      "stateMutability": "view"
    },
    {
      "type": "function",
      "name": "getCurrentPrice",
      "inputs": [],
      "outputs": [
        {
          "name": "",
          "type": "uint256",
          "internalType": "uint256"
        }
      ],
      "stateMutability": "view"
    },
    {
      "type": "function",
      "name": "getMintedNFTsCount",
      "inputs": [],
      "outputs": [
        {
          "name": "",
          "type": "uint256",
          "internalType": "uint256"
        }
      ],
      "stateMutability": "view"
    },
    {
      "type": "function",
      "name": "getMintedVIPNFTsCount",
      "inputs": [],
      "outputs": [
        {
          "name": "",
          "type": "uint256",
          "internalType": "uint256"
        }
      ],
      "stateMutability": "view"
    },
    {
      "type": "function",
      "name": "getNextNFTPrice",
      "inputs": [],
      "outputs": [
        {
          "name": "",
          "type": "uint256",
          "internalType": "uint256"
        }
      ],
      "stateMutability": "view"
    },
    {
      "type": "function",
      "name": "getTotalNFTCount",
      "inputs": [],
      "outputs": [
        {
          "name": "",
          "type": "uint256",
          "internalType": "uint256"
        }
      ],
      "stateMutability": "pure"
    },
    {
      "type": "function",
      "name": "getTotalVIPNFTCount",
      "inputs": [],
      "outputs": [
        {
          "name": "",
          "type": "uint256",
          "internalType": "uint256"
        }
      ],
      "stateMutability": "pure"
    },
    {
      "type": "function",
      "name": "getVIPMintQuota",
      "inputs": [
        {
          "name": "user",
          "type": "address",
          "internalType": "address"
        }
      ],
      "outputs": [
        {
          "name": "",
          "type": "uint256",
          "internalType": "uint256"
        }
      ],
      "stateMutability": "view"
    },
    {
      "type": "function",
      "name": "getVIPPrice",
      "inputs": [],
      "outputs": [
        {
          "name": "",
          "type": "uint256",
          "internalType": "uint256"
        }
      ],
      "stateMutability": "pure"
    },
    {
      "type": "function",
      "name": "isApprovedForAll",
      "inputs": [
        {
          "name": "owner",
          "type": "address",
          "internalType": "address"
        },
        {
          "name": "operator",
          "type": "address",
          "internalType": "address"
        }
      ],
      "outputs": [
        {
          "name": "",
          "type": "bool",
          "internalType": "bool"
        }
      ],
      "stateMutability": "view"
    },
    {
      "type": "function",
      "name": "mint",
      "inputs": [
        {
          "name": "amount",
          "type": "uint256",
          "internalType": "uint256"
        }
      ],
      "outputs": [],
      "stateMutability": "payable"
    },
    {
      "type": "function",
      "name": "mintVIP",
      "inputs": [
        {
          "name": "amount",
          "type": "uint256",
          "internalType": "uint256"
        }
      ],
      "outputs": [],
      "stateMutability": "payable"
    },
    {
      "type": "function",
      "name": "mintbyKingdomly",
      "inputs": [
        {
          "name": "amount",
          "type": "uint256",
          "internalType": "uint256"
        }
      ],
      "outputs": [],
      "stateMutability": "payable"
    },
    {
      "type": "function",
      "name": "name",
      "inputs": [],
      "outputs": [
        {
          "name": "",
          "type": "string",
          "internalType": "string"
        }
      ],
      "stateMutability": "view"
    },
    {
      "type": "function",
      "name": "owner",
      "inputs": [],
      "outputs": [
        {
          "name": "",
          "type": "address",
          "internalType": "address"
        }
      ],
      "stateMutability": "view"
    },
    {
      "type": "function",
      "name": "ownerOf",
      "inputs": [
        {
          "name": "tokenId",
          "type": "uint256",
          "internalType": "uint256"
        }
      ],
      "outputs": [
        {
          "name": "",
          "type": "address",
          "internalType": "address"
        }
      ],
      "stateMutability": "view"
    },
    {
      "type": "function",
      "name": "renounceOwnership",
      "inputs": [],
      "outputs": [],
      "stateMutability": "nonpayable"
    },
    {
      "type": "function",
      "name": "royaltyInfo",
      "inputs": [
        {
          "name": "",
          "type": "uint256",
          "internalType": "uint256"
        },
        {
          "name": "salePrice",
          "type": "uint256",
          "internalType": "uint256"
        }
      ],
      "outputs": [
        {
          "name": "receiver",
          "type": "address",
          "internalType": "address"
        },
        {
          "name": "royaltyAmount",
          "type": "uint256",
          "internalType": "uint256"
        }
      ],
      "stateMutability": "view"
    },
    {
      "type": "function",
      "name": "safeTransferFrom",
      "inputs": [
        {
          "name": "from",
          "type": "address",
          "internalType": "address"
        },
        {
          "name": "to",
          "type": "address",
          "internalType": "address"
        },
        {
          "name": "tokenId",
          "type": "uint256",
          "internalType": "uint256"
        }
      ],
      "outputs": [],
      "stateMutability": "payable"
    },
    {
      "type": "function",
      "name": "safeTransferFrom",
      "inputs": [
        {
          "name": "from",
          "type": "address",
          "internalType": "address"
        },
        {
          "name": "to",
          "type": "address",
          "internalType": "address"
        },
        {
          "name": "tokenId",
          "type": "uint256",
          "internalType": "uint256"
        },
        {
          "name": "_data",
          "type": "bytes",
          "internalType": "bytes"
        }
      ],
      "outputs": [],
      "stateMutability": "payable"
    },
    {
      "type": "function",
      "name": "setApprovalForAll",
      "inputs": [
        {
          "name": "operator",
          "type": "address",
          "internalType": "address"
        },
        {
          "name": "approved",
          "type": "bool",
          "internalType": "bool"
        }
      ],
      "outputs": [],
      "stateMutability": "nonpayable"
    },
    {
      "type": "function",
      "name": "supportsInterface",
      "inputs": [
        {
          "name": "interfaceId",
          "type": "bytes4",
          "internalType": "bytes4"
        }
      ],
      "outputs": [
        {
          "name": "",
          "type": "bool",
          "internalType": "bool"
        }
      ],
      "stateMutability": "view"
    },
    {
      "type": "function",
      "name": "symbol",
      "inputs": [],
      "outputs": [
        {
          "name": "",
          "type": "string",
          "internalType": "string"
        }
      ],
      "stateMutability": "view"
    },
    {
      "type": "function",
      "name": "tokenCountNormal",
      "inputs": [],
      "outputs": [
        {
          "name": "",
          "type": "uint256",
          "internalType": "uint256"
        }
      ],
      "stateMutability": "view"
    },
    {
      "type": "function",
      "name": "tokenCountVIP",
      "inputs": [],
      "outputs": [
        {
          "name": "",
          "type": "uint256",
          "internalType": "uint256"
        }
      ],
      "stateMutability": "view"
    },
    {
      "type": "function",
      "name": "tokenURI",
      "inputs": [
        {
          "name": "tokenId",
          "type": "uint256",
          "internalType": "uint256"
        }
      ],
      "outputs": [
        {
          "name": "",
          "type": "string",
          "internalType": "string"
        }
      ],
      "stateMutability": "view"
    },
    {
      "type": "function",
      "name": "totalSupply",
      "inputs": [],
      "outputs": [
        {
          "name": "result",
          "type": "uint256",
          "internalType": "uint256"
        }
      ],
      "stateMutability": "view"
    },
    {
      "type": "function",
      "name": "transferFrom",
      "inputs": [
        {
          "name": "from",
          "type": "address",
          "internalType": "address"
        },
        {
          "name": "to",
          "type": "address",
          "internalType": "address"
        },
        {
          "name": "tokenId",
          "type": "uint256",
          "internalType": "uint256"
        }
      ],
      "outputs": [],
      "stateMutability": "payable"
    },
    {
      "type": "function",
      "name": "transferOwnership",
      "inputs": [
        {
          "name": "newOwner",
          "type": "address",
          "internalType": "address"
        }
      ],
      "outputs": [],
      "stateMutability": "nonpayable"
    },
    {
      "type": "function",
      "name": "withdraw",
      "inputs": [],
      "outputs": [],
      "stateMutability": "nonpayable"
    },
    {
      "type": "function",
      "name": "withdrawTestnet",
      "inputs": [],
      "outputs": [],
      "stateMutability": "nonpayable"
    },
    {
      "type": "event",
      "name": "Approval",
      "inputs": [
        {
          "name": "owner",
          "type": "address",
          "indexed": true,
          "internalType": "address"
        },
        {
          "name": "approved",
          "type": "address",
          "indexed": true,
          "internalType": "address"
        },
        {
          "name": "tokenId",
          "type": "uint256",
          "indexed": true,
          "internalType": "uint256"
        }
      ],
      "anonymous": false
    },
    {
      "type": "event",
      "name": "ApprovalForAll",
      "inputs": [
        {
          "name": "owner",
          "type": "address",
          "indexed": true,
          "internalType": "address"
        },
        {
          "name": "operator",
          "type": "address",
          "indexed": true,
          "internalType": "address"
        },
        {
          "name": "approved",
          "type": "bool",
          "indexed": false,
          "internalType": "bool"
        }
      ],
      "anonymous": false
    },
    {
      "type": "event",
      "name": "ConsecutiveTransfer",
      "inputs": [
        {
          "name": "fromTokenId",
          "type": "uint256",
          "indexed": true,
          "internalType": "uint256"
        },
        {
          "name": "toTokenId",
          "type": "uint256",
          "indexed": false,
          "internalType": "uint256"
        },
        {
          "name": "from",
          "type": "address",
          "indexed": true,
          "internalType": "address"
        },
        {
          "name": "to",
          "type": "address",
          "indexed": true,
          "internalType": "address"
        }
      ],
      "anonymous": false
    },
    {
      "type": "event",
      "name": "FundWithdrawn",
      "inputs": [
        {
          "name": "owner",
          "type": "address",
          "indexed": false,
          "internalType": "address"
        },
        {
          "name": "amount",
          "type": "uint256",
          "indexed": false,
          "internalType": "uint256"
        }
      ],
      "anonymous": false
    },
    {
      "type": "event",
      "name": "NFTMinted",
      "inputs": [
        {
          "name": "minter",
          "type": "address",
          "indexed": true,
          "internalType": "address"
        },
        {
          "name": "amount",
          "type": "uint256",
          "indexed": false,
          "internalType": "uint256"
        },
        {
          "name": "value",
          "type": "uint256",
          "indexed": false,
          "internalType": "uint256"
        }
      ],
      "anonymous": false
    },
    {
      "type": "event",
      "name": "OwnershipTransferred",
      "inputs": [
        {
          "name": "previousOwner",
          "type": "address",
          "indexed": true,
          "internalType": "address"
        },
        {
          "name": "newOwner",
          "type": "address",
          "indexed": true,
          "internalType": "address"
        }
      ],
      "anonymous": false
    },
    {
      "type": "event",
      "name": "Transfer",
      "inputs": [
        {
          "name": "from",
          "type": "address",
          "indexed": true,
          "internalType": "address"
        },
        {
          "name": "to",
          "type": "address",
          "indexed": true,
          "internalType": "address"
        },
        {
          "name": "tokenId",
          "type": "uint256",
          "indexed": true,
          "internalType": "uint256"
        }
      ],
      "anonymous": false
    },
    {
      "type": "error",
      "name": "ApprovalCallerNotOwnerNorApproved",
      "inputs": []
    },
    {
      "type": "error",
      "name": "ApprovalQueryForNonexistentToken",
      "inputs": []
    },
    {
      "type": "error",
      "name": "BalanceQueryForZeroAddress",
      "inputs": []
    },
    {
      "type": "error",
      "name": "ExceedsMaxAvailable",
      "inputs": [
        {
          "name": "requested",
          "type": "uint256",
          "internalType": "uint256"
        },
        {
          "name": "available",
          "type": "uint256",
          "internalType": "uint256"
        }
      ]
    },
    {
      "type": "error",
      "name": "ExceedsMaxSupply",
      "inputs": [
        {
          "name": "requested",
          "type": "uint256",
          "internalType": "uint256"
        },
        {
          "name": "available",
          "type": "uint256",
          "internalType": "uint256"
        }
      ]
    },
    {
      "type": "error",
      "name": "ExceedsVIPMaxSupply",
      "inputs": [
        {
          "name": "requested",
          "type": "uint256",
          "internalType": "uint256"
        },
        {
          "name": "available",
          "type": "uint256",
          "internalType": "uint256"
        }
      ]
    },
    {
      "type": "error",
      "name": "InsufficientEther",
      "inputs": [
        {
          "name": "required",
          "type": "uint256",
          "internalType": "uint256"
        },
        {
          "name": "provided",
          "type": "uint256",
          "internalType": "uint256"
        }
      ]
    },
    {
      "type": "error",
      "name": "MintERC2309QuantityExceedsLimit",
      "inputs": []
    },
    {
      "type": "error",
      "name": "MintToZeroAddress",
      "inputs": []
    },
    {
      "type": "error",
      "name": "MintZeroQuantity",
      "inputs": []
    },
    {
      "type": "error",
      "name": "NotCompatibleWithSpotMints",
      "inputs": []
    },
    {
      "type": "error",
      "name": "Overflow",
      "inputs": []
    },
    {
      "type": "error",
      "name": "OwnableInvalidOwner",
      "inputs": [
        {
          "name": "owner",
          "type": "address",
          "internalType": "address"
        }
      ]
    },
    {
      "type": "error",
      "name": "OwnableUnauthorizedAccount",
      "inputs": [
        {
          "name": "account",
          "type": "address",
          "internalType": "address"
        }
      ]
    },
    {
      "type": "error",
      "name": "OwnerQueryForNonexistentToken",
      "inputs": []
    },
    {
      "type": "error",
      "name": "OwnershipNotInitializedForExtraData",
      "inputs": []
    },
    {
      "type": "error",
      "name": "SequentialMintExceedsLimit",
      "inputs": []
    },
    {
      "type": "error",
      "name": "SequentialUpToTooSmall",
      "inputs": []
    },
    {
      "type": "error",
      "name": "SpotMintTokenIdTooSmall",
      "inputs": []
    },
    {
      "type": "error",
      "name": "TokenAlreadyExists",
      "inputs": []
    },
    {
      "type": "error",
      "name": "TransferCallerNotOwnerNorApproved",
      "inputs": []
    },
    {
      "type": "error",
      "name": "TransferFromIncorrectOwner",
      "inputs": []
    },
    {
      "type": "error",
      "name": "TransferToNonERC721ReceiverImplementer",
      "inputs": []
    },
    {
      "type": "error",
      "name": "TransferToZeroAddress",
      "inputs": []
    },
    {
      "type": "error",
      "name": "URIQueryForNonexistentToken",
      "inputs": []
    }
  ],
  "bytecode": {
    "object": "0x60806040523480156200001157600080fd5b50336040518060400160405280600c81526020016b486f6e657947656e6573697360a01b81525060405180604001604052806005815260200164484f4e455960d81b8152508160029081620000679190620001c1565b506003620000768282620001c1565b505060008055506001600160a01b038116620000ac57604051631e4fbdf760e01b81526000600482015260240160405180910390fd5b620000b781620000c8565b506000600a819055600b556200028d565b600980546001600160a01b038381166001600160a01b0319831681179093556040519116919082907f8be0079c531659141344cd1fd0a4f28419497f9722a3daafe3b4186f6b6457e090600090a35050565b634e487b7160e01b600052604160045260246000fd5b600181811c908216806200014557607f821691505b6020821081036200016657634e487b7160e01b600052602260045260246000fd5b50919050565b601f821115620001bc576000816000526020600020601f850160051c81016020861015620001975750805b601f850160051c820191505b81811015620001b857828155600101620001a3565b5050505b505050565b81516001600160401b03811115620001dd57620001dd6200011a565b620001f581620001ee845462000130565b846200016c565b602080601f8311600181146200022d5760008415620002145750858301515b600019600386901b1c1916600185901b178555620001b8565b600085815260208120601f198616915b828110156200025e578886015182559484019460019091019084016200023d565b50858210156200027d5787850151600019600388901b60f8161c191681555b5050505050600190811b01905550565b611aa0806200029d6000396000f3fe6080604052600436106102045760003560e01c80638da5cb5b11610118578063c4039f6c116100a0578063e38f18f21161006f578063e38f18f21461056b578063e985e9c514610580578063eb91d37e146105a0578063ec6533e1146105b5578063f2fde38b146105cb57600080fd5b8063c4039f6c14610500578063c87b56dd14610516578063d5f129ad14610536578063dffab7e41461054b57600080fd5b8063a4f6c8ae116100e7578063a4f6c8ae14610474578063a690682714610489578063b6342d5e146104bf578063b88d4fde146104d8578063bc50c9c1146104eb57600080fd5b80638da5cb5b1461040e57806395d89b411461042c578063a0712d6814610441578063a22cb4651461045457600080fd5b80632660aabc1161019b5780633db190351161016a5780633db190351461038657806342842e0e146103a65780636352211e146103b957806370a08231146103d9578063715018a6146103f957600080fd5b80632660aabc146103095780632a55205a1461031e578063314080981461035d5780633ccfd60b1461037157600080fd5b806318160ddd116101d757806318160ddd146102ad5780631a0aa6db146102d0578063231931bd146102e357806323b872dd146102f657600080fd5b806301ffc9a71461020957806306fdde031461023e578063081812fc14610260578063095ea7b314610298575b600080fd5b34801561021557600080fd5b5061022961022436600461162d565b6105eb565b60405190151581526020015b60405180910390f35b34801561024a57600080fd5b50610253610616565b604051610235919061169a565b34801561026c57600080fd5b5061028061027b3660046116ad565b6106a8565b6040516001600160a01b039091168152602001610235565b6102ab6102a63660046116dd565b6106e3565b005b3480156102b957600080fd5b50600154600054035b604051908152602001610235565b6102ab6102de3660046116ad565b6106f3565b6102ab6102f13660046116ad565b6108c5565b6102ab610304366004611707565b610a88565b34801561031557600080fd5b50600b546102c2565b34801561032a57600080fd5b5061033e610339366004611743565b610be9565b604080516001600160a01b039093168352602083019190915201610235565b34801561036957600080fd5b5060326102c2565b34801561037d57600080fd5b506102ab610c20565b34801561039257600080fd5b506102ab6103a13660046116dd565b610d67565b6102ab6103b4366004611707565b610d98565b3480156103c557600080fd5b506102806103d43660046116ad565b610db8565b3480156103e557600080fd5b506102c26103f4366004611765565b610dc3565b34801561040557600080fd5b506102ab610e09565b34801561041a57600080fd5b506009546001600160a01b0316610280565b34801561043857600080fd5b50610253610e1d565b6102ab61044f3660046116ad565b610e2c565b34801561046057600080fd5b506102ab61046f366004611780565b610ef5565b34801561048057600080fd5b506102ab610c28565b34801561049557600080fd5b506102c26104a4366004611765565b6001600160a01b03166000908152600c602052604090205490565b3480156104cb57600080fd5b50650646880c88006102c2565b6102ab6104e63660046117d2565b610f61565b3480156104f757600080fd5b506103e86102c2565b34801561050c57600080fd5b506102c2600a5481565b34801561052257600080fd5b506102536105313660046116ad565b610f9c565b34801561054257600080fd5b50600a546102c2565b34801561055757600080fd5b506102ab6105663660046116dd565b611017565b34801561057757600080fd5b506102c261101f565b34801561058c57600080fd5b5061022961059b3660046118ae565b611065565b3480156105ac57600080fd5b506102c2611093565b3480156105c157600080fd5b506102c2600b5481565b3480156105d757600080fd5b506102ab6105e6366004611765565b6110a5565b60006001600160e01b0319821663152a902d60e11b14806106105750610610826110e3565b92915050565b606060028054610625906118d8565b80601f0160208091040260200160405190810160405280929190818152602001828054610651906118d8565b801561069e5780601f106106735761010080835404028352916020019161069e565b820191906000526020600020905b81548152906001019060200180831161068157829003601f168201915b5050505050905090565b60006106b382611131565b6106c7576106c76333d1c03960e21b611176565b506000908152600660205260409020546001600160a01b031690565b6106ef82826001611180565b5050565b6000610700600a54611223565b9050600061070e8383611928565b905060006107238466038d7ea4c68000611928565b6064610730846003611928565b61073a919061193f565b6107449190611961565b905060006107528284611961565b9050803410156107835760405163c108422360e01b8152600481018290523460248201526044015b60405180910390fd5b6103e885600a546107949190611961565b11156107cd5784600a546103e86107ab9190611974565b60405163adc3cee560e01b81526004810192909252602482015260440161077a565b336000908152600c60205260409020546107e890600a611961565b6107f13361125d565b6107fb9087611961565b11610836578461080a3361125d565b61081590600a611974565b60405162becc9760e81b81526004810192909252602482015260440161077a565b6108403386611286565b6040805186815234602082015233917f3a8a89b59a31c39a36febecb987e0657ab7b7c73b60ebacb44dcb9886c2d5c8a910160405180910390a260006108868234611974565b905080156108bd57604051339082156108fc029083906000818181858888f193505050501580156108bb573d6000803e3d6000fd5b505b505050505050565b3360006108d8650646880c880084611928565b9050803410156109045760405163c108422360e01b81526004810182905234602482015260440161077a565b603283600b546109149190611961565b111561094c5782600b54603261092a9190611974565b604051631b1b5a2360e01b81526004810192909252602482015260440161077a565b6001600160a01b0382166000908152600c60205260409020548311156109ad5760405162461bcd60e51b81526020600482015260166024820152754578636565647320564950206d696e742071756f746160501b604482015260640161077a565b6001600160a01b0382166000908152600c6020526040812080548592906109d5908490611974565b909155506109e590503384611286565b82600b60008282546109f79190611961565b9091555050604080518481523460208201526001600160a01b038416917f3a8a89b59a31c39a36febecb987e0657ab7b7c73b60ebacb44dcb9886c2d5c8a910160405180910390a26000610a4b8234611974565b90508015610a8257604051339082156108fc029083906000818181858888f19350505050158015610a80573d6000803e3d6000fd5b505b50505050565b6000610a93826112a0565b6001600160a01b039485169490915081168414610ab957610ab962a1148160e81b611176565b60008281526006602052604090208054338082146001600160a01b03881690911417610afd57610ae98633611065565b610afd57610afd632ce44b5f60e11b611176565b8015610b0857600082555b6001600160a01b038681166000908152600560205260408082208054600019019055918716808252919020805460010190554260a01b17600160e11b17600085815260046020526040812091909155600160e11b84169003610b9a57600184016000818152600460205260408120549003610b98576000548114610b985760008181526004602052604090208490555b505b6001600160a01b0385168481887fddf252ad1be2c89b69c2b068fc378daa952ba7f163c4a11628f55a4df523b3ef600080a480600003610be457610be4633a954ecd60e21b611176565b6108bb565b600080610bfe6009546001600160a01b031690565b91506064610c0d846005611928565b610c17919061193f565b90509250929050565b610c28611336565b4780610c6d5760405162461bcd60e51b81526020600482015260146024820152734e6f2066756e647320746f20776974686472617760601b604482015260640161077a565b7fa692503bc54c9f1d1483729b6058a24987097ff492084b1a8adf8cae08e4fb43610ca06009546001600160a01b031690565b604080516001600160a01b039092168252602082018490520160405180910390a16000610cd56009546001600160a01b031690565b6001600160a01b03164760405160006040518083038185875af1925050503d8060008114610d1f576040519150601f19603f3d011682016040523d82523d6000602084013e610d24565b606091505b50509050806106ef5760405162461bcd60e51b815260206004820152600f60248201526e151c985b9cd9995c8819985a5b1959608a1b604482015260640161077a565b6001600160a01b0382166000908152600c602052604081208054839290610d8f908490611961565b90915550505050565b610db383838360405180602001604052806000815250610f61565b505050565b6000610610826112a0565b60006001600160a01b038216610de357610de36323d3ad8160e21b611176565b506001600160a01b031660009081526005602052604090205467ffffffffffffffff1690565b610e11611336565b610e1b6000611363565b565b606060038054610625906118d8565b60003390506000610e3e600a54611223565b610e489084611928565b905080341015610e745760405163c108422360e01b81526004810182905234602482015260440161077a565b6103e883600a54610e859190611961565b1115610e9c5782600a546103e86107ab9190611974565b336000908152600c6020526040902054610eb790600a611961565b610ec03361125d565b610eca9085611961565b11610ed9578261080a3361125d565b610ee33384611286565b82600a60008282546109f79190611961565b3360008181526007602090815260408083206001600160a01b03871680855290835292819020805460ff191686151590811790915590519081529192917f17307eab39ab6107e8899845ad3d59bd9653f200f220920489ca2b5937696c31910160405180910390a35050565b610f6c848484610a88565b6001600160a01b0383163b15610a8257610f88848484846113b5565b610a8257610a826368d2bf6b60e11b611176565b6060610fa782611131565b610fbb57610fbb630a14c4b560e41b611176565b6000610fc5611497565b90508051600003610fe55760405180602001604052806000815250611010565b80610fef846114b7565b604051602001611000929190611987565b6040516020818303038152906040525b9392505050565b610d67611336565b6000806064600a546110319190611961565b90506103e881111561105657604051631a93c68960e11b815260040160405180910390fd5b61105f81611223565b91505090565b6001600160a01b03918216600090815260076020908152604080832093909416825291909152205460ff1690565b60006110a0600a54611223565b905090565b6110ad611336565b6001600160a01b0381166110d757604051631e4fbdf760e01b81526000600482015260240161077a565b6110e081611363565b50565b60006301ffc9a760e01b6001600160e01b03198316148061111457506380ac58cd60e01b6001600160e01b03198316145b806106105750506001600160e01b031916635b5e139f60e01b1490565b600080548210156111715760005b506000828152600460205260408120549081900361116757611160836119b6565b925061113f565b600160e01b161590505b919050565b8060005260046000fd5b600061118b83610db8565b90508180156111a35750336001600160a01b03821614155b156111c6576111b28133611065565b6111c6576111c66367d9dca160e11b611176565b60008381526006602052604080822080546001600160a01b0319166001600160a01b0388811691821790925591518693918516917f8c5be1e5ebec7d5bd14f71427d1e84f3dd0314c0f7b2291e5b200ac8c7c3b92591a450505050565b60008061123160648461193f565b61123c906001611961565b905061124d64a2fb40580082611928565b6110109065065dd0837000611961565b6001600160a01b03166000908152600560205260409081902054901c67ffffffffffffffff1690565b6106ef8282604051806020016040528060008152506114fb565b600081815260046020526040902054806000036113135760005482106112d0576112d0636f96cda160e11b611176565b5b506000190160008181526004602052604090205480156112d157600160e01b81166000036112fe57919050565b61130e636f96cda160e11b611176565b6112d1565b600160e01b811660000361132657919050565b611171636f96cda160e11b611176565b6009546001600160a01b03163314610e1b5760405163118cdaa760e01b815233600482015260240161077a565b600980546001600160a01b038381166001600160a01b0319831681179093556040519116919082907f8be0079c531659141344cd1fd0a4f28419497f9722a3daafe3b4186f6b6457e090600090a35050565b604051630a85bd0160e11b81526000906001600160a01b0385169063150b7a02906113ea9033908990889088906004016119cd565b6020604051808303816000875af1925050508015611425575060408051601f3d908101601f1916820190925261142291810190611a0a565b60015b61147a573d808015611453576040519150601f19603f3d011682016040523d82523d6000602084013e611458565b606091505b508051600003611472576114726368d2bf6b60e11b611176565b805181602001fd5b6001600160e01b031916630a85bd0160e11b149050949350505050565b6060604051806080016040528060438152602001611a2860439139905090565b606060a06040510180604052602081039150506000815280825b600183039250600a81066030018353600a9004806114d15750819003601f19909101908152919050565b6115058383611558565b6001600160a01b0383163b15610db3576000548281035b61152f60008683806001019450866113b5565b611543576115436368d2bf6b60e11b611176565b81811061151c578160005414610a8057600080fd5b60008054908290036115745761157463b562e8dd60e01b611176565b60008181526004602090815260408083206001600160a01b0387164260a01b6001881460e11b178117909155808452600590925282208054680100000000000000018602019055908190036115d2576115d2622e076360e81b611176565b818301825b808360007fddf252ad1be2c89b69c2b068fc378daa952ba7f163c4a11628f55a4df523b3ef600080a48181600101915081036115d7575060005550505050565b6001600160e01b0319811681146110e057600080fd5b60006020828403121561163f57600080fd5b813561101081611617565b60005b8381101561166557818101518382015260200161164d565b50506000910152565b6000815180845261168681602086016020860161164a565b601f01601f19169290920160200192915050565b602081526000611010602083018461166e565b6000602082840312156116bf57600080fd5b5035919050565b80356001600160a01b038116811461117157600080fd5b600080604083850312156116f057600080fd5b6116f9836116c6565b946020939093013593505050565b60008060006060848603121561171c57600080fd5b611725846116c6565b9250611733602085016116c6565b9150604084013590509250925092565b6000806040838503121561175657600080fd5b50508035926020909101359150565b60006020828403121561177757600080fd5b611010826116c6565b6000806040838503121561179357600080fd5b61179c836116c6565b9150602083013580151581146117b157600080fd5b809150509250929050565b634e487b7160e01b600052604160045260246000fd5b600080600080608085870312156117e857600080fd5b6117f1856116c6565b93506117ff602086016116c6565b925060408501359150606085013567ffffffffffffffff8082111561182357600080fd5b818701915087601f83011261183757600080fd5b813581811115611849576118496117bc565b604051601f8201601f19908116603f01168101908382118183101715611871576118716117bc565b816040528281528a602084870101111561188a57600080fd5b82602086016020830137600060208483010152809550505050505092959194509250565b600080604083850312156118c157600080fd5b6118ca836116c6565b9150610c17602084016116c6565b600181811c908216806118ec57607f821691505b60208210810361190c57634e487b7160e01b600052602260045260246000fd5b50919050565b634e487b7160e01b600052601160045260246000fd5b808202811582820484141761061057610610611912565b60008261195c57634e487b7160e01b600052601260045260246000fd5b500490565b8082018082111561061057610610611912565b8181038181111561061057610610611912565b6000835161199981846020880161164a565b8351908301906119ad81836020880161164a565b01949350505050565b6000816119c5576119c5611912565b506000190190565b6001600160a01b0385811682528416602082015260408101839052608060608201819052600090611a009083018461166e565b9695505050505050565b600060208284031215611a1c57600080fd5b81516110108161161756fe68747470733a2f2f697066732e696f2f697066732f516d554662556a416966763947774a6f3775665442357363636e724e71454c68444d61666f456d5a6450506e6737a2646970667358221220bd7a1bd437852a693f5c62d456c91913c8fa3a14e800cce46a3d31ad6997954c64736f6c63430008180033",
    "linkReferences": {}
  },
  "methodIdentifiers": {
    "addVIPMinter(address,uint256)": "dffab7e4",
    "addVIPMinterTestnet(address,uint256)": "3db19035",
    "approve(address,uint256)": "095ea7b3",
    "balanceOf(address)": "70a08231",
    "getApproved(uint256)": "081812fc",
    "getCurrentPrice()": "eb91d37e",
    "getMintedNFTsCount()": "d5f129ad",
    "getMintedVIPNFTsCount()": "2660aabc",
    "getNextNFTPrice()": "e38f18f2",
    "getTotalNFTCount()": "bc50c9c1",
    "getTotalVIPNFTCount()": "31408098",
    "getVIPMintQuota(address)": "a6906827",
    "getVIPPrice()": "b6342d5e",
    "isApprovedForAll(address,address)": "e985e9c5",
    "mint(uint256)": "a0712d68",
    "mintVIP(uint256)": "231931bd",
    "mintbyKingdomly(uint256)": "1a0aa6db",
    "name()": "06fdde03",
    "owner()": "8da5cb5b",
    "ownerOf(uint256)": "6352211e",
    "renounceOwnership()": "715018a6",
    "royaltyInfo(uint256,uint256)": "2a55205a",
    "safeTransferFrom(address,address,uint256)": "42842e0e",
    "safeTransferFrom(address,address,uint256,bytes)": "b88d4fde",
    "setApprovalForAll(address,bool)": "a22cb465",
    "supportsInterface(bytes4)": "01ffc9a7",
    "symbol()": "95d89b41",
    "tokenCountNormal()": "c4039f6c",
    "tokenCountVIP()": "ec6533e1",
    "tokenURI(uint256)": "c87b56dd",
    "totalSupply()": "18160ddd",
    "transferFrom(address,address,uint256)": "23b872dd",
    "transferOwnership(address)": "f2fde38b",
    "withdraw()": "3ccfd60b",
    "withdrawTestnet()": "a4f6c8ae"
  },
  "id": 27
}