{
  "abi": [
    {
      "type": "constructor",
      "inputs": [],
      "stateMutability": "nonpayable"
    },
    {
      "type": "function",
      "name": "approve",
      "inputs": [
        {
          "name": "to",
          "type": "address",
          "internalType": "address"
        },
        {
          "name": "tokenId",
          "type": "uint256",
          "internalType": "uint256"
        }
      ],
      "outputs": [],
      "stateMutability": "nonpayable"
    },
    {
      "type": "function",
      "name": "balanceOf",
      "inputs": [
        {
          "name": "owner",
          "type": "address",
          "internalType": "address"
        }
      ],
      "outputs": [
        {
          "name": "",
          "type": "uint256",
          "internalType": "uint256"
        }
      ],
      "stateMutability": "view"
    },
    {
      "type": "function",
      "name": "getApproved",
      "inputs": [
        {
          "name": "tokenId",
          "type": "uint256",
          "internalType": "uint256"
        }
      ],
      "outputs": [
        {
          "name": "",
          "type": "address",
          "internalType": "address"
        }
      ],
      "stateMutability": "view"
    },
    {
      "type": "function",
      "name": "getCurrentPrice",
      "inputs": [],
      "outputs": [
        {
          "name": "",
          "type": "uint256",
          "internalType": "uint256"
        }
      ],
      "stateMutability": "view"
    },
    {
      "type": "function",
      "name": "getMintedNFTsCount",
      "inputs": [],
      "outputs": [
        {
          "name": "",
          "type": "uint256",
          "internalType": "uint256"
        }
      ],
      "stateMutability": "view"
    },
    {
      "type": "function",
      "name": "getMintedVIPNFTsCount",
      "inputs": [],
      "outputs": [
        {
          "name": "",
          "type": "uint256",
          "internalType": "uint256"
        }
      ],
      "stateMutability": "view"
    },
    {
      "type": "function",
      "name": "getNextNFTPrice",
      "inputs": [],
      "outputs": [
        {
          "name": "",
          "type": "uint256",
          "internalType": "uint256"
        }
      ],
      "stateMutability": "view"
    },
    {
      "type": "function",
      "name": "getTotalNFTCount",
      "inputs": [],
      "outputs": [
        {
          "name": "",
          "type": "uint256",
          "internalType": "uint256"
        }
      ],
      "stateMutability": "pure"
    },
    {
      "type": "function",
      "name": "getTotalVIPNFTCount",
      "inputs": [],
      "outputs": [
        {
          "name": "",
          "type": "uint256",
          "internalType": "uint256"
        }
      ],
      "stateMutability": "pure"
    },
    {
      "type": "function",
      "name": "getVIPMintQuota",
      "inputs": [
        {
          "name": "user",
          "type": "address",
          "internalType": "address"
        }
      ],
      "outputs": [
        {
          "name": "",
          "type": "uint256",
          "internalType": "uint256"
        }
      ],
      "stateMutability": "view"
    },
    {
      "type": "function",
      "name": "getVIPPrice",
      "inputs": [],
      "outputs": [
        {
          "name": "",
          "type": "uint256",
          "internalType": "uint256"
        }
      ],
      "stateMutability": "pure"
    },
    {
      "type": "function",
      "name": "incrementVIPMintQuota",
      "inputs": [
        {
          "name": "user",
          "type": "address",
          "internalType": "address"
        },
        {
          "name": "amount",
          "type": "uint256",
          "internalType": "uint256"
        }
      ],
      "outputs": [],
      "stateMutability": "nonpayable"
    },
    {
      "type": "function",
      "name": "isApprovedForAll",
      "inputs": [
        {
          "name": "owner",
          "type": "address",
          "internalType": "address"
        },
        {
          "name": "operator",
          "type": "address",
          "internalType": "address"
        }
      ],
      "outputs": [
        {
          "name": "",
          "type": "bool",
          "internalType": "bool"
        }
      ],
      "stateMutability": "view"
    },
    {
      "type": "function",
      "name": "merkleRoot",
      "inputs": [],
      "outputs": [
        {
          "name": "",
          "type": "bytes32",
          "internalType": "bytes32"
        }
      ],
      "stateMutability": "view"
    },
    {
      "type": "function",
      "name": "mint",
      "inputs": [
        {
          "name": "amount",
          "type": "uint256",
          "internalType": "uint256"
        }
      ],
      "outputs": [],
      "stateMutability": "payable"
    },
    {
      "type": "function",
      "name": "mintOnKingdomly",
      "inputs": [
        {
          "name": "amount",
          "type": "uint256",
          "internalType": "uint256"
        }
      ],
      "outputs": [],
      "stateMutability": "payable"
    },
    {
      "type": "function",
      "name": "mintVIP",
      "inputs": [
        {
          "name": "amount",
          "type": "uint256",
          "internalType": "uint256"
        }
      ],
      "outputs": [],
      "stateMutability": "payable"
    },
    {
      "type": "function",
      "name": "name",
      "inputs": [],
      "outputs": [
        {
          "name": "",
          "type": "string",
          "internalType": "string"
        }
      ],
      "stateMutability": "view"
    },
    {
      "type": "function",
      "name": "owner",
      "inputs": [],
      "outputs": [
        {
          "name": "",
          "type": "address",
          "internalType": "address"
        }
      ],
      "stateMutability": "view"
    },
    {
      "type": "function",
      "name": "ownerOf",
      "inputs": [
        {
          "name": "tokenId",
          "type": "uint256",
          "internalType": "uint256"
        }
      ],
      "outputs": [
        {
          "name": "",
          "type": "address",
          "internalType": "address"
        }
      ],
      "stateMutability": "view"
    },
    {
      "type": "function",
      "name": "renounceOwnership",
      "inputs": [],
      "outputs": [],
      "stateMutability": "nonpayable"
    },
    {
      "type": "function",
      "name": "royaltyInfo",
      "inputs": [
        {
          "name": "",
          "type": "uint256",
          "internalType": "uint256"
        },
        {
          "name": "salePrice",
          "type": "uint256",
          "internalType": "uint256"
        }
      ],
      "outputs": [
        {
          "name": "receiver",
          "type": "address",
          "internalType": "address"
        },
        {
          "name": "royaltyAmount",
          "type": "uint256",
          "internalType": "uint256"
        }
      ],
      "stateMutability": "view"
    },
    {
      "type": "function",
      "name": "safeTransferFrom",
      "inputs": [
        {
          "name": "from",
          "type": "address",
          "internalType": "address"
        },
        {
          "name": "to",
          "type": "address",
          "internalType": "address"
        },
        {
          "name": "tokenId",
          "type": "uint256",
          "internalType": "uint256"
        }
      ],
      "outputs": [],
      "stateMutability": "nonpayable"
    },
    {
      "type": "function",
      "name": "safeTransferFrom",
      "inputs": [
        {
          "name": "from",
          "type": "address",
          "internalType": "address"
        },
        {
          "name": "to",
          "type": "address",
          "internalType": "address"
        },
        {
          "name": "tokenId",
          "type": "uint256",
          "internalType": "uint256"
        },
        {
          "name": "data",
          "type": "bytes",
          "internalType": "bytes"
        }
      ],
      "outputs": [],
      "stateMutability": "nonpayable"
    },
    {
      "type": "function",
      "name": "setApprovalForAll",
      "inputs": [
        {
          "name": "operator",
          "type": "address",
          "internalType": "address"
        },
        {
          "name": "approved",
          "type": "bool",
          "internalType": "bool"
        }
      ],
      "outputs": [],
      "stateMutability": "nonpayable"
    },
    {
      "type": "function",
      "name": "supportsInterface",
      "inputs": [
        {
          "name": "interfaceId",
          "type": "bytes4",
          "internalType": "bytes4"
        }
      ],
      "outputs": [
        {
          "name": "",
          "type": "bool",
          "internalType": "bool"
        }
      ],
      "stateMutability": "view"
    },
    {
      "type": "function",
      "name": "symbol",
      "inputs": [],
      "outputs": [
        {
          "name": "",
          "type": "string",
          "internalType": "string"
        }
      ],
      "stateMutability": "view"
    },
    {
      "type": "function",
      "name": "tokenCountKingdomly",
      "inputs": [],
      "outputs": [
        {
          "name": "",
          "type": "uint256",
          "internalType": "uint256"
        }
      ],
      "stateMutability": "view"
    },
    {
      "type": "function",
      "name": "tokenCountNormal",
      "inputs": [],
      "outputs": [
        {
          "name": "",
          "type": "uint256",
          "internalType": "uint256"
        }
      ],
      "stateMutability": "view"
    },
    {
      "type": "function",
      "name": "tokenCountVIP",
      "inputs": [],
      "outputs": [
        {
          "name": "",
          "type": "uint256",
          "internalType": "uint256"
        }
      ],
      "stateMutability": "view"
    },
    {
      "type": "function",
      "name": "tokenId",
      "inputs": [],
      "outputs": [
        {
          "name": "",
          "type": "uint256",
          "internalType": "uint256"
        }
      ],
      "stateMutability": "view"
    },
    {
      "type": "function",
      "name": "tokenURI",
      "inputs": [
        {
          "name": "tokenId",
          "type": "uint256",
          "internalType": "uint256"
        }
      ],
      "outputs": [
        {
          "name": "",
          "type": "string",
          "internalType": "string"
        }
      ],
      "stateMutability": "view"
    },
    {
      "type": "function",
      "name": "transferFrom",
      "inputs": [
        {
          "name": "from",
          "type": "address",
          "internalType": "address"
        },
        {
          "name": "to",
          "type": "address",
          "internalType": "address"
        },
        {
          "name": "tokenId",
          "type": "uint256",
          "internalType": "uint256"
        }
      ],
      "outputs": [],
      "stateMutability": "nonpayable"
    },
    {
      "type": "function",
      "name": "transferOwnership",
      "inputs": [
        {
          "name": "newOwner",
          "type": "address",
          "internalType": "address"
        }
      ],
      "outputs": [],
      "stateMutability": "nonpayable"
    },
    {
      "type": "function",
      "name": "withdraw",
      "inputs": [],
      "outputs": [],
      "stateMutability": "nonpayable"
    },
    {
      "type": "event",
      "name": "Approval",
      "inputs": [
        {
          "name": "owner",
          "type": "address",
          "indexed": true,
          "internalType": "address"
        },
        {
          "name": "approved",
          "type": "address",
          "indexed": true,
          "internalType": "address"
        },
        {
          "name": "tokenId",
          "type": "uint256",
          "indexed": true,
          "internalType": "uint256"
        }
      ],
      "anonymous": false
    },
    {
      "type": "event",
      "name": "ApprovalForAll",
      "inputs": [
        {
          "name": "owner",
          "type": "address",
          "indexed": true,
          "internalType": "address"
        },
        {
          "name": "operator",
          "type": "address",
          "indexed": true,
          "internalType": "address"
        },
        {
          "name": "approved",
          "type": "bool",
          "indexed": false,
          "internalType": "bool"
        }
      ],
      "anonymous": false
    },
    {
      "type": "event",
      "name": "FundWithdrawn",
      "inputs": [
        {
          "name": "owner",
          "type": "address",
          "indexed": false,
          "internalType": "address"
        },
        {
          "name": "amount",
          "type": "uint256",
          "indexed": false,
          "internalType": "uint256"
        }
      ],
      "anonymous": false
    },
    {
      "type": "event",
      "name": "NFTMinted",
      "inputs": [
        {
          "name": "minter",
          "type": "address",
          "indexed": true,
          "internalType": "address"
        },
        {
          "name": "amount",
          "type": "uint256",
          "indexed": false,
          "internalType": "uint256"
        },
        {
          "name": "value",
          "type": "uint256",
          "indexed": false,
          "internalType": "uint256"
        }
      ],
      "anonymous": false
    },
    {
      "type": "event",
      "name": "OwnershipTransferred",
      "inputs": [
        {
          "name": "previousOwner",
          "type": "address",
          "indexed": true,
          "internalType": "address"
        },
        {
          "name": "newOwner",
          "type": "address",
          "indexed": true,
          "internalType": "address"
        }
      ],
      "anonymous": false
    },
    {
      "type": "event",
      "name": "Transfer",
      "inputs": [
        {
          "name": "from",
          "type": "address",
          "indexed": true,
          "internalType": "address"
        },
        {
          "name": "to",
          "type": "address",
          "indexed": true,
          "internalType": "address"
        },
        {
          "name": "tokenId",
          "type": "uint256",
          "indexed": true,
          "internalType": "uint256"
        }
      ],
      "anonymous": false
    },
    {
      "type": "error",
      "name": "ERC721IncorrectOwner",
      "inputs": [
        {
          "name": "sender",
          "type": "address",
          "internalType": "address"
        },
        {
          "name": "tokenId",
          "type": "uint256",
          "internalType": "uint256"
        },
        {
          "name": "owner",
          "type": "address",
          "internalType": "address"
        }
      ]
    },
    {
      "type": "error",
      "name": "ERC721InsufficientApproval",
      "inputs": [
        {
          "name": "operator",
          "type": "address",
          "internalType": "address"
        },
        {
          "name": "tokenId",
          "type": "uint256",
          "internalType": "uint256"
        }
      ]
    },
    {
      "type": "error",
      "name": "ERC721InvalidApprover",
      "inputs": [
        {
          "name": "approver",
          "type": "address",
          "internalType": "address"
        }
      ]
    },
    {
      "type": "error",
      "name": "ERC721InvalidOperator",
      "inputs": [
        {
          "name": "operator",
          "type": "address",
          "internalType": "address"
        }
      ]
    },
    {
      "type": "error",
      "name": "ERC721InvalidOwner",
      "inputs": [
        {
          "name": "owner",
          "type": "address",
          "internalType": "address"
        }
      ]
    },
    {
      "type": "error",
      "name": "ERC721InvalidReceiver",
      "inputs": [
        {
          "name": "receiver",
          "type": "address",
          "internalType": "address"
        }
      ]
    },
    {
      "type": "error",
      "name": "ERC721InvalidSender",
      "inputs": [
        {
          "name": "sender",
          "type": "address",
          "internalType": "address"
        }
      ]
    },
    {
      "type": "error",
      "name": "ERC721NonexistentToken",
      "inputs": [
        {
          "name": "tokenId",
          "type": "uint256",
          "internalType": "uint256"
        }
      ]
    },
    {
      "type": "error",
      "name": "OwnableInvalidOwner",
      "inputs": [
        {
          "name": "owner",
          "type": "address",
          "internalType": "address"
        }
      ]
    },
    {
      "type": "error",
      "name": "OwnableUnauthorizedAccount",
      "inputs": [
        {
          "name": "account",
          "type": "address",
          "internalType": "address"
        }
      ]
    }
  ],
  "bytecode": {
    "object": "0x60806040523480156200001157600080fd5b50336040518060400160405280600c81526020016b486f6e657947656e6573697360a01b81525060405180604001604052806005815260200164484f4e455960d81b8152508160009081620000679190620001c7565b506001620000768282620001c7565b5050506001600160a01b038116620000a857604051631e4fbdf760e01b81526000600482015260240160405180910390fd5b620000b381620000ce565b50600060088190556009819055600b819055600a5562000293565b600680546001600160a01b038381166001600160a01b0319831681179093556040519116919082907f8be0079c531659141344cd1fd0a4f28419497f9722a3daafe3b4186f6b6457e090600090a35050565b634e487b7160e01b600052604160045260246000fd5b600181811c908216806200014b57607f821691505b6020821081036200016c57634e487b7160e01b600052602260045260246000fd5b50919050565b601f821115620001c2576000816000526020600020601f850160051c810160208610156200019d5750805b601f850160051c820191505b81811015620001be57828155600101620001a9565b5050505b505050565b81516001600160401b03811115620001e357620001e362000120565b620001fb81620001f4845462000136565b8462000172565b602080601f8311600181146200023357600084156200021a5750858301515b600019600386901b1c1916600185901b178555620001be565b600085815260208120601f198616915b82811015620002645788860151825594840194600190910190840162000243565b5085821015620002835787850151600019600388901b60f8161c191681555b5050505050600190811b01905550565b611b2180620002a36000396000f3fe6080604052600436106102045760003560e01c8063715018a611610118578063c4039f6c116100a0578063e38f18f21161006f578063e38f18f214610596578063e985e9c5146105ab578063eb91d37e146105cb578063ec6533e1146105e0578063f2fde38b146105f657600080fd5b8063c4039f6c1461052b578063c87b56dd14610541578063d5f129ad14610561578063da6329261461057657600080fd5b8063a22cb465116100e7578063a22cb46514610488578063a6906827146104a8578063b6342d5e146104de578063b88d4fde146104f7578063bc50c9c11461051757600080fd5b8063715018a61461042d5780638da5cb5b1461044257806395d89b4114610460578063a0712d681461047557600080fd5b80632660aabc1161019b5780633ccfd60b1161016a5780633ccfd60b146103a257806342842e0e146103b75780635e70721a146103d75780636352211e146103ed57806370a082311461040d57600080fd5b80632660aabc146103245780632a55205a146103395780632eb4a7ab14610378578063314080981461038e57600080fd5b8063140ed409116101d7578063140ed409146102ba57806317d70f7c146102cd578063231931bd146102f157806323b872dd1461030457600080fd5b806301ffc9a71461020957806306fdde031461023e578063081812fc14610260578063095ea7b314610298575b600080fd5b34801561021557600080fd5b50610229610224366004611692565b610616565b60405190151581526020015b60405180910390f35b34801561024a57600080fd5b50610253610641565b60405161023591906116ff565b34801561026c57600080fd5b5061028061027b366004611712565b6106d3565b6040516001600160a01b039091168152602001610235565b3480156102a457600080fd5b506102b86102b3366004611747565b6106fc565b005b6102b86102c8366004611712565b61070b565b3480156102d957600080fd5b506102e360085481565b604051908152602001610235565b6102b86102ff366004611712565b610728565b34801561031057600080fd5b506102b861031f366004611771565b6108ff565b34801561033057600080fd5b50600b546102e3565b34801561034557600080fd5b506103596103543660046117ad565b61098a565b604080516001600160a01b039093168352602083019190915201610235565b34801561038457600080fd5b506102e360075481565b34801561039a57600080fd5b5060076102e3565b3480156103ae57600080fd5b506102b86109c1565b3480156103c357600080fd5b506102b86103d2366004611771565b610ac5565b3480156103e357600080fd5b506102e3600a5481565b3480156103f957600080fd5b50610280610408366004611712565b610ae5565b34801561041957600080fd5b506102e36104283660046117cf565b610af0565b34801561043957600080fd5b506102b8610b38565b34801561044e57600080fd5b506006546001600160a01b0316610280565b34801561046c57600080fd5b50610253610b4c565b6102b8610483366004611712565b610b5b565b34801561049457600080fd5b506102b86104a33660046117ea565b610ca9565b3480156104b457600080fd5b506102e36104c33660046117cf565b6001600160a01b03166000908152600c602052604090205490565b3480156104ea57600080fd5b50650646880c88006102e3565b34801561050357600080fd5b506102b861051236600461183c565b610cb4565b34801561052357600080fd5b5060196102e3565b34801561053757600080fd5b506102e360095481565b34801561054d57600080fd5b5061025361055c366004611712565b610ccb565b34801561056d57600080fd5b506009546102e3565b34801561058257600080fd5b506102b8610591366004611747565b610d33565b3480156105a257600080fd5b506102e3610d6c565b3480156105b757600080fd5b506102296105c6366004611918565b610e05565b3480156105d757600080fd5b506102e3610e33565b3480156105ec57600080fd5b506102e3600b5481565b34801561060257600080fd5b506102b86106113660046117cf565b610e77565b60006001600160e01b0319821663152a902d60e11b148061063b575061063b82610eb5565b92915050565b60606000805461065090611942565b80601f016020809104026020016040519081016040528092919081815260200182805461067c90611942565b80156106c95780601f1061069e576101008083540402835291602001916106c9565b820191906000526020600020905b8154815290600101906020018083116106ac57829003601f168201915b5050505050905090565b60006106de82610f05565b506000828152600460205260409020546001600160a01b031661063b565b610707828233610f3e565b5050565b61071481610b5b565b80600a546107229190611992565b600a5550565b33610739650646880c8800836119a5565b3410156107825760405162461bcd60e51b8152602060048201526012602482015271496e73756666696369656e742066756e647360701b60448201526064015b60405180910390fd5b6007826008546107929190611992565b11156107e05760405162461bcd60e51b815260206004820152601c60248201527f4578636565647320746f74616c2056495020737570706c7920636170000000006044820152606401610779565b6001600160a01b0381166000908152600c60205260409020548211156108415760405162461bcd60e51b81526020600482015260166024820152754578636565647320564950206d696e742071756f746160501b6044820152606401610779565b6001600160a01b0381166000908152600c6020526040812080548492906108699084906119bc565b90915550600090505b828110156108b757600860008154610889906119cf565b90915550600b805460009061089d906119cf565b909155506008546108af908390610f4b565b600101610872565b50604080518381523460208201526001600160a01b038316917f3a8a89b59a31c39a36febecb987e0657ab7b7c73b60ebacb44dcb9886c2d5c8a910160405180910390a25050565b6001600160a01b03821661092957604051633250574960e11b815260006004820152602401610779565b6000610936838333610f65565b9050836001600160a01b0316816001600160a01b031614610984576040516364283d7b60e01b81526001600160a01b0380861660048301526024820184905282166044820152606401610779565b50505050565b60008061099f6006546001600160a01b031690565b915060646109ae8460056119a5565b6109b891906119e8565b90509250929050565b6109c961105e565b60006109dd6006546001600160a01b031690565b6001600160a01b03164760405160006040518083038185875af1925050503d8060008114610a27576040519150601f19603f3d011682016040523d82523d6000602084013e610a2c565b606091505b5050905080610a6f5760405162461bcd60e51b815260206004820152600f60248201526e151c985b9cd9995c8819985a5b1959608a1b6044820152606401610779565b7fa692503bc54c9f1d1483729b6058a24987097ff492084b1a8adf8cae08e4fb43610aa26006546001600160a01b031690565b604080516001600160a01b0390921682524760208301520160405180910390a150565b610ae083838360405180602001604052806000815250610cb4565b505050565b600061063b82610f05565b60006001600160a01b038216610b1c576040516322718ad960e21b815260006004820152602401610779565b506001600160a01b031660009081526003602052604090205490565b610b4061105e565b610b4a600061108b565b565b60606001805461065090611942565b33610b64610e33565b610b6e90836119a5565b341015610bb25760405162461bcd60e51b8152602060048201526012602482015271496e73756666696369656e742066756e647360701b6044820152606401610779565b601982600854610bc29190611992565b1115610c105760405162461bcd60e51b815260206004820152601860248201527f4578636565647320746f74616c20737570706c792063617000000000000000006044820152606401610779565b6002821115610c615760405162461bcd60e51b815260206004820152601760248201527f45786365656473206d6178206d696e7420616d6f756e740000000000000000006044820152606401610779565b60005b828110156108b757600960008154610c7b906119cf565b9091555060088054600090610c8f906119cf565b90915550600854610ca1908390610f4b565b600101610c64565b6107073383836110dd565b610cbf8484846108ff565b6109848484848461117c565b6060610cd682610f05565b506000610ce16112a5565b90506000815111610d015760405180602001604052806000815250610d2c565b80610d0b846112c5565b604051602001610d1c929190611a0a565b6040516020818303038152906040525b9392505050565b610d3b61105e565b6001600160a01b0382166000908152600c602052604081208054839290610d63908490611992565b90915550505050565b6000806004600954610d7e9190611992565b905060198111610dc8576000610d956004836119e8565b610da0906001611992565b9050610db164a2fb405800826119a5565b610dc19065065dd0837000611992565b9250505090565b60405162461bcd60e51b815260206004820152601260248201527113585e081cdd5c1c1b1e481c995858da195960721b6044820152606401610779565b6001600160a01b03918216600090815260056020908152604080832093909416825291909152205460ff1690565b6000806004600954610e4591906119e8565b610e50906001611992565b9050610e6164a2fb405800826119a5565b610e719065065dd0837000611992565b91505090565b610e7f61105e565b6001600160a01b038116610ea957604051631e4fbdf760e01b815260006004820152602401610779565b610eb28161108b565b50565b60006001600160e01b031982166380ac58cd60e01b1480610ee657506001600160e01b03198216635b5e139f60e01b145b8061063b57506301ffc9a760e01b6001600160e01b031983161461063b565b6000818152600260205260408120546001600160a01b03168061063b57604051637e27328960e01b815260048101849052602401610779565b610ae08383836001611358565b61070782826040518060200160405280600081525061145e565b6000828152600260205260408120546001600160a01b0390811690831615610f9257610f92818486611475565b6001600160a01b03811615610fd057610faf600085600080611358565b6001600160a01b038116600090815260036020526040902080546000190190555b6001600160a01b03851615610fff576001600160a01b0385166000908152600360205260409020805460010190555b60008481526002602052604080822080546001600160a01b0319166001600160a01b0389811691821790925591518793918516917fddf252ad1be2c89b69c2b068fc378daa952ba7f163c4a11628f55a4df523b3ef91a4949350505050565b6006546001600160a01b03163314610b4a5760405163118cdaa760e01b8152336004820152602401610779565b600680546001600160a01b038381166001600160a01b0319831681179093556040519116919082907f8be0079c531659141344cd1fd0a4f28419497f9722a3daafe3b4186f6b6457e090600090a35050565b6001600160a01b03821661110f57604051630b61174360e31b81526001600160a01b0383166004820152602401610779565b6001600160a01b03838116600081815260056020908152604080832094871680845294825291829020805460ff191686151590811790915591519182527f17307eab39ab6107e8899845ad3d59bd9653f200f220920489ca2b5937696c31910160405180910390a3505050565b6001600160a01b0383163b1561098457604051630a85bd0160e11b81526001600160a01b0384169063150b7a02906111be903390889087908790600401611a39565b6020604051808303816000875af19250505080156111f9575060408051601f3d908101601f191682019092526111f691810190611a76565b60015b611262573d808015611227576040519150601f19603f3d011682016040523d82523d6000602084013e61122c565b606091505b50805160000361125a57604051633250574960e11b81526001600160a01b0385166004820152602401610779565b805181602001fd5b6001600160e01b03198116630a85bd0160e11b1461129e57604051633250574960e11b81526001600160a01b0385166004820152602401610779565b5050505050565b6060604051806080016040528060588152602001611a9460589139905090565b606060006112d2836114d9565b600101905060008167ffffffffffffffff8111156112f2576112f2611826565b6040519080825280601f01601f19166020018201604052801561131c576020820181803683370190505b5090508181016020015b600019016f181899199a1a9b1b9c1cb0b131b232b360811b600a86061a8153600a850494508461132657509392505050565b808061136c57506001600160a01b03821615155b1561142e57600061137c84610f05565b90506001600160a01b038316158015906113a85750826001600160a01b0316816001600160a01b031614155b80156113bb57506113b98184610e05565b155b156113e45760405163a9fbf51f60e01b81526001600160a01b0384166004820152602401610779565b811561142c5783856001600160a01b0316826001600160a01b03167f8c5be1e5ebec7d5bd14f71427d1e84f3dd0314c0f7b2291e5b200ac8c7c3b92560405160405180910390a45b505b5050600090815260046020526040902080546001600160a01b0319166001600160a01b0392909216919091179055565b61146883836115b1565b610ae0600084848461117c565b611480838383611616565b610ae0576001600160a01b0383166114ae57604051637e27328960e01b815260048101829052602401610779565b60405163177e802f60e01b81526001600160a01b038316600482015260248101829052604401610779565b60008072184f03e93ff9f4daa797ed6e38ed64bf6a1f0160401b83106115185772184f03e93ff9f4daa797ed6e38ed64bf6a1f0160401b830492506040015b6d04ee2d6d415b85acef81000000008310611544576d04ee2d6d415b85acef8100000000830492506020015b662386f26fc10000831061156257662386f26fc10000830492506010015b6305f5e100831061157a576305f5e100830492506008015b612710831061158e57612710830492506004015b606483106115a0576064830492506002015b600a831061063b5760010192915050565b6001600160a01b0382166115db57604051633250574960e11b815260006004820152602401610779565b60006115e983836000610f65565b90506001600160a01b03811615610ae0576040516339e3563760e11b815260006004820152602401610779565b60006001600160a01b038316158015906116745750826001600160a01b0316846001600160a01b0316148061165057506116508484610e05565b8061167457506000828152600460205260409020546001600160a01b038481169116145b949350505050565b6001600160e01b031981168114610eb257600080fd5b6000602082840312156116a457600080fd5b8135610d2c8161167c565b60005b838110156116ca5781810151838201526020016116b2565b50506000910152565b600081518084526116eb8160208601602086016116af565b601f01601f19169290920160200192915050565b602081526000610d2c60208301846116d3565b60006020828403121561172457600080fd5b5035919050565b80356001600160a01b038116811461174257600080fd5b919050565b6000806040838503121561175a57600080fd5b6117638361172b565b946020939093013593505050565b60008060006060848603121561178657600080fd5b61178f8461172b565b925061179d6020850161172b565b9150604084013590509250925092565b600080604083850312156117c057600080fd5b50508035926020909101359150565b6000602082840312156117e157600080fd5b610d2c8261172b565b600080604083850312156117fd57600080fd5b6118068361172b565b91506020830135801515811461181b57600080fd5b809150509250929050565b634e487b7160e01b600052604160045260246000fd5b6000806000806080858703121561185257600080fd5b61185b8561172b565b93506118696020860161172b565b925060408501359150606085013567ffffffffffffffff8082111561188d57600080fd5b818701915087601f8301126118a157600080fd5b8135818111156118b3576118b3611826565b604051601f8201601f19908116603f011681019083821181831017156118db576118db611826565b816040528281528a60208487010111156118f457600080fd5b82602086016020830137600060208483010152809550505050505092959194509250565b6000806040838503121561192b57600080fd5b6119348361172b565b91506109b86020840161172b565b600181811c9082168061195657607f821691505b60208210810361197657634e487b7160e01b600052602260045260246000fd5b50919050565b634e487b7160e01b600052601160045260246000fd5b8082018082111561063b5761063b61197c565b808202811582820484141761063b5761063b61197c565b8181038181111561063b5761063b61197c565b6000600182016119e1576119e161197c565b5060010190565b600082611a0557634e487b7160e01b600052601260045260246000fd5b500490565b60008351611a1c8184602088016116af565b835190830190611a308183602088016116af565b01949350505050565b6001600160a01b0385811682528416602082015260408101839052608060608201819052600090611a6c908301846116d3565b9695505050505050565b600060208284031215611a8857600080fd5b8151610d2c8161167c56fe68747470733a2f2f6261666b726569666a3276796233733737797261667265796f75706b3467686a6f7971737869716f6f7432776a7a65763574667374706a65716c6d2e697066732e6e667473746f726167652e6c696e6ba2646970667358221220afa0fd0e66fadb6f4f8be4a12fb673de20da52ea67619e2e46094c6ceaa5d4c164736f6c63430008180033",
    "linkReferences": {}
  },
  "methodIdentifiers": {
    "approve(address,uint256)": "095ea7b3",
    "balanceOf(address)": "70a08231",
    "getApproved(uint256)": "081812fc",
    "getCurrentPrice()": "eb91d37e",
    "getMintedNFTsCount()": "d5f129ad",
    "getMintedVIPNFTsCount()": "2660aabc",
    "getNextNFTPrice()": "e38f18f2",
    "getTotalNFTCount()": "bc50c9c1",
    "getTotalVIPNFTCount()": "31408098",
    "getVIPMintQuota(address)": "a6906827",
    "getVIPPrice()": "b6342d5e",
    "incrementVIPMintQuota(address,uint256)": "da632926",
    "isApprovedForAll(address,address)": "e985e9c5",
    "merkleRoot()": "2eb4a7ab",
    "mint(uint256)": "a0712d68",
    "mintOnKingdomly(uint256)": "140ed409",
    "mintVIP(uint256)": "231931bd",
    "name()": "06fdde03",
    "owner()": "8da5cb5b",
    "ownerOf(uint256)": "6352211e",
    "renounceOwnership()": "715018a6",
    "royaltyInfo(uint256,uint256)": "2a55205a",
    "safeTransferFrom(address,address,uint256)": "42842e0e",
    "safeTransferFrom(address,address,uint256,bytes)": "b88d4fde",
    "setApprovalForAll(address,bool)": "a22cb465",
    "supportsInterface(bytes4)": "01ffc9a7",
    "symbol()": "95d89b41",
    "tokenCountKingdomly()": "5e70721a",
    "tokenCountNormal()": "c4039f6c",
    "tokenCountVIP()": "ec6533e1",
    "tokenId()": "17d70f7c",
    "tokenURI(uint256)": "c87b56dd",
    "transferFrom(address,address,uint256)": "23b872dd",
    "transferOwnership(address)": "f2fde38b",
    "withdraw()": "3ccfd60b"
  },
  "id": 36
}